{
  "contractName": "XBRNetwork",
  "abi": [
    {
      "constant": false,
      "inputs": [],
      "name": "renounceMaintainer",
      "outputs": [],
      "payable": false,
      "stateMutability": "nonpayable",
      "type": "function"
    },
    {
      "constant": false,
      "inputs": [
        {
          "name": "account",
          "type": "address"
        }
      ],
      "name": "addMaintainer",
      "outputs": [],
      "payable": false,
      "stateMutability": "nonpayable",
      "type": "function"
    },
    {
      "constant": true,
      "inputs": [],
      "name": "network_token",
      "outputs": [
        {
          "name": "",
          "type": "address"
        }
      ],
      "payable": false,
      "stateMutability": "view",
      "type": "function"
    },
    {
      "constant": true,
      "inputs": [],
      "name": "network_organization",
      "outputs": [
        {
          "name": "",
          "type": "address"
        }
      ],
      "payable": false,
      "stateMutability": "view",
      "type": "function"
    },
    {
      "constant": true,
      "inputs": [
        {
          "name": "account",
          "type": "address"
        }
      ],
      "name": "isMaintainer",
      "outputs": [
        {
          "name": "",
          "type": "bool"
        }
      ],
      "payable": false,
      "stateMutability": "view",
      "type": "function"
    },
    {
      "inputs": [
        {
          "name": "_network_token",
          "type": "address"
        },
        {
          "name": "_network_organization",
          "type": "address"
        }
      ],
      "payable": false,
      "stateMutability": "nonpayable",
      "type": "constructor"
    },
    {
      "anonymous": false,
      "inputs": [
        {
          "indexed": false,
          "name": "eula",
          "type": "bytes32"
        },
        {
          "indexed": false,
          "name": "profile",
          "type": "bytes32"
        },
        {
          "indexed": false,
          "name": "level",
          "type": "uint8"
        }
      ],
      "name": "MemberCreated",
      "type": "event"
    },
    {
      "anonymous": false,
      "inputs": [],
      "name": "ActorJoined",
      "type": "event"
    },
    {
      "anonymous": false,
      "inputs": [
        {
          "indexed": true,
          "name": "account",
          "type": "address"
        }
      ],
      "name": "MaintainerAdded",
      "type": "event"
    },
    {
      "anonymous": false,
      "inputs": [
        {
          "indexed": true,
          "name": "account",
          "type": "address"
        }
      ],
      "name": "MaintainerRemoved",
      "type": "event"
    },
    {
      "constant": false,
      "inputs": [
        {
          "name": "eula",
          "type": "bytes32"
        },
        {
          "name": "profile",
          "type": "bytes32"
        }
      ],
      "name": "register",
      "outputs": [],
      "payable": false,
      "stateMutability": "nonpayable",
      "type": "function"
    },
    {
      "constant": false,
      "inputs": [],
      "name": "unregister",
      "outputs": [],
      "payable": false,
      "stateMutability": "nonpayable",
      "type": "function"
    },
    {
      "constant": true,
      "inputs": [
        {
          "name": "member",
          "type": "address"
        }
      ],
      "name": "getMemberLevel",
      "outputs": [
        {
          "name": "",
          "type": "uint8"
        }
      ],
      "payable": false,
      "stateMutability": "view",
      "type": "function"
    },
    {
      "constant": false,
      "inputs": [
        {
          "name": "member",
          "type": "address"
        },
        {
          "name": "level",
          "type": "uint8"
        }
      ],
      "name": "setMemberLevel",
      "outputs": [],
      "payable": false,
      "stateMutability": "nonpayable",
      "type": "function"
    },
    {
      "constant": false,
      "inputs": [
        {
          "name": "marketId",
          "type": "bytes32"
        },
        {
          "name": "maker",
          "type": "address"
        },
        {
          "name": "terms",
          "type": "bytes32"
        },
        {
          "name": "providerSecurity",
          "type": "uint256"
        },
        {
          "name": "consumerSecurity",
          "type": "uint256"
        }
      ],
      "name": "openMarket",
      "outputs": [],
      "payable": false,
      "stateMutability": "nonpayable",
      "type": "function"
    },
    {
      "constant": true,
      "inputs": [
        {
          "name": "maker",
          "type": "address"
        }
      ],
      "name": "getMarketByMaker",
      "outputs": [
        {
          "name": "",
          "type": "bytes32"
        }
      ],
      "payable": false,
      "stateMutability": "view",
      "type": "function"
    },
    {
      "constant": true,
      "inputs": [
        {
          "name": "marketId",
          "type": "bytes32"
        }
      ],
      "name": "getMarketOwner",
      "outputs": [
        {
          "name": "",
          "type": "address"
        }
      ],
      "payable": false,
      "stateMutability": "view",
      "type": "function"
    },
    {
      "constant": true,
      "inputs": [
        {
          "name": "marketId",
          "type": "bytes32"
        }
      ],
      "name": "getMarketMaker",
      "outputs": [
        {
          "name": "",
          "type": "address"
        }
      ],
      "payable": false,
      "stateMutability": "view",
      "type": "function"
    },
    {
      "constant": true,
      "inputs": [
        {
          "name": "marketId",
          "type": "bytes32"
        }
      ],
      "name": "getMarketTerms",
      "outputs": [
        {
          "name": "",
          "type": "bytes32"
        }
      ],
      "payable": false,
      "stateMutability": "view",
      "type": "function"
    },
    {
      "constant": true,
      "inputs": [
        {
          "name": "marketId",
          "type": "bytes32"
        }
      ],
      "name": "getMarketProviderSecurity",
      "outputs": [
        {
          "name": "",
          "type": "uint256"
        }
      ],
      "payable": false,
      "stateMutability": "view",
      "type": "function"
    },
    {
      "constant": true,
      "inputs": [
        {
          "name": "marketId",
          "type": "bytes32"
        }
      ],
      "name": "getMarketConsumerSecurity",
      "outputs": [
        {
          "name": "",
          "type": "uint256"
        }
      ],
      "payable": false,
      "stateMutability": "view",
      "type": "function"
    },
    {
      "constant": false,
      "inputs": [
        {
          "name": "marketId",
          "type": "bytes32"
        },
        {
          "name": "actorType",
          "type": "uint8"
        }
      ],
      "name": "joinMarket",
      "outputs": [],
      "payable": true,
      "stateMutability": "payable",
      "type": "function"
    },
    {
      "constant": true,
      "inputs": [
        {
          "name": "marketId",
          "type": "bytes32"
        },
        {
          "name": "actor",
          "type": "address"
        }
      ],
      "name": "getMarketActorType",
      "outputs": [
        {
          "name": "",
          "type": "uint8"
        }
      ],
      "payable": false,
      "stateMutability": "view",
      "type": "function"
    },
    {
      "constant": false,
      "inputs": [
        {
          "name": "marketId",
          "type": "bytes32"
        }
      ],
      "name": "openPaymentChannel",
      "outputs": [
        {
          "name": "paymentChannel",
          "type": "address"
        }
      ],
      "payable": true,
      "stateMutability": "payable",
      "type": "function"
    },
    {
      "constant": false,
      "inputs": [
        {
          "name": "marketId",
          "type": "bytes32"
        },
        {
          "name": "amount",
          "type": "uint256"
        }
      ],
      "name": "requestPayingChannel",
      "outputs": [
        {
          "name": "channelRequestId",
          "type": "bytes32"
        }
      ],
      "payable": false,
      "stateMutability": "nonpayable",
      "type": "function"
    },
    {
      "constant": false,
      "inputs": [
        {
          "name": "marketId",
          "type": "bytes32"
        }
      ],
      "name": "leaveMarket",
      "outputs": [],
      "payable": false,
      "stateMutability": "nonpayable",
      "type": "function"
    },
    {
      "constant": false,
      "inputs": [
        {
          "name": "marketId",
          "type": "bytes32"
        }
      ],
      "name": "closeMarket",
      "outputs": [],
      "payable": false,
      "stateMutability": "nonpayable",
      "type": "function"
    }
  ],
  "bytecode": "0x608060405260018060006101000a81548163ffffffff021916908363ffffffff1602179055503480156200003257600080fd5b506040516040806200286f83398101806040528101908080519060200190929190805190602001909291905050506200007a33620001c1640100000000026401000000009004565b81600160046101000a81548173ffffffffffffffffffffffffffffffffffffffff021916908373ffffffffffffffffffffffffffffffffffffffff16021790555080600260006101000a81548173ffffffffffffffffffffffffffffffffffffffff021916908373ffffffffffffffffffffffffffffffffffffffff1602179055506060604051908101604052806000801916815260200160008019168152602001600260058111156200012a57fe5b815250600360003373ffffffffffffffffffffffffffffffffffffffff1673ffffffffffffffffffffffffffffffffffffffff168152602001908152602001600020600082015181600001906000191690556020820151816001019060001916905560408201518160020160006101000a81548160ff02191690836005811115620001b157fe5b0217905550905050505062000383565b620001e58160006200022b6401000000000262001850179091906401000000009004565b8073ffffffffffffffffffffffffffffffffffffffff167f1390a149489c82e9e2e89927bdb17ad1ea3f0cc314fce06c96369721d3afb8f060405160405180910390a250565b600073ffffffffffffffffffffffffffffffffffffffff168173ffffffffffffffffffffffffffffffffffffffff16141515156200026857600080fd5b620002838282620002ee640100000000026401000000009004565b1515156200029057600080fd5b60018260000160008373ffffffffffffffffffffffffffffffffffffffff1673ffffffffffffffffffffffffffffffffffffffff16815260200190815260200160002060006101000a81548160ff0219169083151502179055505050565b60008073ffffffffffffffffffffffffffffffffffffffff168273ffffffffffffffffffffffffffffffffffffffff16141515156200032c57600080fd5b8260000160008373ffffffffffffffffffffffffffffffffffffffff1673ffffffffffffffffffffffffffffffffffffffff16815260200190815260200160002060009054906101000a900460ff16905092915050565b6124dc80620003936000396000f300608060405260043610610128576000357c0100000000000000000000000000000000000000000000000000000000900463ffffffff168063031d973e1461012d5780632f9267321461015e57806330b5b61a1461019d578063314db06b1461020e57806350405fdf1461022557806358b37c491461027557806359269e67146102ba5780635e0d36c21461031f57806363221084146103835780636b453c1f146103e257806386d1823d14610425578063987d59e21461046a5780639b3a0f96146104db578063a0c6324614610532578063ab2a646414610563578063b229d8b4146105ba578063bac658c11461062d578063c275d56e1461067a578063dd4c5d50146106ab578063dd57366a1461071e578063e79a198f14610779578063feaaec7314610790575b600080fd5b34801561013957600080fd5b5061015c60048036038101908080356000191690602001909291905050506107e7565b005b34801561016a57600080fd5b5061019b600480360381019080803560001916906020019092919080356000191690602001909291905050506107ea565b005b3480156101a957600080fd5b506101cc60048036038101908080356000191690602001909291905050506109e1565b604051808273ffffffffffffffffffffffffffffffffffffffff1673ffffffffffffffffffffffffffffffffffffffff16815260200191505060405180910390f35b34801561021a57600080fd5b50610223610a29565b005b34801561023157600080fd5b50610273600480360381019080803573ffffffffffffffffffffffffffffffffffffffff169060200190929190803560ff169060200190929190505050610a34565b005b34801561028157600080fd5b506102a46004803603810190808035600019169060200190929190505050610aaf565b6040518082815260200191505060405180910390f35b3480156102c657600080fd5b506102fb600480360381019080803573ffffffffffffffffffffffffffffffffffffffff169060200190929190505050610ad7565b6040518082600581111561030b57fe5b60ff16815260200191505060405180910390f35b6103416004803603810190808035600019169060200190929190505050610b30565b604051808273ffffffffffffffffffffffffffffffffffffffff1673ffffffffffffffffffffffffffffffffffffffff16815260200191505060405180910390f35b34801561038f57600080fd5b506103c4600480360381019080803573ffffffffffffffffffffffffffffffffffffffff169060200190929190505050610c36565b60405180826000191660001916815260200191505060405180910390f35b3480156103ee57600080fd5b50610423600480360381019080803573ffffffffffffffffffffffffffffffffffffffff169060200190929190505050610c7f565b005b34801561043157600080fd5b506104546004803603810190808035600019169060200190929190505050610c9f565b6040518082815260200191505060405180910390f35b34801561047657600080fd5b506104996004803603810190808035600019169060200190929190505050610cc7565b604051808273ffffffffffffffffffffffffffffffffffffffff1673ffffffffffffffffffffffffffffffffffffffff16815260200191505060405180910390f35b3480156104e757600080fd5b506104f0610d0f565b604051808273ffffffffffffffffffffffffffffffffffffffff1673ffffffffffffffffffffffffffffffffffffffff16815260200191505060405180910390f35b34801561053e57600080fd5b506105616004803603810190808035600019169060200190929190505050610d35565b005b34801561056f57600080fd5b50610578610d38565b604051808273ffffffffffffffffffffffffffffffffffffffff1673ffffffffffffffffffffffffffffffffffffffff16815260200191505060405180910390f35b3480156105c657600080fd5b5061062b6004803603810190808035600019169060200190929190803573ffffffffffffffffffffffffffffffffffffffff16906020019092919080356000191690602001909291908035906020019092919080359060200190929190505050610d5e565b005b34801561063957600080fd5b5061065c600480360381019080803560001916906020019092919050505061116c565b60405180826000191660001916815260200191505060405180910390f35b6106a96004803603810190808035600019169060200190929190803560ff169060200190929190505050611194565b005b3480156106b757600080fd5b506106fa6004803603810190808035600019169060200190929190803573ffffffffffffffffffffffffffffffffffffffff169060200190929190505050611486565b6040518082600481111561070a57fe5b60ff16815260200191505060405180910390f35b34801561072a57600080fd5b5061075f600480360381019080803573ffffffffffffffffffffffffffffffffffffffff1690602001909291905050506114fc565b604051808215151515815260200191505060405180910390f35b34801561078557600080fd5b5061078e611519565b005b34801561079c57600080fd5b506107c9600480360381019080803560001916906020019092919080359060200190929190505050611651565b60405180826000191660001916815260200191505060405180910390f35b50565b6000600360003373ffffffffffffffffffffffffffffffffffffffff1673ffffffffffffffffffffffffffffffffffffffff16815260200190815260200160002060020160009054906101000a900460ff16600581111561084757fe5b1415156108bc576040517f08c379a00000000000000000000000000000000000000000000000000000000081526004018080602001828103825260158152602001807f4d454d4245525f414c52454144595f455849535453000000000000000000000081525060200191505060405180910390fd5b6060604051908101604052808360001916815260200182600019168152602001600160058111156108e957fe5b815250600360003373ffffffffffffffffffffffffffffffffffffffff1673ffffffffffffffffffffffffffffffffffffffff168152602001908152602001600020600082015181600001906000191690556020820151816001019060001916905560408201518160020160006101000a81548160ff0219169083600581111561096f57fe5b02179055509050507fa886ea8097f4718e871c736ccdf8f502a49148b39ea2afc4eece546ecb6d1ae38282600160405180846000191660001916815260200183600019166000191681526020018260058111156109c857fe5b60ff168152602001935050505060405180910390a15050565b600060046000836000191660001916815260200190815260200160002060000160049054906101000a900473ffffffffffffffffffffffffffffffffffffffff169050919050565b610a3233611659565b565b610a3d336114fc565b1515610a4857600080fd5b80600360008473ffffffffffffffffffffffffffffffffffffffff1673ffffffffffffffffffffffffffffffffffffffff16815260200190815260200160002060020160006101000a81548160ff02191690836005811115610aa657fe5b02179055505050565b6000600460008360001916600019168152602001908152602001600020600401549050919050565b6000600360008373ffffffffffffffffffffffffffffffffffffffff1673ffffffffffffffffffffffffffffffffffffffff16815260200190815260200160002060020160009054906101000a900460ff169050919050565b600080826000603c610b40611900565b8084600019166000191681526020018373ffffffffffffffffffffffffffffffffffffffff1673ffffffffffffffffffffffffffffffffffffffff1681526020018281526020019350505050604051809103906000f080158015610ba8573d6000803e3d6000fd5b5090506004600084600019166000191681526020019081526020016000206005018190806001815401808255809150509060018203906000526020600020016000909192909190916101000a81548173ffffffffffffffffffffffffffffffffffffffff021916908373ffffffffffffffffffffffffffffffffffffffff1602179055505080915050919050565b6000600560008373ffffffffffffffffffffffffffffffffffffffff1673ffffffffffffffffffffffffffffffffffffffff168152602001908152602001600020549050919050565b610c88336114fc565b1515610c9357600080fd5b610c9c816116b3565b50565b6000600460008360001916600019168152602001908152602001600020600301549050919050565b600060046000836000191660001916815260200190815260200160002060010160009054906101000a900473ffffffffffffffffffffffffffffffffffffffff169050919050565b600160049054906101000a900473ffffffffffffffffffffffffffffffffffffffff1681565b50565b600260009054906101000a900473ffffffffffffffffffffffffffffffffffffffff1681565b600073ffffffffffffffffffffffffffffffffffffffff1660046000876000191660001916815260200190815260200160002060000160049054906101000a900473ffffffffffffffffffffffffffffffffffffffff1673ffffffffffffffffffffffffffffffffffffffff16141515610e40576040517f08c379a00000000000000000000000000000000000000000000000000000000081526004018080602001828103825260158152602001807f4d41524b45545f414c52454144595f455849535453000000000000000000000081525060200191505060405180910390fd5b600060010260001916600560008673ffffffffffffffffffffffffffffffffffffffff1673ffffffffffffffffffffffffffffffffffffffff1681526020019081526020016000205460001916141515610f28576040517f08c379a00000000000000000000000000000000000000000000000000000000081526004018080602001828103825260268152602001807f4d414b45525f414c52454144595f574f524b494e475f464f525f4f544845525f81526020017f4d41524b4554000000000000000000000000000000000000000000000000000081525060400191505060405180910390fd5b60e060405190810160405280600160009054906101000a900463ffffffff1663ffffffff1681526020013373ffffffffffffffffffffffffffffffffffffffff1681526020018573ffffffffffffffffffffffffffffffffffffffff168152602001846000191681526020018381526020018281526020016000604051908082528060200260200182016040528015610fd05781602001602082028038833980820191505090505b5081525060046000876000191660001916815260200190815260200160002060008201518160000160006101000a81548163ffffffff021916908363ffffffff16021790555060208201518160000160046101000a81548173ffffffffffffffffffffffffffffffffffffffff021916908373ffffffffffffffffffffffffffffffffffffffff16021790555060408201518160010160006101000a81548173ffffffffffffffffffffffffffffffffffffffff021916908373ffffffffffffffffffffffffffffffffffffffff160217905550606082015181600201906000191690556080820151816003015560a0820151816004015560c08201518160050190805190602001906110e4929190611910565b5090505084600560008673ffffffffffffffffffffffffffffffffffffffff1673ffffffffffffffffffffffffffffffffffffffff168152602001908152602001600020816000191690555060018060009054906101000a900463ffffffff1601600160006101000a81548163ffffffff021916908363ffffffff1602179055505050505050565b6000600460008360001916600019168152602001908152602001600020600201549050919050565b600073ffffffffffffffffffffffffffffffffffffffff1660046000846000191660001916815260200190815260200160002060000160049054906101000a900473ffffffffffffffffffffffffffffffffffffffff1673ffffffffffffffffffffffffffffffffffffffff1614151515611277576040517f08c379a000000000000000000000000000000000000000000000000000000000815260040180806020018281038252600e8152602001807f4e4f5f535543485f4d41524b455400000000000000000000000000000000000081525060200191505060405180910390fd5b600060046000846000191660001916815260200190815260200160002060060160003373ffffffffffffffffffffffffffffffffffffffff1673ffffffffffffffffffffffffffffffffffffffff16815260200190815260200160002060000160009054906101000a900460ff1660048111156112f057fe5b60ff16141515611368576040517f08c379a00000000000000000000000000000000000000000000000000000000081526004018080602001828103825260148152602001807f4143544f525f414c52454144595f4a4f494e454400000000000000000000000081525060200191505060405180910390fd5b6002600481111561137557fe5b60ff1681600481111561138457fe5b60ff1614806113af57506003600481111561139b57fe5b60ff168160048111156113aa57fe5b60ff16145b806113d557506004808111156113c157fe5b60ff168160048111156113d057fe5b60ff16145b15156113e057600080fd5b6020604051908101604052808260048111156113f857fe5b81525060046000846000191660001916815260200190815260200160002060060160003373ffffffffffffffffffffffffffffffffffffffff1673ffffffffffffffffffffffffffffffffffffffff16815260200190815260200160002060008201518160000160006101000a81548160ff0219169083600481111561147a57fe5b02179055509050505050565b600060046000846000191660001916815260200190815260200160002060060160008373ffffffffffffffffffffffffffffffffffffffff1673ffffffffffffffffffffffffffffffffffffffff16815260200190815260200160002060000160009054906101000a900460ff16905092915050565b600061151282600061170d90919063ffffffff16565b9050919050565b6000600360003373ffffffffffffffffffffffffffffffffffffffff1673ffffffffffffffffffffffffffffffffffffffff16815260200190815260200160002060020160009054906101000a900460ff16600581111561157657fe5b141515156115ec576040517f08c379a000000000000000000000000000000000000000000000000000000000815260040180806020018281038252600e8152602001807f4e4f5f535543485f4d454d42455200000000000000000000000000000000000081525060200191505060405180910390fd5b60038060003373ffffffffffffffffffffffffffffffffffffffff1673ffffffffffffffffffffffffffffffffffffffff16815260200190815260200160002060020160006101000a81548160ff0219169083600581111561164a57fe5b0217905550565b600092915050565b61166d8160006117a190919063ffffffff16565b8073ffffffffffffffffffffffffffffffffffffffff167fa7b36d52bea726c3aa90d876d0e52a1089a347b3e3408a03f08eae32f96fdbb460405160405180910390a250565b6116c781600061185090919063ffffffff16565b8073ffffffffffffffffffffffffffffffffffffffff167f1390a149489c82e9e2e89927bdb17ad1ea3f0cc314fce06c96369721d3afb8f060405160405180910390a250565b60008073ffffffffffffffffffffffffffffffffffffffff168273ffffffffffffffffffffffffffffffffffffffff161415151561174a57600080fd5b8260000160008373ffffffffffffffffffffffffffffffffffffffff1673ffffffffffffffffffffffffffffffffffffffff16815260200190815260200160002060009054906101000a900460ff16905092915050565b600073ffffffffffffffffffffffffffffffffffffffff168173ffffffffffffffffffffffffffffffffffffffff16141515156117dd57600080fd5b6117e7828261170d565b15156117f257600080fd5b60008260000160008373ffffffffffffffffffffffffffffffffffffffff1673ffffffffffffffffffffffffffffffffffffffff16815260200190815260200160002060006101000a81548160ff0219169083151502179055505050565b600073ffffffffffffffffffffffffffffffffffffffff168173ffffffffffffffffffffffffffffffffffffffff161415151561188c57600080fd5b611896828261170d565b1515156118a257600080fd5b60018260000160008373ffffffffffffffffffffffffffffffffffffffff1673ffffffffffffffffffffffffffffffffffffffff16815260200190815260200160002060006101000a81548160ff0219169083151502179055505050565b604051610ad3806119de83390190565b828054828255906000526020600020908101928215611989579160200282015b828111156119885782518260006101000a81548173ffffffffffffffffffffffffffffffffffffffff021916908373ffffffffffffffffffffffffffffffffffffffff16021790555091602001919060010190611930565b5b509050611996919061199a565b5090565b6119da91905b808211156119d657600081816101000a81549073ffffffffffffffffffffffffffffffffffffffff0219169055506001016119a0565b5090565b9056006080604052604051606080610ad3833981018060405281019080805190602001909291908051906020019092919080519060200190929190505050826000816000191690555081600260006101000a81548173ffffffffffffffffffffffffffffffffffffffff021916908373ffffffffffffffffffffffffffffffffffffffff16021790555033600160006101000a81548173ffffffffffffffffffffffffffffffffffffffff021916908373ffffffffffffffffffffffffffffffffffffffff16021790555042600381905550806004819055505050506109ec806100e76000396000f30060806040526004361061008e576000357c0100000000000000000000000000000000000000000000000000000000900463ffffffff168063152551b91461009357806315e61750146100ea5780632422224e1461011d57806327d795d71461018e5780633686d5d6146101b9578063369dbbc9146101e457806370dea79a1461023b5780639657cf4214610252575b600080fd5b34801561009f57600080fd5b506100a86102b6565b604051808273ffffffffffffffffffffffffffffffffffffffff1673ffffffffffffffffffffffffffffffffffffffff16815260200191505060405180910390f35b3480156100f657600080fd5b506100ff6102dc565b60405180826000191660001916815260200191505060405180910390f35b34801561012957600080fd5b5061014c60048036038101908080356000191690602001909291905050506102e2565b604051808273ffffffffffffffffffffffffffffffffffffffff1673ffffffffffffffffffffffffffffffffffffffff16815260200191505060405180910390f35b34801561019a57600080fd5b506101a3610315565b6040518082815260200191505060405180910390f35b3480156101c557600080fd5b506101ce61031b565b6040518082815260200191505060405180910390f35b3480156101f057600080fd5b506101f9610321565b604051808273ffffffffffffffffffffffffffffffffffffffff1673ffffffffffffffffffffffffffffffffffffffff16815260200191505060405180910390f35b34801561024757600080fd5b50610250610347565b005b34801561025e57600080fd5b506102b46004803603810190808035600019169060200190929190803560ff16906020019092919080356000191690602001909291908035600019169060200190929190803590602001909291905050506103fe565b005b600260009054906101000a900473ffffffffffffffffffffffffffffffffffffffff1681565b60005481565b60056020528060005260406000206000915054906101000a900473ffffffffffffffffffffffffffffffffffffffff1681565b60035481565b60045481565b600160009054906101000a900473ffffffffffffffffffffffffffffffffffffffff1681565b426004546003540111156103c3576040517f08c379a000000000000000000000000000000000000000000000000000000000815260040180806020018281038252600f8152602001807f6368616e6e656c2074696d656f7574000000000000000000000000000000000081525060200191505060405180910390fd5b600160009054906101000a900473ffffffffffffffffffffffffffffffffffffffff1673ffffffffffffffffffffffffffffffffffffffff16ff5b600080600187878787604051600081526020016040526040518085600019166000191681526020018460ff1660ff1681526020018360001916600019168152602001826000191660001916815260200194505050505060206040516020810390808403906000865af1158015610478573d6000803e3d6000fd5b505050602060405103519150600160009054906101000a900473ffffffffffffffffffffffffffffffffffffffff1673ffffffffffffffffffffffffffffffffffffffff168273ffffffffffffffffffffffffffffffffffffffff16141580156105305750600260009054906101000a900473ffffffffffffffffffffffffffffffffffffffff1673ffffffffffffffffffffffffffffffffffffffff168273ffffffffffffffffffffffffffffffffffffffff1614155b156105a3576040517f08c379a00000000000000000000000000000000000000000000000000000000081526004018080602001828103825260118152602001807f696e76616c6964207369676e617475726500000000000000000000000000000081525060200191505060405180910390fd5b3083604051602001808373ffffffffffffffffffffffffffffffffffffffff1673ffffffffffffffffffffffffffffffffffffffff166c01000000000000000000000000028152601401828152602001925050506040516020818303038152906040526040518082805190602001908083835b60208310151561063b5780518252602082019150602081019050602083039250610616565b6001836020036101000a0380198251168184511680821785525050505050509050019150506040518091039020905086600019168160001916141515610735576040517f08c379a000000000000000000000000000000000000000000000000000000000815260040180806020018281038252604a8152602001807f696e76616c6964207369676e617475726520287369676e61747572652069732081526020017f76616c69642062757420646f65736e2774206d6174636820746865206461746181526020017f2070726f7669646564290000000000000000000000000000000000000000000081525060600191505060405180910390fd5b600060056000836000191660001916815260200190815260200160002060009054906101000a900473ffffffffffffffffffffffffffffffffffffffff1673ffffffffffffffffffffffffffffffffffffffff16141561081a578160056000836000191660001916815260200190815260200160002060006101000a81548173ffffffffffffffffffffffffffffffffffffffff021916908373ffffffffffffffffffffffffffffffffffffffff1602179055507fb59fde0b777d3fb91cd7c024f522fd92b9475693fff5b1f88bfb91fa821b5d4560405160405180910390a16109b7565b8173ffffffffffffffffffffffffffffffffffffffff1660056000836000191660001916815260200190815260200160002060009054906101000a900473ffffffffffffffffffffffffffffffffffffffff1673ffffffffffffffffffffffffffffffffffffffff161415156109b657600260009054906101000a900473ffffffffffffffffffffffffffffffffffffffff1673ffffffffffffffffffffffffffffffffffffffff166108fc849081150290604051600060405180830381858888f19350505050151561097b576040517f08c379a00000000000000000000000000000000000000000000000000000000081526004018080602001828103825260298152602001807f7472616e73616374696f6e206661696c6564206f6e207468652076657279206c81526020017f617374206d65746572000000000000000000000000000000000000000000000081525060400191505060405180910390fd5b600160009054906101000a900473ffffffffffffffffffffffffffffffffffffffff1673ffffffffffffffffffffffffffffffffffffffff16ff5b5b505050505050505600a165627a7a7230582076d07a36f651753305fb769f9f41222845b1f5859e68f022b285d6beec2c7ef60029a165627a7a72305820898553b51d9444e30300069fc6cfc85c67976b087c7ca0f8c61097ad8bdba8350029",
  "source": "///////////////////////////////////////////////////////////////////////////////\n//\n//  Copyright (C) 2018 Crossbar.io Technologies GmbH and contributors.\n//\n//  Licensed under the Apache License, Version 2.0 (the \"License\");\n//  you may not use this file except in compliance with the License.\n//  You may obtain a copy of the License at\n//\n//      http://www.apache.org/licenses/LICENSE-2.0\n//\n//  Unless required by applicable law or agreed to in writing, software\n//  distributed under the License is distributed on an \"AS IS\" BASIS,\n//  WITHOUT WARRANTIES OR CONDITIONS OF ANY KIND, either express or implied.\n//  See the License for the specific language governing permissions and\n//  limitations under the License.\n//\n///////////////////////////////////////////////////////////////////////////////\n\npragma solidity ^0.4.24;\n//pragma experimental ABIEncoderV2;\n\nimport \"./XBRMaintained.sol\";\nimport \"./XBRPaymentChannel.sol\";\n\n\n/**\n * @title XBR Network root SC\n * @author The XBR Project\n */\ncontract XBRNetwork is XBRMaintained {\n\n    /// XBR Network membership levels\n    enum MemberLevel { NULL, ACTIVE, VERIFIED, RETIRED, PENALTY, BLOCKED }\n\n    /// Value type for holding XBR Network membership information.\n    struct Member {\n        bytes32 eula;\n        bytes32 profile;\n        MemberLevel level;\n    }\n\n    event MemberCreated (bytes32 eula, bytes32 profile, MemberLevel level);\n\n    /// XBR Market Actor types\n    enum ActorType { NULL, NETWORK, MAKER, PROVIDER, CONSUMER }\n\n    struct Actor {\n        ActorType actorType;\n    }\n\n    event ActorJoined ();\n\n    /// Value type for holding XBR Market information.\n    struct Market {\n        uint32 sequence;\n        address owner;\n        address maker;\n        bytes32 terms;\n        uint providerSecurity;\n        uint consumerSecurity;\n        address[] channels;\n        mapping(address => Actor) actors;\n    }\n\n    uint32 private marketSeq = 1;\n\n    /// Address of the XBR Network ERC20 token (XBR for the CrossbarFX technology stack)\n    address public network_token;\n\n    /// Address of the `XBR Network Organization <https://xbr.network/>`_\n    address public network_organization;\n\n    /// Current XBR Network members.\n    mapping(address => Member) private members;\n\n    /// Current XBR Markets (\"market repository\")\n    mapping(bytes32 => Market) private markets;\n\n    /// Index: maker address => market ID\n    mapping(address => bytes32) private marketByMaker;\n\n    /**\n     * Create a new network.\n     *\n     * @param _network_token The token to run this network on.\n     * @param _network_organization The network technology provider and ecoystem sponsor.\n     */\n    constructor (address _network_token, address _network_organization) public {\n        network_token = _network_token;\n        network_organization = _network_organization;\n\n        members[msg.sender] = Member(\"\", \"\", MemberLevel.VERIFIED);\n    }\n\n    /**\n     * Join the XBR Network. All XBR stakeholders, namely XBR Data Providers,\n     * XBR Data Consumers, XBR Data Markets and XBR Data Clouds, must register\n     * with the XBR Network on the global blockchain by calling this function.\n     *\n     * @param eula The file hash (SHA2-256) of the XBR Network EULA documents\n     *             being agreed to and stored as one ZIP file archive on IPFS.\n     * @param profile Optional public member profile: the file hash (SHA2-256)\n     *                of the member profile file stored on a well-known location\n     *                (suchas as IPFS).\n     */\n    function register (bytes32 eula, bytes32 profile) public {\n        require(uint(members[msg.sender].level) == 0, \"MEMBER_ALREADY_EXISTS\");\n\n        members[msg.sender] = Member(eula, profile, MemberLevel.ACTIVE);\n\n        emit MemberCreated(eula, profile, MemberLevel.ACTIVE);\n    }\n\n    /**\n     * Leave the XBR Network.\n     */\n    function unregister () public {\n        require(uint(members[msg.sender].level) != 0, \"NO_SUCH_MEMBER\");\n\n        members[msg.sender].level = MemberLevel.RETIRED;\n    }\n\n    function getMemberLevel (address member) public view returns (MemberLevel) {\n        return members[member].level;\n    }\n\n    /**\n     * Manually override the member level of a XBR Network member. Being able to do so\n     * currently serves two purposes:\n     *\n     * - having a last resort to handle situation where members violated the EULA\n     * - being able to manually patch things in error/bug cases\n     */\n    function setMemberLevel (address member, MemberLevel level) public onlyMaintainer {\n        // only network admins are allowed to override member level\n        //require(network_admins.has(msg.sender), \"DOES_NOT_HAVE_NETWORK_ADMIN_ROLE\");\n\n        members[member].level = level;\n    }\n\n    /**\n     * Register a new XBR market. The sender of the transaction must be XBR network member\n     * and automatically becomes owner of the new market.\n     *\n     * @param maker The address of the XBR market maker that will run this market.\n     * @param terms The XBR market terms set by the market owner.\n     * @param providerSecurity The amount of XBR tokens a XBR provider joining the market must deposit.\n     * @param consumerSecurity The amount of XBR tokens a XBR consumer joining the market must deposit.\n     */\n    function openMarket (bytes32 marketId, address maker, bytes32 terms, uint providerSecurity,\n        uint consumerSecurity) public {\n\n        // generate new market_id\n        // bytes32 marketId = keccak256(abi.encodePacked(marketSeq, msg.sender, blockhash(block.number)));\n        require(markets[marketId].owner == address(0), \"MARKET_ALREADY_EXISTS\");\n        require(marketByMaker[maker] == bytes32(0), \"MAKER_ALREADY_WORKING_FOR_OTHER_MARKET\");\n\n        markets[marketId] = Market(marketSeq, msg.sender, maker, terms, providerSecurity,\n            consumerSecurity, new address[](0));\n\n        marketByMaker[maker] = marketId;\n\n        marketSeq = marketSeq + 1;\n    }\n\n    function getMarketByMaker (address maker) public view returns (bytes32) {\n        return marketByMaker[maker];\n    }\n\n    function getMarketOwner (bytes32 marketId) public view returns (address) {\n        return markets[marketId].owner;\n    }\n\n    function getMarketMaker (bytes32 marketId) public view returns (address) {\n        return markets[marketId].maker;\n    }\n\n    function getMarketTerms (bytes32 marketId) public view returns (bytes32) {\n        return markets[marketId].terms;\n    }\n\n    function getMarketProviderSecurity (bytes32 marketId) public view returns (uint) {\n        return markets[marketId].providerSecurity;\n    }\n\n    function getMarketConsumerSecurity (bytes32 marketId) public view returns (uint) {\n        return markets[marketId].consumerSecurity;\n    }\n\n    /**\n     * Join the given XBR market as the specified type of actor, which must be PROVIDER or CONSUMER.\n     *\n     * @param marketId The ID of the XBR data market to join.\n     * @param actorType The type of actor under which to join: PROVIDER or CONSUMER.\n     */\n    function joinMarket (bytes32 marketId, ActorType actorType) public payable {\n        require(markets[marketId].owner != address(0), \"NO_SUCH_MARKET\");\n        require(uint8(markets[marketId].actors[msg.sender].actorType) == 0, \"ACTOR_ALREADY_JOINED\");\n        require(uint8(actorType) == uint8(ActorType.MAKER) ||\n            uint8(actorType) == uint8(ActorType.PROVIDER) || uint8(actorType) == uint8(ActorType.CONSUMER));\n\n        markets[marketId].actors[msg.sender] = Actor(actorType);\n    }\n\n    function getMarketActorType (bytes32 marketId, address actor) public view returns (ActorType) {\n        return markets[marketId].actors[actor].actorType;\n    }\n\n    /**\n     * Open a new payment channel and deposit an amount of XBR token into a market.\n     * The procedure returns\n     */\n    function openPaymentChannel (bytes32 marketId) public payable returns (address paymentChannel) {\n        XBRPaymentChannel channel = new XBRPaymentChannel(marketId, address(0), 60);\n        markets[marketId].channels.push(channel);\n        return channel;\n    }\n\n    /**\n     * As a data provider, request a new payment channel to get paid by the market maker. Given sufficient\n     * security amount (deposited by the data provider when joining the marker) to cover the request amount,\n     * the market maker will open a payment (state) channel to allow the market maker buying data keys in\n     * microtransactions, and offchain. The creation of the payment channel is asynchronously: the market maker\n     * is watching the global blockchain filtering for events relevant to the market managed by the maker.\n     * When a request to open a payment channel is recognized by the market maker, it will check the provider\n     * for sufficient security despoit covering the requested amount, and if all is fine, create a new payment\n     * channel and store the contract address for the channel request ID, so the data provider can retrieve it.\n     */\n    function requestPayingChannel (bytes32 marketId, uint256 amount) public returns (bytes32 channelRequestId) {\n    }\n\n    /**\n     * As a market actor (participant) currently member of a market, leave that market.\n     * A market can only be left when all payment channels of the sender are closed (or expired).\n     *\n     * @param marketId The ID of the market to leave.\n     */\n    function leaveMarket (bytes32 marketId) public {\n    }\n\n    /**\n     * Close a market. A closed market will not accept new memberships.\n     *\n     * @param marketId The ID of the market to close.\n     */\n    function closeMarket (bytes32 marketId) public {\n    }\n}\n",
  "sourcePath": "/home/oberstet/scm/xbr/xbr-protocol/contracts/XBRNetwork.sol",
  "compiler": {
    "name": "solc",
    "version": "0.4.24+commit.e67f0147.Emscripten.clang"
  },
  "schemaVersion": "2.0.1",
  "updatedAt": "2018-11-13T07:26:45.438Z"
}