{
  "contractName": "XBRNetworkProxy",
  "abi": [
    {
      "constant": false,
      "inputs": [],
      "name": "renounceMaintainer",
      "outputs": [],
      "payable": false,
      "stateMutability": "nonpayable",
      "type": "function"
    },
    {
      "constant": false,
      "inputs": [
        {
          "name": "account",
          "type": "address"
        }
      ],
      "name": "addMaintainer",
      "outputs": [],
      "payable": false,
      "stateMutability": "nonpayable",
      "type": "function"
    },
    {
      "constant": true,
      "inputs": [
        {
          "name": "account",
          "type": "address"
        }
      ],
      "name": "isMaintainer",
      "outputs": [
        {
          "name": "",
          "type": "bool"
        }
      ],
      "payable": false,
      "stateMutability": "view",
      "type": "function"
    },
    {
      "anonymous": false,
      "inputs": [
        {
          "indexed": true,
          "name": "account",
          "type": "address"
        }
      ],
      "name": "MaintainerAdded",
      "type": "event"
    },
    {
      "anonymous": false,
      "inputs": [
        {
          "indexed": true,
          "name": "account",
          "type": "address"
        }
      ],
      "name": "MaintainerRemoved",
      "type": "event"
    },
    {
      "constant": false,
      "inputs": [
        {
          "name": "networkContract",
          "type": "address"
        }
      ],
      "name": "setNetworkContract",
      "outputs": [],
      "payable": false,
      "stateMutability": "nonpayable",
      "type": "function"
    }
  ],
  "bytecode": "0x608060405261001c33610021640100000000026401000000009004565b6101db565b610042816000610088640100000000026103f6179091906401000000009004565b8073ffffffffffffffffffffffffffffffffffffffff167f1390a149489c82e9e2e89927bdb17ad1ea3f0cc314fce06c96369721d3afb8f060405160405180910390a250565b600073ffffffffffffffffffffffffffffffffffffffff168173ffffffffffffffffffffffffffffffffffffffff16141515156100c457600080fd5b6100dd8282610147640100000000026401000000009004565b1515156100e957600080fd5b60018260000160008373ffffffffffffffffffffffffffffffffffffffff1673ffffffffffffffffffffffffffffffffffffffff16815260200190815260200160002060006101000a81548160ff0219169083151502179055505050565b60008073ffffffffffffffffffffffffffffffffffffffff168273ffffffffffffffffffffffffffffffffffffffff161415151561018457600080fd5b8260000160008373ffffffffffffffffffffffffffffffffffffffff1673ffffffffffffffffffffffffffffffffffffffff16815260200190815260200160002060009054906101000a900460ff16905092915050565b6104d2806101ea6000396000f300608060405260043610610062576000357c0100000000000000000000000000000000000000000000000000000000900463ffffffff168063314db06b14610067578063599b93481461007e5780636b453c1f146100c1578063dd57366a14610104575b600080fd5b34801561007357600080fd5b5061007c61015f565b005b34801561008a57600080fd5b506100bf600480360381019080803573ffffffffffffffffffffffffffffffffffffffff16906020019092919050505061016a565b005b3480156100cd57600080fd5b50610102600480360381019080803573ffffffffffffffffffffffffffffffffffffffff1690602001909291905050506101c2565b005b34801561011057600080fd5b50610145600480360381019080803573ffffffffffffffffffffffffffffffffffffffff1690602001909291905050506101e2565b604051808215151515815260200191505060405180910390f35b610168336101ff565b565b610173336101e2565b151561017e57600080fd5b80600160006101000a81548173ffffffffffffffffffffffffffffffffffffffff021916908373ffffffffffffffffffffffffffffffffffffffff16021790555050565b6101cb336101e2565b15156101d657600080fd5b6101df81610259565b50565b60006101f88260006102b390919063ffffffff16565b9050919050565b61021381600061034790919063ffffffff16565b8073ffffffffffffffffffffffffffffffffffffffff167fa7b36d52bea726c3aa90d876d0e52a1089a347b3e3408a03f08eae32f96fdbb460405160405180910390a250565b61026d8160006103f690919063ffffffff16565b8073ffffffffffffffffffffffffffffffffffffffff167f1390a149489c82e9e2e89927bdb17ad1ea3f0cc314fce06c96369721d3afb8f060405160405180910390a250565b60008073ffffffffffffffffffffffffffffffffffffffff168273ffffffffffffffffffffffffffffffffffffffff16141515156102f057600080fd5b8260000160008373ffffffffffffffffffffffffffffffffffffffff1673ffffffffffffffffffffffffffffffffffffffff16815260200190815260200160002060009054906101000a900460ff16905092915050565b600073ffffffffffffffffffffffffffffffffffffffff168173ffffffffffffffffffffffffffffffffffffffff161415151561038357600080fd5b61038d82826102b3565b151561039857600080fd5b60008260000160008373ffffffffffffffffffffffffffffffffffffffff1673ffffffffffffffffffffffffffffffffffffffff16815260200190815260200160002060006101000a81548160ff0219169083151502179055505050565b600073ffffffffffffffffffffffffffffffffffffffff168173ffffffffffffffffffffffffffffffffffffffff161415151561043257600080fd5b61043c82826102b3565b15151561044857600080fd5b60018260000160008373ffffffffffffffffffffffffffffffffffffffff1673ffffffffffffffffffffffffffffffffffffffff16815260200190815260200160002060006101000a81548160ff02191690831515021790555050505600a165627a7a7230582008c92c68f1c0f6277d44deb1c807e79c58b9ca180ed2e5e1260f69e326e1a6000029",
  "source": "///////////////////////////////////////////////////////////////////////////////\n//\n//  Copyright (C) 2018 Crossbar.io Technologies GmbH and contributors.\n//\n//  Licensed under the Apache License, Version 2.0 (the \"License\");\n//  you may not use this file except in compliance with the License.\n//  You may obtain a copy of the License at\n//\n//      http://www.apache.org/licenses/LICENSE-2.0\n//\n//  Unless required by applicable law or agreed to in writing, software\n//  distributed under the License is distributed on an \"AS IS\" BASIS,\n//  WITHOUT WARRANTIES OR CONDITIONS OF ANY KIND, either express or implied.\n//  See the License for the specific language governing permissions and\n//  limitations under the License.\n//\n///////////////////////////////////////////////////////////////////////////////\n\npragma solidity ^0.4.24;\n\nimport \"./XBRMaintained.sol\";\n\n\n/**\n * @title XBR Network root SC\n * @author The XBR Project\n */\ncontract XBRNetworkProxy is XBRMaintained {\n\n    address internal _networkContract;\n\n    function setNetworkContract (address networkContract) public onlyMaintainer {\n        _networkContract = networkContract;\n    }\n}\n",
  "sourcePath": "/home/oberstet/scm/xbr/xbr-protocol/contracts/XBRNetworkProxy.sol",
  "compiler": {
    "name": "solc",
    "version": "0.4.24+commit.e67f0147.Emscripten.clang"
  },
  "schemaVersion": "2.0.1",
  "updatedAt": "2018-11-13T07:26:41.601Z"
}