{
  "contractName": "XBRNetwork",
  "abi": [
    {
      "constant": true,
      "inputs": [
        {
          "name": "",
          "type": "address"
        }
      ],
      "name": "members",
      "outputs": [
        {
          "name": "eula",
          "type": "bytes32"
        },
        {
          "name": "profile",
          "type": "bytes32"
        },
        {
          "name": "level",
          "type": "uint8"
        }
      ],
      "payable": false,
      "stateMutability": "view",
      "type": "function"
    },
    {
      "constant": false,
      "inputs": [],
      "name": "renounceMaintainer",
      "outputs": [],
      "payable": false,
      "stateMutability": "nonpayable",
      "type": "function"
    },
    {
      "constant": false,
      "inputs": [
        {
          "name": "account",
          "type": "address"
        }
      ],
      "name": "addMaintainer",
      "outputs": [],
      "payable": false,
      "stateMutability": "nonpayable",
      "type": "function"
    },
    {
      "constant": true,
      "inputs": [
        {
          "name": "",
          "type": "bytes32"
        }
      ],
      "name": "markets",
      "outputs": [
        {
          "name": "owner",
          "type": "address"
        },
        {
          "name": "maker",
          "type": "address"
        },
        {
          "name": "terms",
          "type": "bytes32"
        }
      ],
      "payable": false,
      "stateMutability": "view",
      "type": "function"
    },
    {
      "constant": true,
      "inputs": [],
      "name": "network_token",
      "outputs": [
        {
          "name": "",
          "type": "address"
        }
      ],
      "payable": false,
      "stateMutability": "view",
      "type": "function"
    },
    {
      "constant": true,
      "inputs": [],
      "name": "network_organization",
      "outputs": [
        {
          "name": "",
          "type": "address"
        }
      ],
      "payable": false,
      "stateMutability": "view",
      "type": "function"
    },
    {
      "constant": true,
      "inputs": [
        {
          "name": "account",
          "type": "address"
        }
      ],
      "name": "isMaintainer",
      "outputs": [
        {
          "name": "",
          "type": "bool"
        }
      ],
      "payable": false,
      "stateMutability": "view",
      "type": "function"
    },
    {
      "inputs": [
        {
          "name": "_network_token",
          "type": "address"
        },
        {
          "name": "_network_organization",
          "type": "address"
        }
      ],
      "payable": false,
      "stateMutability": "nonpayable",
      "type": "constructor"
    },
    {
      "anonymous": false,
      "inputs": [
        {
          "indexed": true,
          "name": "account",
          "type": "address"
        }
      ],
      "name": "MaintainerAdded",
      "type": "event"
    },
    {
      "anonymous": false,
      "inputs": [
        {
          "indexed": true,
          "name": "account",
          "type": "address"
        }
      ],
      "name": "MaintainerRemoved",
      "type": "event"
    },
    {
      "constant": false,
      "inputs": [
        {
          "name": "eula",
          "type": "bytes32"
        },
        {
          "name": "profile",
          "type": "bytes32"
        }
      ],
      "name": "register",
      "outputs": [],
      "payable": false,
      "stateMutability": "nonpayable",
      "type": "function"
    },
    {
      "constant": false,
      "inputs": [],
      "name": "unregister",
      "outputs": [],
      "payable": false,
      "stateMutability": "nonpayable",
      "type": "function"
    },
    {
      "constant": false,
      "inputs": [
        {
          "name": "member",
          "type": "address"
        },
        {
          "name": "level",
          "type": "uint8"
        }
      ],
      "name": "set_member_level",
      "outputs": [],
      "payable": false,
      "stateMutability": "nonpayable",
      "type": "function"
    },
    {
      "constant": false,
      "inputs": [
        {
          "name": "maker",
          "type": "address"
        },
        {
          "name": "terms",
          "type": "bytes32"
        },
        {
          "name": "provider_security",
          "type": "uint64"
        },
        {
          "name": "consumer_security",
          "type": "uint64"
        }
      ],
      "name": "open_market",
      "outputs": [],
      "payable": false,
      "stateMutability": "nonpayable",
      "type": "function"
    },
    {
      "constant": false,
      "inputs": [
        {
          "name": "market_id",
          "type": "bytes32"
        },
        {
          "name": "actor_type",
          "type": "uint8"
        }
      ],
      "name": "join_market",
      "outputs": [],
      "payable": true,
      "stateMutability": "payable",
      "type": "function"
    },
    {
      "constant": false,
      "inputs": [
        {
          "name": "market_id",
          "type": "bytes32"
        }
      ],
      "name": "open_payment_channel",
      "outputs": [
        {
          "name": "payment_channel",
          "type": "address"
        }
      ],
      "payable": true,
      "stateMutability": "payable",
      "type": "function"
    },
    {
      "constant": false,
      "inputs": [
        {
          "name": "market_id",
          "type": "bytes32"
        },
        {
          "name": "amount",
          "type": "uint256"
        }
      ],
      "name": "request_paying_channel",
      "outputs": [
        {
          "name": "channel_request_id",
          "type": "bytes32"
        }
      ],
      "payable": false,
      "stateMutability": "nonpayable",
      "type": "function"
    },
    {
      "constant": false,
      "inputs": [
        {
          "name": "market_id",
          "type": "bytes32"
        }
      ],
      "name": "leave_market",
      "outputs": [],
      "payable": false,
      "stateMutability": "nonpayable",
      "type": "function"
    },
    {
      "constant": false,
      "inputs": [
        {
          "name": "market_id",
          "type": "bytes32"
        }
      ],
      "name": "close_market",
      "outputs": [],
      "payable": false,
      "stateMutability": "nonpayable",
      "type": "function"
    }
  ],
  "bytecode": "0x608060405234801561001057600080fd5b5060405160408062001fc88339810180604052810190808051906020019092919080519060200190929190505050610056336100df640100000000026401000000009004565b81600160006101000a81548173ffffffffffffffffffffffffffffffffffffffff021916908373ffffffffffffffffffffffffffffffffffffffff16021790555080600260006101000a81548173ffffffffffffffffffffffffffffffffffffffff021916908373ffffffffffffffffffffffffffffffffffffffff1602179055505050610299565b61010081600061014664010000000002611093179091906401000000009004565b8073ffffffffffffffffffffffffffffffffffffffff167f1390a149489c82e9e2e89927bdb17ad1ea3f0cc314fce06c96369721d3afb8f060405160405180910390a250565b600073ffffffffffffffffffffffffffffffffffffffff168173ffffffffffffffffffffffffffffffffffffffff161415151561018257600080fd5b61019b8282610205640100000000026401000000009004565b1515156101a757600080fd5b60018260000160008373ffffffffffffffffffffffffffffffffffffffff1673ffffffffffffffffffffffffffffffffffffffff16815260200190815260200160002060006101000a81548160ff0219169083151502179055505050565b60008073ffffffffffffffffffffffffffffffffffffffff168273ffffffffffffffffffffffffffffffffffffffff161415151561024257600080fd5b8260000160008373ffffffffffffffffffffffffffffffffffffffff1673ffffffffffffffffffffffffffffffffffffffff16815260200190815260200160002060009054906101000a900460ff16905092915050565b611d1f80620002a96000396000f3006080604052600436106100e6576000357c0100000000000000000000000000000000000000000000000000000000900463ffffffff16806308ae4b0c146100eb57806314f73ce51461016e5780632f926732146101be578063314db06b146101fd578063324b781d146102145780634f8dcf8e146102455780636b453c1f146102765780637564912b146102b95780637ea138781461036c5780639b3a0f961461039d5780639b63fe7a146103f4578063ab2a64641461046d578063b5d6a9c3146104c4578063d8b678421461051b578063dd57366a1461057f578063e79a198f146105da575b600080fd5b3480156100f757600080fd5b5061012c600480360381019080803573ffffffffffffffffffffffffffffffffffffffff1690602001909291905050506105f1565b604051808460001916600019168152602001836000191660001916815260200182600581111561015857fe5b60ff168152602001935050505060405180910390f35b34801561017a57600080fd5b506101bc600480360381019080803573ffffffffffffffffffffffffffffffffffffffff169060200190929190803560ff169060200190929190505050610628565b005b3480156101ca57600080fd5b506101fb600480360381019080803560001916906020019092919080356000191690602001909291905050506106a3565b005b34801561020957600080fd5b50610212610834565b005b34801561022057600080fd5b50610243600480360381019080803560001916906020019092919050505061083f565b005b6102746004803603810190808035600019169060200190929190803560ff169060200190929190505050610842565b005b34801561028257600080fd5b506102b7600480360381019080803573ffffffffffffffffffffffffffffffffffffffff169060200190929190505050610846565b005b3480156102c557600080fd5b506102e86004803603810190808035600019169060200190929190505050610866565b604051808473ffffffffffffffffffffffffffffffffffffffff1673ffffffffffffffffffffffffffffffffffffffff1681526020018373ffffffffffffffffffffffffffffffffffffffff1673ffffffffffffffffffffffffffffffffffffffff1681526020018260001916600019168152602001935050505060405180910390f35b34801561037857600080fd5b5061039b60048036038101908080356000191690602001909291905050506108d0565b005b3480156103a957600080fd5b506103b26108d3565b604051808273ffffffffffffffffffffffffffffffffffffffff1673ffffffffffffffffffffffffffffffffffffffff16815260200191505060405180910390f35b34801561040057600080fd5b5061046b600480360381019080803573ffffffffffffffffffffffffffffffffffffffff1690602001909291908035600019169060200190929190803567ffffffffffffffff169060200190929190803567ffffffffffffffff1690602001909291905050506108f9565b005b34801561047957600080fd5b50610482610c13565b604051808273ffffffffffffffffffffffffffffffffffffffff1673ffffffffffffffffffffffffffffffffffffffff16815260200191505060405180910390f35b3480156104d057600080fd5b506104fd600480360381019080803560001916906020019092919080359060200190929190505050610c39565b60405180826000191660001916815260200191505060405180910390f35b61053d6004803603810190808035600019169060200190929190505050610c41565b604051808273ffffffffffffffffffffffffffffffffffffffff1673ffffffffffffffffffffffffffffffffffffffff16815260200191505060405180910390f35b34801561058b57600080fd5b506105c0600480360381019080803573ffffffffffffffffffffffffffffffffffffffff169060200190929190505050610d47565b604051808215151515815260200191505060405180910390f35b3480156105e657600080fd5b506105ef610d64565b005b60036020528060005260406000206000915090508060000154908060010154908060020160009054906101000a900460ff16905083565b61063133610d47565b151561063c57600080fd5b80600360008473ffffffffffffffffffffffffffffffffffffffff1673ffffffffffffffffffffffffffffffffffffffff16815260200190815260200160002060020160006101000a81548160ff0219169083600581111561069a57fe5b02179055505050565b6000600360003373ffffffffffffffffffffffffffffffffffffffff1673ffffffffffffffffffffffffffffffffffffffff16815260200190815260200160002060020160009054906101000a900460ff16600581111561070057fe5b141515610775576040517f08c379a00000000000000000000000000000000000000000000000000000000081526004018080602001828103825260158152602001807f4d454d4245525f414c52454144595f455849535453000000000000000000000081525060200191505060405180910390fd5b6060604051908101604052808360001916815260200182600019168152602001600160058111156107a257fe5b815250600360003373ffffffffffffffffffffffffffffffffffffffff1673ffffffffffffffffffffffffffffffffffffffff168152602001908152602001600020600082015181600001906000191690556020820151816001019060001916905560408201518160020160006101000a81548160ff0219169083600581111561082857fe5b02179055509050505050565b61083d33610e9c565b565b50565b5050565b61084f33610d47565b151561085a57600080fd5b61086381610ef6565b50565b60046020528060005260406000206000915090508060000160009054906101000a900473ffffffffffffffffffffffffffffffffffffffff16908060010160009054906101000a900473ffffffffffffffffffffffffffffffffffffffff16908060020154905083565b50565b600160009054906101000a900473ffffffffffffffffffffffffffffffffffffffff1681565b6000336001430340604051602001808373ffffffffffffffffffffffffffffffffffffffff1673ffffffffffffffffffffffffffffffffffffffff166c010000000000000000000000000281526014018260001916600019168152602001925050506040516020818303038152906040526040518082805190602001908083835b60208310151561099f578051825260208201915060208101905060208303925061097a565b6001836020036101000a03801982511681845116808217855250505050505090500191505060405180910390209050600073ffffffffffffffffffffffffffffffffffffffff1660046000836000191660001916815260200190815260200160002060000160009054906101000a900473ffffffffffffffffffffffffffffffffffffffff1673ffffffffffffffffffffffffffffffffffffffff1614151515610ab1576040517f08c379a00000000000000000000000000000000000000000000000000000000081526004018080602001828103825260158152602001807f4d41524b45545f414c52454144595f455849535453000000000000000000000081525060200191505060405180910390fd5b6080604051908101604052803373ffffffffffffffffffffffffffffffffffffffff1681526020018673ffffffffffffffffffffffffffffffffffffffff168152602001856000191681526020016001604051908082528060200260200182016040528015610b2f5781602001602082028038833980820191505090505b5081525060046000836000191660001916815260200190815260200160002060008201518160000160006101000a81548173ffffffffffffffffffffffffffffffffffffffff021916908373ffffffffffffffffffffffffffffffffffffffff16021790555060208201518160010160006101000a81548173ffffffffffffffffffffffffffffffffffffffff021916908373ffffffffffffffffffffffffffffffffffffffff160217905550604082015181600201906000191690556060820151816003019080519060200190610c08929190611143565b509050505050505050565b600260009054906101000a900473ffffffffffffffffffffffffffffffffffffffff1681565b600092915050565b600080826000603c610c516111cd565b8084600019166000191681526020018373ffffffffffffffffffffffffffffffffffffffff1673ffffffffffffffffffffffffffffffffffffffff1681526020018281526020019350505050604051809103906000f080158015610cb9573d6000803e3d6000fd5b5090506004600084600019166000191681526020019081526020016000206003018190806001815401808255809150509060018203906000526020600020016000909192909190916101000a81548173ffffffffffffffffffffffffffffffffffffffff021916908373ffffffffffffffffffffffffffffffffffffffff1602179055505080915050919050565b6000610d5d826000610f5090919063ffffffff16565b9050919050565b6000600360003373ffffffffffffffffffffffffffffffffffffffff1673ffffffffffffffffffffffffffffffffffffffff16815260200190815260200160002060020160009054906101000a900460ff166005811115610dc157fe5b14151515610e37576040517f08c379a000000000000000000000000000000000000000000000000000000000815260040180806020018281038252600e8152602001807f4e4f5f535543485f4d454d42455200000000000000000000000000000000000081525060200191505060405180910390fd5b60038060003373ffffffffffffffffffffffffffffffffffffffff1673ffffffffffffffffffffffffffffffffffffffff16815260200190815260200160002060020160006101000a81548160ff02191690836005811115610e9557fe5b0217905550565b610eb0816000610fe490919063ffffffff16565b8073ffffffffffffffffffffffffffffffffffffffff167fa7b36d52bea726c3aa90d876d0e52a1089a347b3e3408a03f08eae32f96fdbb460405160405180910390a250565b610f0a81600061109390919063ffffffff16565b8073ffffffffffffffffffffffffffffffffffffffff167f1390a149489c82e9e2e89927bdb17ad1ea3f0cc314fce06c96369721d3afb8f060405160405180910390a250565b60008073ffffffffffffffffffffffffffffffffffffffff168273ffffffffffffffffffffffffffffffffffffffff1614151515610f8d57600080fd5b8260000160008373ffffffffffffffffffffffffffffffffffffffff1673ffffffffffffffffffffffffffffffffffffffff16815260200190815260200160002060009054906101000a900460ff16905092915050565b600073ffffffffffffffffffffffffffffffffffffffff168173ffffffffffffffffffffffffffffffffffffffff161415151561102057600080fd5b61102a8282610f50565b151561103557600080fd5b60008260000160008373ffffffffffffffffffffffffffffffffffffffff1673ffffffffffffffffffffffffffffffffffffffff16815260200190815260200160002060006101000a81548160ff0219169083151502179055505050565b600073ffffffffffffffffffffffffffffffffffffffff168173ffffffffffffffffffffffffffffffffffffffff16141515156110cf57600080fd5b6110d98282610f50565b1515156110e557600080fd5b60018260000160008373ffffffffffffffffffffffffffffffffffffffff1673ffffffffffffffffffffffffffffffffffffffff16815260200190815260200160002060006101000a81548160ff0219169083151502179055505050565b8280548282559060005260206000209081019282156111bc579160200282015b828111156111bb5782518260006101000a81548173ffffffffffffffffffffffffffffffffffffffff021916908373ffffffffffffffffffffffffffffffffffffffff16021790555091602001919060010190611163565b5b5090506111c991906111dd565b5090565b604051610ad38061122183390190565b61121d91905b8082111561121957600081816101000a81549073ffffffffffffffffffffffffffffffffffffffff0219169055506001016111e3565b5090565b9056006080604052604051606080610ad3833981018060405281019080805190602001909291908051906020019092919080519060200190929190505050826000816000191690555081600260006101000a81548173ffffffffffffffffffffffffffffffffffffffff021916908373ffffffffffffffffffffffffffffffffffffffff16021790555033600160006101000a81548173ffffffffffffffffffffffffffffffffffffffff021916908373ffffffffffffffffffffffffffffffffffffffff16021790555042600381905550806004819055505050506109ec806100e76000396000f30060806040526004361061008e576000357c0100000000000000000000000000000000000000000000000000000000900463ffffffff168063152551b91461009357806315e61750146100ea5780632422224e1461011d57806327d795d71461018e5780633686d5d6146101b9578063369dbbc9146101e457806370dea79a1461023b5780639657cf4214610252575b600080fd5b34801561009f57600080fd5b506100a86102b6565b604051808273ffffffffffffffffffffffffffffffffffffffff1673ffffffffffffffffffffffffffffffffffffffff16815260200191505060405180910390f35b3480156100f657600080fd5b506100ff6102dc565b60405180826000191660001916815260200191505060405180910390f35b34801561012957600080fd5b5061014c60048036038101908080356000191690602001909291905050506102e2565b604051808273ffffffffffffffffffffffffffffffffffffffff1673ffffffffffffffffffffffffffffffffffffffff16815260200191505060405180910390f35b34801561019a57600080fd5b506101a3610315565b6040518082815260200191505060405180910390f35b3480156101c557600080fd5b506101ce61031b565b6040518082815260200191505060405180910390f35b3480156101f057600080fd5b506101f9610321565b604051808273ffffffffffffffffffffffffffffffffffffffff1673ffffffffffffffffffffffffffffffffffffffff16815260200191505060405180910390f35b34801561024757600080fd5b50610250610347565b005b34801561025e57600080fd5b506102b46004803603810190808035600019169060200190929190803560ff16906020019092919080356000191690602001909291908035600019169060200190929190803590602001909291905050506103fe565b005b600260009054906101000a900473ffffffffffffffffffffffffffffffffffffffff1681565b60005481565b60056020528060005260406000206000915054906101000a900473ffffffffffffffffffffffffffffffffffffffff1681565b60035481565b60045481565b600160009054906101000a900473ffffffffffffffffffffffffffffffffffffffff1681565b426004546003540111156103c3576040517f08c379a000000000000000000000000000000000000000000000000000000000815260040180806020018281038252600f8152602001807f6368616e6e656c2074696d656f7574000000000000000000000000000000000081525060200191505060405180910390fd5b600160009054906101000a900473ffffffffffffffffffffffffffffffffffffffff1673ffffffffffffffffffffffffffffffffffffffff16ff5b600080600187878787604051600081526020016040526040518085600019166000191681526020018460ff1660ff1681526020018360001916600019168152602001826000191660001916815260200194505050505060206040516020810390808403906000865af1158015610478573d6000803e3d6000fd5b505050602060405103519150600160009054906101000a900473ffffffffffffffffffffffffffffffffffffffff1673ffffffffffffffffffffffffffffffffffffffff168273ffffffffffffffffffffffffffffffffffffffff16141580156105305750600260009054906101000a900473ffffffffffffffffffffffffffffffffffffffff1673ffffffffffffffffffffffffffffffffffffffff168273ffffffffffffffffffffffffffffffffffffffff1614155b156105a3576040517f08c379a00000000000000000000000000000000000000000000000000000000081526004018080602001828103825260118152602001807f696e76616c6964207369676e617475726500000000000000000000000000000081525060200191505060405180910390fd5b3083604051602001808373ffffffffffffffffffffffffffffffffffffffff1673ffffffffffffffffffffffffffffffffffffffff166c01000000000000000000000000028152601401828152602001925050506040516020818303038152906040526040518082805190602001908083835b60208310151561063b5780518252602082019150602081019050602083039250610616565b6001836020036101000a0380198251168184511680821785525050505050509050019150506040518091039020905086600019168160001916141515610735576040517f08c379a000000000000000000000000000000000000000000000000000000000815260040180806020018281038252604a8152602001807f696e76616c6964207369676e617475726520287369676e61747572652069732081526020017f76616c69642062757420646f65736e2774206d6174636820746865206461746181526020017f2070726f7669646564290000000000000000000000000000000000000000000081525060600191505060405180910390fd5b600060056000836000191660001916815260200190815260200160002060009054906101000a900473ffffffffffffffffffffffffffffffffffffffff1673ffffffffffffffffffffffffffffffffffffffff16141561081a578160056000836000191660001916815260200190815260200160002060006101000a81548173ffffffffffffffffffffffffffffffffffffffff021916908373ffffffffffffffffffffffffffffffffffffffff1602179055507fb59fde0b777d3fb91cd7c024f522fd92b9475693fff5b1f88bfb91fa821b5d4560405160405180910390a16109b7565b8173ffffffffffffffffffffffffffffffffffffffff1660056000836000191660001916815260200190815260200160002060009054906101000a900473ffffffffffffffffffffffffffffffffffffffff1673ffffffffffffffffffffffffffffffffffffffff161415156109b657600260009054906101000a900473ffffffffffffffffffffffffffffffffffffffff1673ffffffffffffffffffffffffffffffffffffffff166108fc849081150290604051600060405180830381858888f19350505050151561097b576040517f08c379a00000000000000000000000000000000000000000000000000000000081526004018080602001828103825260298152602001807f7472616e73616374696f6e206661696c6564206f6e207468652076657279206c81526020017f617374206d65746572000000000000000000000000000000000000000000000081525060400191505060405180910390fd5b600160009054906101000a900473ffffffffffffffffffffffffffffffffffffffff1673ffffffffffffffffffffffffffffffffffffffff16ff5b5b505050505050505600a165627a7a72305820d78f1efef84f0f3a2586658acc9c171a59ee1a983407c6e416d35f1de64df6a00029a165627a7a7230582050d34c0d32e1bcf41b08796fab159144f84865be878778cdc8b9650c3172a9840029",
  "source": "///////////////////////////////////////////////////////////////////////////////\n//\n//  Copyright (C) 2018 Crossbar.io Technologies GmbH and contributors.\n//\n//  Licensed under the Apache License, Version 2.0 (the \"License\");\n//  you may not use this file except in compliance with the License.\n//  You may obtain a copy of the License at\n//\n//      http://www.apache.org/licenses/LICENSE-2.0\n//\n//  Unless required by applicable law or agreed to in writing, software\n//  distributed under the License is distributed on an \"AS IS\" BASIS,\n//  WITHOUT WARRANTIES OR CONDITIONS OF ANY KIND, either express or implied.\n//  See the License for the specific language governing permissions and\n//  limitations under the License.\n//\n///////////////////////////////////////////////////////////////////////////////\n\npragma solidity ^0.4.24;\n\nimport \"./XBRMaintained.sol\";\nimport \"./XBRPaymentChannel.sol\";\n\n\n/**\n * @title XBR Network root SC\n * @author The XBR Project\n */\ncontract XBRNetwork is XBRMaintained {\n\n    /// XBR Network membership levels\n    enum MemberLevel { NULL, ACTIVE, VERIFIED, RETIRED, PENALTY, BLOCKED }\n\n    /// XBR Market Actor types\n    enum ActorType { NULL, MAKER, PROVIDER, CONSUMER }\n\n    /// Value type for holding XBR Network membership information.\n    struct Member {\n        bytes32 eula;\n        bytes32 profile;\n        MemberLevel level;\n    }\n\n    /// Value type for holding XBR Market information.\n    struct Market {\n        address owner;\n        address maker;\n        bytes32 terms;\n        address[] channels;\n    }\n\n    /// Address of the XBR Network ERC20 token (XBR for the CrossbarFX technology stack)\n    address public network_token;\n\n    /// Address of the `XBR Network Organization <https://xbr.network/>`_\n    address public network_organization;\n\n    /// Current XBR Network members.\n    mapping(address => Member) public members;\n\n    /// Current XBR Markets (\"market repository\")\n    mapping(bytes32 => Market) public markets;\n\n    /**\n     * Create a new network.\n     *\n     * @param _network_token The token to run this network on.\n     * @param _network_organization The network technology provider and ecoystem sponsor.\n     */\n    constructor (address _network_token, address _network_organization) public {\n        network_token = _network_token;\n        network_organization = _network_organization;\n    }\n\n    /**\n     * Join the XBR Network. All XBR stakeholders, namely XBR Data Providers,\n     * XBR Data Consumers, XBR Data Markets and XBR Data Clouds, must register\n     * with the XBR Network on the global blockchain by calling this function.\n     *\n     * @param eula The file hash (SHA2-256) of the XBR Network EULA documents\n     *             being agreed to and stored as one ZIP file archive on IPFS.\n     * @param profile Optional public member profile: the file hash (SHA2-256)\n     *                of the member profile file stored on a well-known location\n     *                (suchas as IPFS).\n     */\n    function register (bytes32 eula, bytes32 profile) public {\n        require(uint(members[msg.sender].level) == 0, \"MEMBER_ALREADY_EXISTS\");\n\n        members[msg.sender] = Member(eula, profile, MemberLevel.ACTIVE);\n    }\n\n    /**\n     * Leave the XBR Network.\n     */\n    function unregister () public {\n        require(uint(members[msg.sender].level) != 0, \"NO_SUCH_MEMBER\");\n\n        members[msg.sender].level = MemberLevel.RETIRED;\n    }\n\n    /**\n     * Manually override the member level of a XBR Network member. Being able to do so\n     * currently serves two purposes:\n     *\n     * - having a last resort to handle situation where members violated the EULA\n     * - being able to manually patch things in error/bug cases\n     */\n    function set_member_level (address member, MemberLevel level) public onlyMaintainer {\n        // only network admins are allowed to override member level\n        //require(network_admins.has(msg.sender), \"DOES_NOT_HAVE_NETWORK_ADMIN_ROLE\");\n\n        members[member].level = level;\n    }\n\n    /**\n     * Register a new XBR market. The sender of the transaction must be XBR network member\n     * and automatically becomes owner of the new market.\n     *\n     * @param maker The address of the XBR market maker that will run this market.\n     * @param terms The XBR market terms set by the market owner.\n     * @param provider_security The amount of XBR tokens a XBR provider joining the market must deposit.\n     * @param consumer_security The amount of XBR tokens a XBR consumer joining the market must deposit.\n     */\n    function open_market (address maker, bytes32 terms, uint64 provider_security, uint64 consumer_security) public {\n\n        // generate new market_id\n        bytes32 market_id = keccak256(abi.encodePacked(msg.sender, blockhash(block.number - 1)));\n\n        // FIXME: gracefully handle multiple market registrations from one user within one block!\n        require(markets[market_id].owner != address(0), \"MARKET_ALREADY_EXISTS\");\n\n        markets[market_id] = Market(msg.sender, maker, terms, new address[](1));\n    }\n\n    /**\n     * Join the given XBR market as the specified type of actor, which must be PROVIDER or CONSUMER.\n     *\n     * @param market_id The ID of the XBR data market to join.\n     * @param actor_type The type of actor under which to join: PROVIDER or CONSUMER.\n     */\n    function join_market (bytes32 market_id, ActorType actor_type) public payable {\n    }\n\n    /**\n     * Open a new payment channel and deposit an amount of XBR token into a market.\n     * The procedure returns\n     */\n    function open_payment_channel (bytes32 market_id) public payable returns (address payment_channel) {\n        XBRPaymentChannel channel = new XBRPaymentChannel(market_id, address(0), 60);\n        markets[market_id].channels.push(channel);\n        return channel;\n    }\n\n    /**\n     * As a data provider, request a new payment channel to get paid by the market maker. Given sufficient\n     * security amount (deposited by the data provider when joining the marker) to cover the request amount,\n     * the market maker will open a payment (state) channel to allow the market maker buying data keys in\n     * microtransactions, and offchain. The creation of the payment channel is asynchronously: the market maker\n     * is watching the global blockchain filtering for events relevant to the market managed by the maker.\n     * When a request to open a payment channel is recognized by the market maker, it will check the provider\n     * for sufficient security despoit covering the requested amount, and if all is fine, create a new payment\n     * channel and store the contract address for the channel request ID, so the data provider can retrieve it.\n     */\n    function request_paying_channel (bytes32 market_id, uint256 amount) public returns (bytes32 channel_request_id) {\n    }\n\n    /**\n     * As a market actor (participant) currently member of a market, leave that market.\n     * A market can only be left when all payment channels of the sender are closed (or expired).\n     *\n     * @param market_id The ID of the market to leave.\n     */\n    function leave_market (bytes32 market_id) public {\n    }\n\n    /**\n     * Close a market. A closed market will not accept new memberships.\n     *\n     * @param market_id The ID of the market to close.\n     */\n    function close_market (bytes32 market_id) public {\n    }\n}\n",
  "sourcePath": "/home/oberstet/scm/xbr/xbr-protocol/contracts/XBRNetwork.sol",
  "compiler": {
    "name": "solc",
    "version": "0.4.24+commit.e67f0147.Emscripten.clang"
  },
  "schemaVersion": "2.0.1",
  "updatedAt": "2018-11-11T15:25:01.411Z"
}