{
  "contractName": "XBRPaymentChannel",
  "abi": [
    {
      "constant": true,
      "inputs": [],
      "name": "channel_recipient",
      "outputs": [
        {
          "name": "",
          "type": "address"
        }
      ],
      "payable": false,
      "stateMutability": "view",
      "type": "function"
    },
    {
      "constant": true,
      "inputs": [],
      "name": "market_id",
      "outputs": [
        {
          "name": "",
          "type": "bytes32"
        }
      ],
      "payable": false,
      "stateMutability": "view",
      "type": "function"
    },
    {
      "constant": true,
      "inputs": [
        {
          "name": "",
          "type": "bytes32"
        }
      ],
      "name": "signatures",
      "outputs": [
        {
          "name": "",
          "type": "address"
        }
      ],
      "payable": false,
      "stateMutability": "view",
      "type": "function"
    },
    {
      "constant": true,
      "inputs": [],
      "name": "start_date",
      "outputs": [
        {
          "name": "",
          "type": "uint256"
        }
      ],
      "payable": false,
      "stateMutability": "view",
      "type": "function"
    },
    {
      "constant": true,
      "inputs": [],
      "name": "channel_timeout",
      "outputs": [
        {
          "name": "",
          "type": "uint256"
        }
      ],
      "payable": false,
      "stateMutability": "view",
      "type": "function"
    },
    {
      "constant": true,
      "inputs": [],
      "name": "channel_sender",
      "outputs": [
        {
          "name": "",
          "type": "address"
        }
      ],
      "payable": false,
      "stateMutability": "view",
      "type": "function"
    },
    {
      "inputs": [
        {
          "name": "_market_id",
          "type": "bytes32"
        },
        {
          "name": "to",
          "type": "address"
        },
        {
          "name": "timeout",
          "type": "uint256"
        }
      ],
      "payable": true,
      "stateMutability": "payable",
      "type": "constructor"
    },
    {
      "anonymous": false,
      "inputs": [],
      "name": "Closing",
      "type": "event"
    },
    {
      "anonymous": false,
      "inputs": [],
      "name": "Closed",
      "type": "event"
    },
    {
      "constant": false,
      "inputs": [
        {
          "name": "h",
          "type": "bytes32"
        },
        {
          "name": "v",
          "type": "uint8"
        },
        {
          "name": "r",
          "type": "bytes32"
        },
        {
          "name": "s",
          "type": "bytes32"
        },
        {
          "name": "value",
          "type": "uint256"
        }
      ],
      "name": "close",
      "outputs": [],
      "payable": false,
      "stateMutability": "nonpayable",
      "type": "function"
    },
    {
      "constant": false,
      "inputs": [],
      "name": "timeout",
      "outputs": [],
      "payable": false,
      "stateMutability": "nonpayable",
      "type": "function"
    }
  ],
  "bytecode": "0x6080604052604051606080610ad3833981018060405281019080805190602001909291908051906020019092919080519060200190929190505050826000816000191690555081600260006101000a81548173ffffffffffffffffffffffffffffffffffffffff021916908373ffffffffffffffffffffffffffffffffffffffff16021790555033600160006101000a81548173ffffffffffffffffffffffffffffffffffffffff021916908373ffffffffffffffffffffffffffffffffffffffff16021790555042600381905550806004819055505050506109ec806100e76000396000f30060806040526004361061008e576000357c0100000000000000000000000000000000000000000000000000000000900463ffffffff168063152551b91461009357806315e61750146100ea5780632422224e1461011d57806327d795d71461018e5780633686d5d6146101b9578063369dbbc9146101e457806370dea79a1461023b5780639657cf4214610252575b600080fd5b34801561009f57600080fd5b506100a86102b6565b604051808273ffffffffffffffffffffffffffffffffffffffff1673ffffffffffffffffffffffffffffffffffffffff16815260200191505060405180910390f35b3480156100f657600080fd5b506100ff6102dc565b60405180826000191660001916815260200191505060405180910390f35b34801561012957600080fd5b5061014c60048036038101908080356000191690602001909291905050506102e2565b604051808273ffffffffffffffffffffffffffffffffffffffff1673ffffffffffffffffffffffffffffffffffffffff16815260200191505060405180910390f35b34801561019a57600080fd5b506101a3610315565b6040518082815260200191505060405180910390f35b3480156101c557600080fd5b506101ce61031b565b6040518082815260200191505060405180910390f35b3480156101f057600080fd5b506101f9610321565b604051808273ffffffffffffffffffffffffffffffffffffffff1673ffffffffffffffffffffffffffffffffffffffff16815260200191505060405180910390f35b34801561024757600080fd5b50610250610347565b005b34801561025e57600080fd5b506102b46004803603810190808035600019169060200190929190803560ff16906020019092919080356000191690602001909291908035600019169060200190929190803590602001909291905050506103fe565b005b600260009054906101000a900473ffffffffffffffffffffffffffffffffffffffff1681565b60005481565b60056020528060005260406000206000915054906101000a900473ffffffffffffffffffffffffffffffffffffffff1681565b60035481565b60045481565b600160009054906101000a900473ffffffffffffffffffffffffffffffffffffffff1681565b426004546003540111156103c3576040517f08c379a000000000000000000000000000000000000000000000000000000000815260040180806020018281038252600f8152602001807f6368616e6e656c2074696d656f7574000000000000000000000000000000000081525060200191505060405180910390fd5b600160009054906101000a900473ffffffffffffffffffffffffffffffffffffffff1673ffffffffffffffffffffffffffffffffffffffff16ff5b600080600187878787604051600081526020016040526040518085600019166000191681526020018460ff1660ff1681526020018360001916600019168152602001826000191660001916815260200194505050505060206040516020810390808403906000865af1158015610478573d6000803e3d6000fd5b505050602060405103519150600160009054906101000a900473ffffffffffffffffffffffffffffffffffffffff1673ffffffffffffffffffffffffffffffffffffffff168273ffffffffffffffffffffffffffffffffffffffff16141580156105305750600260009054906101000a900473ffffffffffffffffffffffffffffffffffffffff1673ffffffffffffffffffffffffffffffffffffffff168273ffffffffffffffffffffffffffffffffffffffff1614155b156105a3576040517f08c379a00000000000000000000000000000000000000000000000000000000081526004018080602001828103825260118152602001807f696e76616c6964207369676e617475726500000000000000000000000000000081525060200191505060405180910390fd5b3083604051602001808373ffffffffffffffffffffffffffffffffffffffff1673ffffffffffffffffffffffffffffffffffffffff166c01000000000000000000000000028152601401828152602001925050506040516020818303038152906040526040518082805190602001908083835b60208310151561063b5780518252602082019150602081019050602083039250610616565b6001836020036101000a0380198251168184511680821785525050505050509050019150506040518091039020905086600019168160001916141515610735576040517f08c379a000000000000000000000000000000000000000000000000000000000815260040180806020018281038252604a8152602001807f696e76616c6964207369676e617475726520287369676e61747572652069732081526020017f76616c69642062757420646f65736e2774206d6174636820746865206461746181526020017f2070726f7669646564290000000000000000000000000000000000000000000081525060600191505060405180910390fd5b600060056000836000191660001916815260200190815260200160002060009054906101000a900473ffffffffffffffffffffffffffffffffffffffff1673ffffffffffffffffffffffffffffffffffffffff16141561081a578160056000836000191660001916815260200190815260200160002060006101000a81548173ffffffffffffffffffffffffffffffffffffffff021916908373ffffffffffffffffffffffffffffffffffffffff1602179055507fb59fde0b777d3fb91cd7c024f522fd92b9475693fff5b1f88bfb91fa821b5d4560405160405180910390a16109b7565b8173ffffffffffffffffffffffffffffffffffffffff1660056000836000191660001916815260200190815260200160002060009054906101000a900473ffffffffffffffffffffffffffffffffffffffff1673ffffffffffffffffffffffffffffffffffffffff161415156109b657600260009054906101000a900473ffffffffffffffffffffffffffffffffffffffff1673ffffffffffffffffffffffffffffffffffffffff166108fc849081150290604051600060405180830381858888f19350505050151561097b576040517f08c379a00000000000000000000000000000000000000000000000000000000081526004018080602001828103825260298152602001807f7472616e73616374696f6e206661696c6564206f6e207468652076657279206c81526020017f617374206d65746572000000000000000000000000000000000000000000000081525060400191505060405180910390fd5b600160009054906101000a900473ffffffffffffffffffffffffffffffffffffffff1673ffffffffffffffffffffffffffffffffffffffff16ff5b5b505050505050505600a165627a7a72305820d78f1efef84f0f3a2586658acc9c171a59ee1a983407c6e416d35f1de64df6a00029",
  "source": "///////////////////////////////////////////////////////////////////////////////\n//\n//  Copyright (C) 2018 Crossbar.io Technologies GmbH and contributors.\n//\n//  Licensed under the Apache License, Version 2.0 (the \"License\");\n//  you may not use this file except in compliance with the License.\n//  You may obtain a copy of the License at\n//\n//      http://www.apache.org/licenses/LICENSE-2.0\n//\n//  Unless required by applicable law or agreed to in writing, software\n//  distributed under the License is distributed on an \"AS IS\" BASIS,\n//  WITHOUT WARRANTIES OR CONDITIONS OF ANY KIND, either express or implied.\n//  See the License for the specific language governing permissions and\n//  limitations under the License.\n//\n///////////////////////////////////////////////////////////////////////////////\n\npragma solidity ^0.4.24;\n\n\n/**\n * XBR Payment Channel between a XBR data consumer and the XBR market maker,\n * or the XBR Market Maker and a XBR data provider.\n */\ncontract XBRPaymentChannel {\n\n    bytes32 public market_id;\n    address public channel_sender;\n    address public channel_recipient;\n    uint public start_date;\n    uint public channel_timeout;\n    mapping (bytes32 => address) public signatures;\n\n    /**\n     * Event emitted when payment channel is closing (that is, one of the two state channel\n     * participants has called \"close()\", initiating start of the channel timeout).\n     */\n    event Closing();\n\n    /**\n     * Event emitted when payment channel has finally closed, which happens after both state\n     * channel participants have called close(), agreeing on last state, or after the timeout\n     * at latest - in case the 2nd participant doesn't react within timeout)\n     */\n    event Closed();\n\n    /**\n     * Create a new XBR payment channel for handling microtransactions of XBR tokens.\n     *\n     * @param _market_id The ID of the XBR market this payment channel is associated with.\n     * @param to The receiver of the payments.\n     * @param timeout The payment channel timeout period that begins with the first call to `close()`\n     */\n    constructor (bytes32 _market_id, address to, uint timeout) public payable {\n\n        market_id = _market_id;\n        channel_recipient = to;\n        channel_sender = msg.sender;\n        start_date = now; // solhint-disable-line\n        channel_timeout = timeout;\n    }\n\n    /**\n     * Trigger closing this payment channel. When the first participant has called `close()`\n     * submitting its latest transaction/state, a timeout period begins during which the\n     * other party of the payment channel has to submit its latest transaction/state too.\n     * When both transaction have been submitted, and the submitted transactions/states agree,\n     * the channel immediately closes, and the consumed amount of token in the channel is\n     * transferred to the chanel receipient, and the remaining amount of token is transferred\n     * back to the original sender.\n     */\n    function close (bytes32 h, uint8 v, bytes32 r, bytes32 s, uint value) public {\n\n        address signer;\n        bytes32 proof;\n\n        // get signer from signature\n        signer = ecrecover(h, v, r, s);\n\n        if (signer != channel_sender && signer != channel_recipient) {\n            revert(\"invalid signature\");\n        }\n\n        proof = keccak256(abi.encodePacked(this, value));\n\n        if (proof != h) {\n            revert(\"invalid signature (signature is valid but doesn't match the data provided)\");\n        }\n\n        if (signatures[proof] == 0) {\n            signatures[proof] = signer;\n            emit Closing();\n        } else if (signatures[proof] != signer) {\n            // channel completed, both signatures provided\n            if (!channel_recipient.send(value)) { // solhint-disable-line\n                revert(\"transaction failed on the very last meter\");\n            }\n            selfdestruct(channel_sender);\n            emit Closed();\n        }\n    }\n\n    /**\n     * Timeout this state channel.\n     */\n    function timeout () public {\n        if (start_date + channel_timeout > now) { // solhint-disable-line\n            revert(\"channel timeout\");\n        }\n        selfdestruct(channel_sender);\n    }\n\n    function _verify (bytes32 hash, uint8 v, bytes32 r, bytes32 s, address expected_signer)\n        internal pure returns (bool) {\n\n        bytes memory prefix = \"\\x19Ethereum Signed Message:\\n32\";\n        bytes32 prefixedHash = keccak256(abi.encodePacked(prefix, hash));\n        return ecrecover(prefixedHash, v, r, s) == expected_signer;\n    }\n}\n",
  "sourcePath": "/home/oberstet/scm/xbr/xbr-protocol/contracts/XBRPaymentChannel.sol",
  "compiler": {
    "name": "solc",
    "version": "0.4.24+commit.e67f0147.Emscripten.clang"
  },
  "schemaVersion": "2.0.1",
  "updatedAt": "2018-11-11T15:24:57.167Z"
}