{
  "contractName": "XBRChannel",
  "abi": [
    {
      "constant": true,
      "inputs": [],
      "name": "ctype",
      "outputs": [
        {
          "name": "",
          "type": "uint8"
        }
      ],
      "payable": false,
      "stateMutability": "view",
      "type": "function"
    },
    {
      "constant": true,
      "inputs": [],
      "name": "openedAt",
      "outputs": [
        {
          "name": "",
          "type": "uint256"
        }
      ],
      "payable": false,
      "stateMutability": "view",
      "type": "function"
    },
    {
      "constant": true,
      "inputs": [],
      "name": "recipient",
      "outputs": [
        {
          "name": "",
          "type": "address"
        }
      ],
      "payable": false,
      "stateMutability": "view",
      "type": "function"
    },
    {
      "constant": true,
      "inputs": [],
      "name": "sender",
      "outputs": [
        {
          "name": "",
          "type": "address"
        }
      ],
      "payable": false,
      "stateMutability": "view",
      "type": "function"
    },
    {
      "constant": true,
      "inputs": [],
      "name": "marketId",
      "outputs": [
        {
          "name": "",
          "type": "bytes16"
        }
      ],
      "payable": false,
      "stateMutability": "view",
      "type": "function"
    },
    {
      "constant": true,
      "inputs": [],
      "name": "timeout",
      "outputs": [
        {
          "name": "",
          "type": "uint32"
        }
      ],
      "payable": false,
      "stateMutability": "view",
      "type": "function"
    },
    {
      "constant": true,
      "inputs": [],
      "name": "closedAt",
      "outputs": [
        {
          "name": "",
          "type": "uint256"
        }
      ],
      "payable": false,
      "stateMutability": "view",
      "type": "function"
    },
    {
      "constant": true,
      "inputs": [],
      "name": "amount",
      "outputs": [
        {
          "name": "",
          "type": "uint256"
        }
      ],
      "payable": false,
      "stateMutability": "view",
      "type": "function"
    },
    {
      "constant": true,
      "inputs": [],
      "name": "state",
      "outputs": [
        {
          "name": "",
          "type": "uint8"
        }
      ],
      "payable": false,
      "stateMutability": "view",
      "type": "function"
    },
    {
      "constant": true,
      "inputs": [],
      "name": "delegate",
      "outputs": [
        {
          "name": "",
          "type": "address"
        }
      ],
      "payable": false,
      "stateMutability": "view",
      "type": "function"
    },
    {
      "inputs": [
        {
          "name": "token_",
          "type": "address"
        },
        {
          "name": "marketId_",
          "type": "bytes16"
        },
        {
          "name": "sender_",
          "type": "address"
        },
        {
          "name": "delegate_",
          "type": "address"
        },
        {
          "name": "recipient_",
          "type": "address"
        },
        {
          "name": "amount_",
          "type": "uint256"
        },
        {
          "name": "timeout_",
          "type": "uint32"
        },
        {
          "name": "ctype_",
          "type": "uint8"
        }
      ],
      "payable": false,
      "stateMutability": "nonpayable",
      "type": "constructor"
    },
    {
      "anonymous": false,
      "inputs": [
        {
          "indexed": true,
          "name": "marketId",
          "type": "bytes16"
        },
        {
          "indexed": false,
          "name": "signer",
          "type": "address"
        },
        {
          "indexed": false,
          "name": "amount",
          "type": "uint256"
        },
        {
          "indexed": false,
          "name": "timeoutAt",
          "type": "uint256"
        }
      ],
      "name": "Closing",
      "type": "event"
    },
    {
      "anonymous": false,
      "inputs": [
        {
          "indexed": true,
          "name": "marketId",
          "type": "bytes16"
        },
        {
          "indexed": false,
          "name": "signer",
          "type": "address"
        },
        {
          "indexed": false,
          "name": "amount",
          "type": "uint256"
        },
        {
          "indexed": false,
          "name": "closedAt",
          "type": "uint256"
        }
      ],
      "name": "Closed",
      "type": "event"
    },
    {
      "constant": true,
      "inputs": [
        {
          "name": "tx_signer",
          "type": "address"
        },
        {
          "name": "tx_pubkey",
          "type": "bytes32"
        },
        {
          "name": "tx_key_id",
          "type": "bytes16"
        },
        {
          "name": "tx_channel_seq",
          "type": "uint32"
        },
        {
          "name": "tx_amount",
          "type": "uint256"
        },
        {
          "name": "tx_balance",
          "type": "uint256"
        },
        {
          "name": "v",
          "type": "uint8"
        },
        {
          "name": "r",
          "type": "bytes32"
        },
        {
          "name": "s",
          "type": "bytes32"
        }
      ],
      "name": "verifyTransaction",
      "outputs": [
        {
          "name": "",
          "type": "bool"
        }
      ],
      "payable": false,
      "stateMutability": "pure",
      "type": "function"
    },
    {
      "constant": false,
      "inputs": [
        {
          "name": "tx_pubkey",
          "type": "bytes32"
        },
        {
          "name": "tx_key_id",
          "type": "bytes16"
        },
        {
          "name": "tx_channel_seq",
          "type": "uint32"
        },
        {
          "name": "tx_amount",
          "type": "uint256"
        },
        {
          "name": "tx_balance",
          "type": "uint256"
        },
        {
          "name": "delegate_v",
          "type": "uint8"
        },
        {
          "name": "delegate_r",
          "type": "bytes32"
        },
        {
          "name": "delegate_s",
          "type": "bytes32"
        },
        {
          "name": "marketmaker_v",
          "type": "uint8"
        },
        {
          "name": "marketmaker_r",
          "type": "bytes32"
        },
        {
          "name": "marketmaker_s",
          "type": "bytes32"
        }
      ],
      "name": "close",
      "outputs": [],
      "payable": false,
      "stateMutability": "nonpayable",
      "type": "function"
    }
  ],
  "bytecode": "0x608060405234801561001057600080fd5b5060405161010080610d33833981018060405261010081101561003257600080fd5b508051602082015160408301516060840151608085015160a086015160c087015160e09097015160008054600160a060020a031916600160a060020a0389161780825597989697959694959394929382919060a060020a60ff021916740100000000000000000000000000000000000000008360028111156100b057fe5b0217905550600080546001919060a860020a60ff021916750100000000000000000000000000000000000000000083021790555050600180546001608060020a0319167001000000000000000000000000000000009097049690961790955560028054600160a060020a0319908116600160a060020a03968716179091556003805482169486169490941790935560048054909316919093161790556005556008805463ffffffff191663ffffffff9092169190911790555043600655610bb78061017c6000396000f3fe608060405234801561001057600080fd5b50600436106100d1576000357c0100000000000000000000000000000000000000000000000000000000900480636ed71ede1161008e5780636ed71ede1461024f57806370dea79a1461027d5780639ef27b001461029e578063aa8c217c146102a6578063c19d93fb146102ae578063c89e4361146102c6576100d1565b806305a78750146100d6578063359d4be2146101025780633893020314610181578063490d59a41461019b57806366d003ac1461022357806367e404ce14610247575b600080fd5b6100de6102ce565b604051808260028111156100ee57fe5b60ff16815260200191505060405180910390f35b61017f600480360361016081101561011957600080fd5b508035906fffffffffffffffffffffffffffffffff196020820135169063ffffffff6040820135169060608101359060808101359060ff60a082013581169160c08101359160e082013591610100810135909116906101208101359061014001356102ef565b005b61018961073c565b60408051918252519081900360200190f35b61020f60048036036101208110156101b257600080fd5b50600160a060020a03813516906020810135906fffffffffffffffffffffffffffffffff196040820135169063ffffffff6060820135169060808101359060a08101359060ff60c0820135169060e0810135906101000135610742565b604080519115158252519081900360200190f35b61022b610a5d565b60408051600160a060020a039092168252519081900360200190f35b61022b610a6c565b610257610a7b565b604080516fffffffffffffffffffffffffffffffff199092168252519081900360200190f35b610285610a94565b6040805163ffffffff9092168252519081900360200190f35b610189610aa0565b610189610aa6565b6102b6610aac565b604051808260038111156100ee57fe5b61022b610ace565b60005474010000000000000000000000000000000000000000900460ff1681565b600160005474010000000000000000000000000000000000000000900460ff16600281111561031a57fe5b141561040b5760025461033d90600160a060020a03168c8c8c8c8c898989610742565b1515610393576040805160e560020a62461bcd02815260206004820152601d60248201527f494e56414c49445f4d41524b45544d414b45525f5349474e4154555245000000604482015290519081900360640190fd5b6003546103b090600160a060020a03168c8c8c8c8c8c8c8c610742565b1515610406576040805160e560020a62461bcd02815260206004820152601a60248201527f494e56414c49445f44454c45474154455f5349474e4154555245000000000000604482015290519081900360640190fd5b6104f1565b60035461042890600160a060020a03168c8c8c8c8c898989610742565b151561047e576040805160e560020a62461bcd02815260206004820152601d60248201527f494e56414c49445f4d41524b45544d414b45525f5349474e4154555245000000604482015290519081900360640190fd5b60025461049b90600160a060020a03168c8c8c8c8c8c8c8c610742565b15156104f1576040805160e560020a62461bcd02815260206004820152601a60248201527f494e56414c49445f44454c45474154455f5349474e4154555245000000000000604482015290519081900360640190fd5b60016000547501000000000000000000000000000000000000000000900460ff16600381111561051d57fe5b14610572576040805160e560020a62461bcd02815260206004820152601060248201527f4348414e4e454c5f4e4f545f4f50454e00000000000000000000000000000000604482015290519081900360640190fd5b6000805460048054600554604080517fa9059cbb000000000000000000000000000000000000000000000000000000008152600160a060020a039384169481019490945260248401919091525192169163a9059cbb9160448082019260209290919082900301818787803b1580156105e957600080fd5b505af11580156105fd573d6000803e3d6000fd5b505050506040513d602081101561061357600080fd5b5051905080151561066e576040805160e560020a62461bcd02815260206004820152601d60248201527f4348414e4e454c5f434c4f53455f5452414e534645525f4641494c4544000000604482015290519081900360640190fd5b43600755600080546003919075ff0000000000000000000000000000000000000000001916750100000000000000000000000000000000000000000083021790555060015460025460055460075460408051600160a060020a039094168452602084019290925282820152517001000000000000000000000000000000009092026fffffffffffffffffffffffffffffffff1916917f149862a34bbf1a64df1b3d1a30d1521062eba33815665c97e48f4f7a4e549088916060908290030190a2505050505050505050505050565b60065481565b6000600160806040519081016040528060528152602001610b3a605291396040516020018082805190602001908083835b602083106107925780518252601f199092019160209182019101610773565b51815160001960209485036101000a0190811690199190911617905260408051601f19959093018381039590950183528481528251928201929092207f5842520000000000000000000000000000000000000000000000000000000000855282519485900360030185207f31000000000000000000000000000000000000000000000000000000000000008652835195869003600101862086840192909252858401526060850152611691608085015273254dffcd3277c0b1660f6d42efbb754edababc2b60a0808601919091528251808603909101815260c08501808452815191909201206101408501909252605c808252919550935091610ade915060e001396040516020018082805190602001908083835b602083106108c65780518252601f1990920191602091820191016108a7565b6001836020036101000a038019825116818451168082178552505050505050905001915050604051602081830303815290604052805190602001208b8b8b8b8b60405160200180878152602001868152602001856fffffffffffffffffffffffffffffffff19166fffffffffffffffffffffffffffffffff191681526020018463ffffffff1663ffffffff16815260200183815260200182815260200196505050505050506040516020818303038152906040528051906020012060405160200180807f5c7831395c783031000000000000000000000000000000000000000000000000815250600801838152602001828152602001925050506040516020818303038152906040528051906020012085858560405160008152602001604052604051808581526020018460ff1660ff1681526020018381526020018281526020019450505050506020604051602081039080840390855afa158015610a30573d6000803e3d6000fd5b50505060206040510351600160a060020a03168a600160a060020a03161490509998505050505050505050565b600454600160a060020a031681565b600254600160a060020a031681565b6001547001000000000000000000000000000000000281565b60085463ffffffff1681565b60075481565b60055481565b6000547501000000000000000000000000000000000000000000900460ff1681565b600354600160a060020a03168156fe5472616e73616374696f6e2875696e74323536207075626b65792c75696e74313238206b65795f69642c75696e743332206368616e6e656c5f7365712c75696e7432353620616d6f756e742c75696e743235362062616c616e636529454950373132446f6d61696e28737472696e67206e616d652c737472696e672076657273696f6e2c75696e7432353620636861696e49642c6164647265737320766572696679696e67436f6e747261637429a165627a7a72305820842d938ee37987a4efdc933919adb3b5ab7f8bda4ec5cf8dfa67633f8be473950029",
  "source": "///////////////////////////////////////////////////////////////////////////////\n//\n//  Copyright (C) 2018 Crossbar.io Technologies GmbH and contributors.\n//\n//  Licensed under the Apache License, Version 2.0 (the \"License\");\n//  you may not use this file except in compliance with the License.\n//  You may obtain a copy of the License at\n//\n//      http://www.apache.org/licenses/LICENSE-2.0\n//\n//  Unless required by applicable law or agreed to in writing, software\n//  distributed under the License is distributed on an \"AS IS\" BASIS,\n//  WITHOUT WARRANTIES OR CONDITIONS OF ANY KIND, either express or implied.\n//  See the License for the specific language governing permissions and\n//  limitations under the License.\n//\n///////////////////////////////////////////////////////////////////////////////\n\npragma solidity ^0.5.2;\n\n// https://openzeppelin.org/api/docs/math_SafeMath.html\nimport \"openzeppelin-solidity/contracts/math/SafeMath.sol\";\n\n// https://openzeppelin.org/api/docs/cryptography_ECDSA.html\nimport \"openzeppelin-solidity/contracts/cryptography/ECDSA.sol\";\n\nimport \"./XBRToken.sol\";\n\n\n/**\n * XBR Payment/Paying Channel between a XBR data consumer and the XBR market maker,\n * or the XBR Market Maker and a XBR data provider.\n */\ncontract XBRChannel {\n\n    // Add safe math functions to uint256 using SafeMath lib from OpenZeppelin\n    using SafeMath for uint256;\n\n/*\n    // Add recover method for bytes32 using ECDSA lib from OpenZeppelin\n    using ECDSA for bytes32;\n*/\n\n    uint256 constant chainId = 5777;\n\n    address constant verifyingContract = 0x254dffcd3277C0b1660F6d42EFbB754edaBAbC2B;\n\n    string private constant EIP712_DOMAIN =\n        \"EIP712Domain(string name,string version,uint256 chainId,address verifyingContract)\";\n\n    bytes32 private constant EIP712_DOMAIN_TYPEHASH = keccak256(abi.encodePacked(EIP712_DOMAIN));\n\n    string private constant TRANSACTION_TYPE =\n        \"Transaction(uint256 pubkey,uint128 key_id,uint32 channel_seq,uint256 amount,uint256 balance)\";\n\n    bytes32 private constant TRANSACTION_DOMAIN_TYPEHASH = keccak256(abi.encodePacked(TRANSACTION_TYPE));\n\n    bytes32 private constant DOMAIN_SEPARATOR = keccak256(abi.encode(\n        EIP712_DOMAIN_TYPEHASH,\n        keccak256(\"XBR\"),\n        keccak256(\"1\"),\n        chainId,\n        verifyingContract\n    ));\n\n    /// XBR Network ERC20 token (XBR for the CrossbarFX technology stack)\n    XBRToken private _token;\n\n    /// Payment channel types.\n    enum ChannelType { NONE, PAYMENT, PAYING }\n\n    /// Payment channel states.\n    enum ChannelState { NONE, OPEN, CLOSING, CLOSED }\n\n    /// Current payment channel type (either payment or paying channel).\n    ChannelType public ctype;\n\n    /// Current payment channel state.\n    ChannelState public state;\n\n    /// The XBR Market ID this channel is operating payments (or payouts) for.\n    bytes16 public marketId;\n\n    /**\n     * The sender of the payments in this channel. Either a XBR Consumer (delegate) in case\n     * of a payment channel, or the XBR Market Maker (delegate) in case of a paying channel.\n     */\n    address public sender;\n\n    /**\n     * The other delegate of the channel, e.g. the XBR Market Maker in case of a payment channel,\n     * or a XBR Provider (delegate) in case of a paying channel.\n     */\n    address public delegate;\n\n    /**\n     * Recipient of the payments in this channel. Either the XBR Market Operator (payment\n     * channels) or a XBR Provider (paying channels).\n     */\n    address public recipient;\n\n    /// Amount of XBR held in the channel.\n    uint256 public amount;\n\n    /// Block number when the channel was created.\n    uint256 public openedAt;\n\n    /// Block number when the channel was closed (finally, after the timeout).\n    uint256 public closedAt;\n\n    /**\n     * Timeout with which the channel will be closed (the grace period during which the\n     * channel will wait for participants to submit their last signed transaction).\n     */\n    uint32 public timeout;\n\n    /// Signatures of the channel participants (when channel is closing).\n    mapping (bytes32 => address) private _signatures;\n\n    /**\n     * Event emitted when payment channel is closing (that is, one of the two state channel\n     * participants has called \"close()\", initiating start of the channel timeout).\n     */\n    event Closing(bytes16 indexed marketId, address signer, uint256 amount, uint256 timeoutAt);\n\n    /**\n     * Event emitted when payment channel has finally closed, which happens after both state\n     * channel participants have called close(), agreeing on last state, or after the timeout\n     * at latest - in case the second participant doesn't react within timeout)\n     */\n    event Closed(bytes16 indexed marketId, address signer, uint256 amount, uint256 closedAt);\n\n    /**\n     * Create a new XBR payment channel for handling microtransactions of XBR tokens.\n     *\n     * @param marketId_ The ID of the XBR market this payment channel is associated with.\n     * @param sender_ The sender (onchain) of the payments.\n     * @param delegate_ The offchain delegate allowed to spend XBR offchain, from the channel,\n     *     in the name of the original sender.\n     * @param recipient_ The receiver (onchain) of the payments.\n     * @param amount_ The amount of XBR held in the channel.\n     * @param timeout_ The payment channel timeout period that begins with the first call to `close()`\n     */\n    constructor (address token_, bytes16 marketId_, address sender_, address delegate_,\n                address recipient_, uint256 amount_, uint32 timeout_, ChannelType ctype_) public {\n\n        _token = XBRToken(token_);\n        ctype = ctype_;\n        state = ChannelState.OPEN;\n        marketId = marketId_;\n        sender = sender_;\n        delegate = delegate_;\n        recipient = recipient_;\n        amount = amount_;\n        timeout = timeout_;\n        openedAt = block.number; // solhint-disable-line\n    }\n\n    /**\n     * Verify transaction typed data was signed by signer.\n     */\n    function verifyTransaction (address tx_signer,\n                                bytes32 tx_pubkey, bytes16 tx_key_id, uint32 tx_channel_seq,\n                                uint256 tx_amount, uint256 tx_balance,\n                                uint8 v, bytes32 r, bytes32 s) public pure returns (bool) {\n\n        return tx_signer == ecrecover(keccak256(abi.encodePacked(\n            \"\\\\x19\\\\x01\",\n            DOMAIN_SEPARATOR,\n            keccak256(abi.encode(\n                TRANSACTION_DOMAIN_TYPEHASH,\n                tx_pubkey,\n                tx_key_id,\n                tx_channel_seq,\n                tx_amount,\n                tx_balance\n            ))\n        )), v, r, s);\n    }\n\n    /**\n     * Trigger closing this payment channel. When the first participant has called `close()`\n     * submitting its latest transaction/state, a timeout period begins during which the\n     * other party of the payment channel has to submit its latest transaction/state too.\n     * When both transaction have been submitted, and the submitted transactions/states agree,\n     * the channel immediately closes, and the consumed amount of token in the channel is\n     * transferred to the channel recipient, and the remaining amount of token is transferred\n     * back to the original sender.\n     */\n    function close (bytes32 tx_pubkey, bytes16 tx_key_id, uint32 tx_channel_seq, uint256 tx_amount, uint256 tx_balance,\n                    uint8 delegate_v, bytes32 delegate_r, bytes32 delegate_s,\n                    uint8 marketmaker_v, bytes32 marketmaker_r, bytes32 marketmaker_s) public {\n\n        if (ctype == XBRChannel.ChannelType.PAYMENT) {\n            require(verifyTransaction(sender, tx_pubkey, tx_key_id, tx_channel_seq, tx_amount,\n                tx_balance, marketmaker_v, marketmaker_r, marketmaker_s), \"INVALID_MARKETMAKER_SIGNATURE\");\n            require(verifyTransaction(delegate, tx_pubkey, tx_key_id, tx_channel_seq, tx_amount,\n                tx_balance, delegate_v, delegate_r, delegate_s), \"INVALID_DELEGATE_SIGNATURE\");\n        } else {\n            require(verifyTransaction(delegate, tx_pubkey, tx_key_id, tx_channel_seq, tx_amount,\n                tx_balance, marketmaker_v, marketmaker_r, marketmaker_s), \"INVALID_MARKETMAKER_SIGNATURE\");\n            require(verifyTransaction(sender, tx_pubkey, tx_key_id, tx_channel_seq, tx_amount,\n                tx_balance, delegate_v, delegate_r, delegate_s), \"INVALID_DELEGATE_SIGNATURE\");\n        }\n\n        require(state == ChannelState.OPEN, \"CHANNEL_NOT_OPEN\");\n\n        // approve(address spender, uint256 amount) external returns (bool)\n        // transferFrom(address sender, address recipient, uint256 amount)\n        // revert(\"invalid signature\");\n        // selfdestruct(sender);\n\n        // bool success = _token.transferFrom(address(this), recipient, amount);\n        bool success = _token.transfer(recipient, amount);\n        require(success, \"CHANNEL_CLOSE_TRANSFER_FAILED\");\n\n        // FIXME: selfdestruct ?! to whom?\n        // FIXME: recipient amountamount vs txamount vs ..\n        // FIXME: network fee\n\n        closedAt = block.number; // solhint-disable-line\n        state = ChannelState.CLOSED;\n        emit Closed(marketId, sender, amount, closedAt);\n    }\n}\n",
  "sourcePath": "/home/oberstet/scm/crossbario/xbr-protocol/contracts/XBRChannel.sol",
  "compiler": {
    "name": "solc",
    "version": "0.5.2+commit.1df8f40c.Emscripten.clang"
  },
  "schemaVersion": "3.0.13",
  "updatedAt": "2019-08-26T13:25:52.443Z",
  "devdoc": {
    "methods": {
      "constructor": {
        "params": {
          "amount_": "The amount of XBR held in the channel.",
          "delegate_": "The offchain delegate allowed to spend XBR offchain, from the channel,    in the name of the original sender.",
          "marketId_": "The ID of the XBR market this payment channel is associated with.",
          "recipient_": "The receiver (onchain) of the payments.",
          "sender_": "The sender (onchain) of the payments.",
          "timeout_": "The payment channel timeout period that begins with the first call to `close()`"
        }
      }
    }
  },
  "userdoc": {
    "methods": {
      "close(bytes32,bytes16,uint32,uint256,uint256,uint8,bytes32,bytes32,uint8,bytes32,bytes32)": {
        "notice": "Trigger closing this payment channel. When the first participant has called `close()` submitting its latest transaction/state, a timeout period begins during which the other party of the payment channel has to submit its latest transaction/state too. When both transaction have been submitted, and the submitted transactions/states agree, the channel immediately closes, and the consumed amount of token in the channel is transferred to the channel recipient, and the remaining amount of token is transferred back to the original sender."
      },
      "constructor": "Create a new XBR payment channel for handling microtransactions of XBR tokens.",
      "verifyTransaction(address,bytes32,bytes16,uint32,uint256,uint256,uint8,bytes32,bytes32)": {
        "notice": "Verify transaction typed data was signed by signer."
      }
    },
    "notice": "XBR Payment/Paying Channel between a XBR data consumer and the XBR market maker, or the XBR Market Maker and a XBR data provider."
  }
}