{
  "contractName": "XBRMarket",
  "abi": [
    {
      "inputs": [
        {
          "internalType": "address",
          "name": "network_",
          "type": "address"
        }
      ],
      "payable": false,
      "stateMutability": "nonpayable",
      "type": "constructor"
    },
    {
      "anonymous": false,
      "inputs": [
        {
          "indexed": true,
          "internalType": "bytes16",
          "name": "marketId",
          "type": "bytes16"
        },
        {
          "indexed": false,
          "internalType": "address",
          "name": "actor",
          "type": "address"
        },
        {
          "indexed": false,
          "internalType": "uint8",
          "name": "actorType",
          "type": "uint8"
        },
        {
          "indexed": false,
          "internalType": "uint256",
          "name": "joined",
          "type": "uint256"
        },
        {
          "indexed": false,
          "internalType": "uint256",
          "name": "security",
          "type": "uint256"
        },
        {
          "indexed": false,
          "internalType": "string",
          "name": "meta",
          "type": "string"
        }
      ],
      "name": "ActorJoined",
      "type": "event"
    },
    {
      "anonymous": false,
      "inputs": [
        {
          "indexed": true,
          "internalType": "bytes16",
          "name": "marketId",
          "type": "bytes16"
        },
        {
          "indexed": false,
          "internalType": "address",
          "name": "actor",
          "type": "address"
        },
        {
          "indexed": false,
          "internalType": "uint8",
          "name": "actorType",
          "type": "uint8"
        }
      ],
      "name": "ActorLeft",
      "type": "event"
    },
    {
      "anonymous": false,
      "inputs": [
        {
          "indexed": true,
          "internalType": "bytes16",
          "name": "marketId",
          "type": "bytes16"
        },
        {
          "indexed": false,
          "internalType": "address",
          "name": "sender",
          "type": "address"
        },
        {
          "indexed": false,
          "internalType": "address",
          "name": "delegate",
          "type": "address"
        },
        {
          "indexed": false,
          "internalType": "address",
          "name": "recipient",
          "type": "address"
        },
        {
          "indexed": false,
          "internalType": "address",
          "name": "channel",
          "type": "address"
        },
        {
          "indexed": false,
          "internalType": "enum XBRChannel.ChannelType",
          "name": "channelType",
          "type": "uint8"
        }
      ],
      "name": "ChannelCreated",
      "type": "event"
    },
    {
      "anonymous": false,
      "inputs": [
        {
          "indexed": true,
          "internalType": "address",
          "name": "account",
          "type": "address"
        }
      ],
      "name": "MaintainerAdded",
      "type": "event"
    },
    {
      "anonymous": false,
      "inputs": [
        {
          "indexed": true,
          "internalType": "address",
          "name": "account",
          "type": "address"
        }
      ],
      "name": "MaintainerRemoved",
      "type": "event"
    },
    {
      "anonymous": false,
      "inputs": [
        {
          "indexed": true,
          "internalType": "bytes16",
          "name": "marketId",
          "type": "bytes16"
        }
      ],
      "name": "MarketClosed",
      "type": "event"
    },
    {
      "anonymous": false,
      "inputs": [
        {
          "indexed": true,
          "internalType": "bytes16",
          "name": "marketId",
          "type": "bytes16"
        },
        {
          "indexed": false,
          "internalType": "uint256",
          "name": "created",
          "type": "uint256"
        },
        {
          "indexed": false,
          "internalType": "uint32",
          "name": "marketSeq",
          "type": "uint32"
        },
        {
          "indexed": false,
          "internalType": "address",
          "name": "owner",
          "type": "address"
        },
        {
          "indexed": false,
          "internalType": "string",
          "name": "terms",
          "type": "string"
        },
        {
          "indexed": false,
          "internalType": "string",
          "name": "meta",
          "type": "string"
        },
        {
          "indexed": false,
          "internalType": "address",
          "name": "maker",
          "type": "address"
        },
        {
          "indexed": false,
          "internalType": "uint256",
          "name": "providerSecurity",
          "type": "uint256"
        },
        {
          "indexed": false,
          "internalType": "uint256",
          "name": "consumerSecurity",
          "type": "uint256"
        },
        {
          "indexed": false,
          "internalType": "uint256",
          "name": "marketFee",
          "type": "uint256"
        }
      ],
      "name": "MarketCreated",
      "type": "event"
    },
    {
      "anonymous": false,
      "inputs": [
        {
          "indexed": true,
          "internalType": "bytes16",
          "name": "marketId",
          "type": "bytes16"
        },
        {
          "indexed": false,
          "internalType": "uint32",
          "name": "marketSeq",
          "type": "uint32"
        },
        {
          "indexed": false,
          "internalType": "address",
          "name": "owner",
          "type": "address"
        },
        {
          "indexed": false,
          "internalType": "string",
          "name": "terms",
          "type": "string"
        },
        {
          "indexed": false,
          "internalType": "string",
          "name": "meta",
          "type": "string"
        },
        {
          "indexed": false,
          "internalType": "address",
          "name": "maker",
          "type": "address"
        },
        {
          "indexed": false,
          "internalType": "uint256",
          "name": "providerSecurity",
          "type": "uint256"
        },
        {
          "indexed": false,
          "internalType": "uint256",
          "name": "consumerSecurity",
          "type": "uint256"
        },
        {
          "indexed": false,
          "internalType": "uint256",
          "name": "marketFee",
          "type": "uint256"
        }
      ],
      "name": "MarketUpdated",
      "type": "event"
    },
    {
      "anonymous": false,
      "inputs": [
        {
          "indexed": true,
          "internalType": "bytes16",
          "name": "marketId",
          "type": "bytes16"
        },
        {
          "indexed": false,
          "internalType": "address",
          "name": "sender",
          "type": "address"
        },
        {
          "indexed": false,
          "internalType": "address",
          "name": "recipient",
          "type": "address"
        },
        {
          "indexed": false,
          "internalType": "address",
          "name": "delegate",
          "type": "address"
        },
        {
          "indexed": false,
          "internalType": "uint256",
          "name": "amount",
          "type": "uint256"
        },
        {
          "indexed": false,
          "internalType": "uint32",
          "name": "timeout",
          "type": "uint32"
        }
      ],
      "name": "PayingChannelRequestCreated",
      "type": "event"
    },
    {
      "constant": false,
      "inputs": [
        {
          "internalType": "address",
          "name": "account",
          "type": "address"
        }
      ],
      "name": "addMaintainer",
      "outputs": [],
      "payable": false,
      "stateMutability": "nonpayable",
      "type": "function"
    },
    {
      "constant": true,
      "inputs": [
        {
          "internalType": "address",
          "name": "account",
          "type": "address"
        }
      ],
      "name": "isMaintainer",
      "outputs": [
        {
          "internalType": "bool",
          "name": "",
          "type": "bool"
        }
      ],
      "payable": false,
      "stateMutability": "view",
      "type": "function"
    },
    {
      "constant": true,
      "inputs": [
        {
          "internalType": "uint256",
          "name": "",
          "type": "uint256"
        }
      ],
      "name": "marketIds",
      "outputs": [
        {
          "internalType": "bytes16",
          "name": "",
          "type": "bytes16"
        }
      ],
      "payable": false,
      "stateMutability": "view",
      "type": "function"
    },
    {
      "constant": true,
      "inputs": [
        {
          "internalType": "bytes16",
          "name": "",
          "type": "bytes16"
        }
      ],
      "name": "markets",
      "outputs": [
        {
          "internalType": "uint256",
          "name": "created",
          "type": "uint256"
        },
        {
          "internalType": "uint32",
          "name": "marketSeq",
          "type": "uint32"
        },
        {
          "internalType": "address",
          "name": "owner",
          "type": "address"
        },
        {
          "internalType": "string",
          "name": "terms",
          "type": "string"
        },
        {
          "internalType": "string",
          "name": "meta",
          "type": "string"
        },
        {
          "internalType": "address",
          "name": "maker",
          "type": "address"
        },
        {
          "internalType": "uint256",
          "name": "providerSecurity",
          "type": "uint256"
        },
        {
          "internalType": "uint256",
          "name": "consumerSecurity",
          "type": "uint256"
        },
        {
          "internalType": "uint256",
          "name": "marketFee",
          "type": "uint256"
        }
      ],
      "payable": false,
      "stateMutability": "view",
      "type": "function"
    },
    {
      "constant": true,
      "inputs": [
        {
          "internalType": "address",
          "name": "",
          "type": "address"
        }
      ],
      "name": "marketsByMaker",
      "outputs": [
        {
          "internalType": "bytes16",
          "name": "",
          "type": "bytes16"
        }
      ],
      "payable": false,
      "stateMutability": "view",
      "type": "function"
    },
    {
      "constant": true,
      "inputs": [
        {
          "internalType": "address",
          "name": "",
          "type": "address"
        },
        {
          "internalType": "uint256",
          "name": "",
          "type": "uint256"
        }
      ],
      "name": "marketsByOwner",
      "outputs": [
        {
          "internalType": "bytes16",
          "name": "",
          "type": "bytes16"
        }
      ],
      "payable": false,
      "stateMutability": "view",
      "type": "function"
    },
    {
      "constant": true,
      "inputs": [],
      "name": "network",
      "outputs": [
        {
          "internalType": "contract XBRNetwork",
          "name": "",
          "type": "address"
        }
      ],
      "payable": false,
      "stateMutability": "view",
      "type": "function"
    },
    {
      "constant": false,
      "inputs": [],
      "name": "renounceMaintainer",
      "outputs": [],
      "payable": false,
      "stateMutability": "nonpayable",
      "type": "function"
    },
    {
      "constant": false,
      "inputs": [
        {
          "internalType": "bytes16",
          "name": "marketId",
          "type": "bytes16"
        },
        {
          "internalType": "string",
          "name": "terms",
          "type": "string"
        },
        {
          "internalType": "string",
          "name": "meta",
          "type": "string"
        },
        {
          "internalType": "address",
          "name": "maker",
          "type": "address"
        },
        {
          "internalType": "uint256",
          "name": "providerSecurity",
          "type": "uint256"
        },
        {
          "internalType": "uint256",
          "name": "consumerSecurity",
          "type": "uint256"
        },
        {
          "internalType": "uint256",
          "name": "marketFee",
          "type": "uint256"
        }
      ],
      "name": "createMarket",
      "outputs": [],
      "payable": false,
      "stateMutability": "nonpayable",
      "type": "function"
    },
    {
      "constant": true,
      "inputs": [],
      "name": "countMarkets",
      "outputs": [
        {
          "internalType": "uint256",
          "name": "",
          "type": "uint256"
        }
      ],
      "payable": false,
      "stateMutability": "view",
      "type": "function"
    },
    {
      "constant": true,
      "inputs": [
        {
          "internalType": "address",
          "name": "owner",
          "type": "address"
        },
        {
          "internalType": "uint256",
          "name": "index",
          "type": "uint256"
        }
      ],
      "name": "getMarketsByOwner",
      "outputs": [
        {
          "internalType": "bytes16",
          "name": "",
          "type": "bytes16"
        }
      ],
      "payable": false,
      "stateMutability": "view",
      "type": "function"
    },
    {
      "constant": true,
      "inputs": [
        {
          "internalType": "address",
          "name": "owner",
          "type": "address"
        }
      ],
      "name": "countMarketsByOwner",
      "outputs": [
        {
          "internalType": "uint256",
          "name": "",
          "type": "uint256"
        }
      ],
      "payable": false,
      "stateMutability": "view",
      "type": "function"
    },
    {
      "constant": true,
      "inputs": [
        {
          "internalType": "bytes16",
          "name": "marketId",
          "type": "bytes16"
        },
        {
          "internalType": "address",
          "name": "actor",
          "type": "address"
        },
        {
          "internalType": "uint8",
          "name": "actorType",
          "type": "uint8"
        }
      ],
      "name": "getMarketActor",
      "outputs": [
        {
          "internalType": "uint256",
          "name": "",
          "type": "uint256"
        },
        {
          "internalType": "uint256",
          "name": "",
          "type": "uint256"
        },
        {
          "internalType": "string",
          "name": "",
          "type": "string"
        }
      ],
      "payable": false,
      "stateMutability": "view",
      "type": "function"
    },
    {
      "constant": false,
      "inputs": [
        {
          "internalType": "bytes16",
          "name": "marketId",
          "type": "bytes16"
        },
        {
          "internalType": "uint8",
          "name": "actorType",
          "type": "uint8"
        },
        {
          "internalType": "string",
          "name": "meta",
          "type": "string"
        }
      ],
      "name": "joinMarket",
      "outputs": [
        {
          "internalType": "uint256",
          "name": "",
          "type": "uint256"
        }
      ],
      "payable": false,
      "stateMutability": "nonpayable",
      "type": "function"
    },
    {
      "constant": false,
      "inputs": [
        {
          "internalType": "address",
          "name": "member",
          "type": "address"
        },
        {
          "internalType": "uint256",
          "name": "joined",
          "type": "uint256"
        },
        {
          "internalType": "bytes16",
          "name": "marketId",
          "type": "bytes16"
        },
        {
          "internalType": "uint8",
          "name": "actorType",
          "type": "uint8"
        },
        {
          "internalType": "string",
          "name": "meta",
          "type": "string"
        },
        {
          "internalType": "bytes",
          "name": "signature",
          "type": "bytes"
        }
      ],
      "name": "joinMarketFor",
      "outputs": [
        {
          "internalType": "uint256",
          "name": "",
          "type": "uint256"
        }
      ],
      "payable": false,
      "stateMutability": "nonpayable",
      "type": "function"
    },
    {
      "constant": false,
      "inputs": [
        {
          "internalType": "bytes16",
          "name": "marketId",
          "type": "bytes16"
        },
        {
          "internalType": "address",
          "name": "recipient",
          "type": "address"
        },
        {
          "internalType": "address",
          "name": "delegate",
          "type": "address"
        },
        {
          "internalType": "uint256",
          "name": "amount",
          "type": "uint256"
        },
        {
          "internalType": "uint32",
          "name": "timeout",
          "type": "uint32"
        }
      ],
      "name": "openPaymentChannel",
      "outputs": [
        {
          "internalType": "address",
          "name": "paymentChannel",
          "type": "address"
        }
      ],
      "payable": false,
      "stateMutability": "nonpayable",
      "type": "function"
    },
    {
      "constant": false,
      "inputs": [
        {
          "internalType": "bytes16",
          "name": "marketId",
          "type": "bytes16"
        },
        {
          "internalType": "address",
          "name": "recipient",
          "type": "address"
        },
        {
          "internalType": "address",
          "name": "delegate",
          "type": "address"
        },
        {
          "internalType": "uint256",
          "name": "amount",
          "type": "uint256"
        },
        {
          "internalType": "uint32",
          "name": "timeout",
          "type": "uint32"
        }
      ],
      "name": "requestPayingChannel",
      "outputs": [],
      "payable": false,
      "stateMutability": "nonpayable",
      "type": "function"
    },
    {
      "constant": false,
      "inputs": [
        {
          "internalType": "bytes16",
          "name": "marketId",
          "type": "bytes16"
        },
        {
          "internalType": "address",
          "name": "recipient",
          "type": "address"
        },
        {
          "internalType": "address",
          "name": "delegate",
          "type": "address"
        },
        {
          "internalType": "uint256",
          "name": "amount",
          "type": "uint256"
        },
        {
          "internalType": "uint32",
          "name": "timeout",
          "type": "uint32"
        }
      ],
      "name": "openPayingChannel",
      "outputs": [
        {
          "internalType": "address",
          "name": "paymentChannel",
          "type": "address"
        }
      ],
      "payable": false,
      "stateMutability": "nonpayable",
      "type": "function"
    },
    {
      "constant": true,
      "inputs": [
        {
          "internalType": "bytes16",
          "name": "marketId",
          "type": "bytes16"
        }
      ],
      "name": "getAllMarketProviders",
      "outputs": [
        {
          "internalType": "address[]",
          "name": "",
          "type": "address[]"
        }
      ],
      "payable": false,
      "stateMutability": "view",
      "type": "function"
    },
    {
      "constant": true,
      "inputs": [
        {
          "internalType": "bytes16",
          "name": "marketId",
          "type": "bytes16"
        }
      ],
      "name": "getAllMarketConsumers",
      "outputs": [
        {
          "internalType": "address[]",
          "name": "",
          "type": "address[]"
        }
      ],
      "payable": false,
      "stateMutability": "view",
      "type": "function"
    },
    {
      "constant": true,
      "inputs": [
        {
          "internalType": "bytes16",
          "name": "marketId",
          "type": "bytes16"
        },
        {
          "internalType": "address",
          "name": "actor",
          "type": "address"
        }
      ],
      "name": "getAllPaymentChannels",
      "outputs": [
        {
          "internalType": "address[]",
          "name": "",
          "type": "address[]"
        }
      ],
      "payable": false,
      "stateMutability": "view",
      "type": "function"
    },
    {
      "constant": true,
      "inputs": [
        {
          "internalType": "bytes16",
          "name": "marketId",
          "type": "bytes16"
        },
        {
          "internalType": "address",
          "name": "actor",
          "type": "address"
        }
      ],
      "name": "getAllPayingChannels",
      "outputs": [
        {
          "internalType": "address[]",
          "name": "",
          "type": "address[]"
        }
      ],
      "payable": false,
      "stateMutability": "view",
      "type": "function"
    },
    {
      "constant": true,
      "inputs": [
        {
          "internalType": "bytes16",
          "name": "marketId",
          "type": "bytes16"
        },
        {
          "internalType": "address",
          "name": "delegate",
          "type": "address"
        }
      ],
      "name": "currentPaymentChannelByDelegate",
      "outputs": [
        {
          "internalType": "address",
          "name": "",
          "type": "address"
        }
      ],
      "payable": false,
      "stateMutability": "view",
      "type": "function"
    },
    {
      "constant": true,
      "inputs": [
        {
          "internalType": "bytes16",
          "name": "marketId",
          "type": "bytes16"
        },
        {
          "internalType": "address",
          "name": "delegate",
          "type": "address"
        }
      ],
      "name": "currentPayingChannelByDelegate",
      "outputs": [
        {
          "internalType": "address",
          "name": "",
          "type": "address"
        }
      ],
      "payable": false,
      "stateMutability": "view",
      "type": "function"
    }
  ],
  "bytecode": "0x60806040526001805463ffffffff60a01b1916600160a01b1790553480156200002757600080fd5b5060405162005ff138038062005ff18339810160408190526200004a9162000195565b6200005e336001600160e01b036200008416565b600180546001600160a01b0319166001600160a01b039290921691909117905562000298565b6200009f816000620000d660201b620033f01790919060201c565b6040516001600160a01b038216907f1390a149489c82e9e2e89927bdb17ad1ea3f0cc314fce06c96369721d3afb8f090600090a250565b620000eb82826001600160e01b036200013916565b15620001145760405162461bcd60e51b81526004016200010b906200023f565b60405180910390fd5b6001600160a01b0316600090815260209190915260409020805460ff19166001179055565b60006001600160a01b038216620001645760405162461bcd60e51b81526004016200010b9062000251565b506001600160a01b03811660009081526020839052604090205460ff165b92915050565b805162000182816200027e565b600060208284031215620001a857600080fd5b6000620001b6848462000188565b949350505050565b6000620001cd601f8362000263565b7f526f6c65733a206163636f756e7420616c72656164792068617320726f6c6500815260200192915050565b60006200020860228362000263565b7f526f6c65733a206163636f756e7420697320746865207a65726f206164647265815261737360f01b602082015260400192915050565b602080825281016200018281620001be565b602080825281016200018281620001f9565b90815260200190565b60006001600160a01b03821662000182565b62000289816200026c565b81146200029557600080fd5b50565b615d4980620002a86000396000f3fe60806040523480156200001157600080fd5b5060043610620001785760003560e01c8063779a968311620000d5578063b4381fd31162000087578063b4381fd3146200035b578063db1858401462000389578063dd57366a14620003a0578063df21d34214620003c6578063f513181814620003dd578063fb58c7c314620003f45762000178565b8063779a968314620002c05780637ba5c48d14620002d75780638020170214620002ee5780638edb314f14620003055780639fa7a6aa146200032d578063a65db4da14620003445762000178565b80634e01967b116200012f5780634e01967b146200022557806352cf82e8146200024b5780635ef7588014620002625780636739afca14620002795780636b453c1f1462000292578063710ccb3814620002a95762000178565b80631290cc1a146200017d5780631b223eab14620001ac578063287c05a214620001d2578063314db06b14620001e9578063329a404714620001f55780634d88ee3e146200021b575b600080fd5b620001946200018e366004620036a9565b6200040b565b604051620001a39190620045c4565b60405180910390f35b620001c3620001bd3660046200383a565b62000420565b604051620001a391906200459a565b62000194620001e3366004620036f3565b620004b2565b620001f3620004f6565b005b6200020c62000206366004620036a9565b62000503565b604051620001a39190620047ca565b6200020c62000522565b6200023c620002363660046200386f565b62000529565b604051620001a3919062004344565b620001c36200025c3660046200383a565b62000bd1565b620001f3620002733660046200386f565b62000c60565b6200028362000f43565b604051620001a39190620045d4565b620001f3620002a3366004620036a9565b62000f52565b620001f3620002ba36600462003943565b62000f75565b62000194620002d136600462003aa4565b62001778565b620001c3620002e836600462003819565b620017ad565b6200023c620002ff3660046200386f565b62001829565b6200031c62000316366004620038ef565b62001f37565b604051620001a393929190620047da565b6200023c6200033e3660046200383a565b62002141565b6200023c620003553660046200383a565b62002179565b620003726200036c36600462003819565b620021b1565b604051620001a399989796959493929190620048b3565b6200020c6200039a36600462003732565b6200232e565b620003b7620003b1366004620036a9565b62002bac565b604051620001a39190620045b4565b620001c3620003d736600462003819565b62002bc0565b62000194620003ee366004620036f3565b62002c3a565b6200020c6200040536600462003a20565b62002c8a565b60046020526000908152604090205460801b81565b6001600160801b0319821660009081526002602090815260408083206001600160a01b0385168452600b01825291829020600301805483518184028101840190945280845260609392830182828015620004a457602002820191906000526020600020905b81546001600160a01b0316815260019091019060200180831162000485575b505050505090505b92915050565b60056020528160005260406000208181548110620004cc57fe5b9060005260206000209060029182820401919006601002915091509054906101000a900460801b81565b6200050133620032c4565b565b6001600160a01b0381166000908152600560205260409020545b919050565b6003545b90565b6001600160801b03198516600090815260026020526040812060010154600160201b90046001600160a01b03166200057e5760405162461bcd60e51b8152600401620005759062004716565b60405180910390fd5b6001600160801b031986166000908152600260205260409020600401546001600160a01b03163314620005c55760405162461bcd60e51b81526004016200057590620046e0565b6001600160801b0319861660009081526002602090815260408083206001600160a01b0389168452600a0190915290205460ff16620006185760405162461bcd60e51b81526004016200057590620046ce565b6001600160a01b038416620006415760405162461bcd60e51b8152600401620005759062004608565b6000831180156200074f5750600160009054906101000a90046001600160a01b03166001600160a01b031663fc0c546a6040518163ffffffff1660e01b815260040160206040518083038186803b1580156200069c57600080fd5b505afa158015620006b1573d6000803e3d6000fd5b505050506040513d601f19601f82011682018060405250620006d7919081019062003a83565b6001600160a01b03166318160ddd6040518163ffffffff1660e01b815260040160206040518083038186803b1580156200071057600080fd5b505afa15801562000725573d6000803e3d6000fd5b505050506040513d601f19601f820116820180604052506200074b919081019062003ac5565b8311155b6200076e5760405162461bcd60e51b81526004016200057590620045f6565b620d2f008263ffffffff1610620007995760405162461bcd60e51b815260040162000575906200475e565b600154604080516311dea6bd60e11b815290516000926001600160a01b0316916323bd4d7a916004808301926020929190829003018186803b158015620007df57600080fd5b505afa158015620007f4573d6000803e3d6000fd5b505050506040513d601f19601f820116820180604052506200081a9190810190620036d2565b6001546001600160801b031989166000908152600260208190526040918290206004015491516001600160a01b039384169330938d9391169133918c918e918d918d9190620008699062003441565b6200087f9b9a9998979695949392919062004486565b604051809103906000f0801580156200089c573d6000803e3d6000fd5b5090506000600160009054906101000a90046001600160a01b03166001600160a01b031663fc0c546a6040518163ffffffff1660e01b815260040160206040518083038186803b158015620008f057600080fd5b505afa15801562000905573d6000803e3d6000fd5b505050506040513d601f19601f820116820180604052506200092b919081019062003a83565b6001600160a01b03166323b872dd3384886040518463ffffffff1660e01b81526004016200095c93929190620043b0565b602060405180830381600087803b1580156200097757600080fd5b505af11580156200098c573d6000803e3d6000fd5b505050506040513d601f19601f82011682018060405250620009b29190810190620037f8565b905080620009d45760405162461bcd60e51b8152600401620005759062004794565b6001600160801b0319881660008181526002602090815260408083206001600160a01b038c81168552600a909101835281842060030180546001810182559085529383902090930180546001600160a01b031916938716938417905580516333f2026760e11b815290517f734f20c5aed5a81ff57bd83ec575d094a7846b1e3fcd2e8e39b030afc2a2890493926367e404ce9260048082019391829003018186803b15801562000a8357600080fd5b505afa15801562000a98573d6000803e3d6000fd5b505050506040513d601f19601f8201168201806040525062000abe9190810190620036d2565b846001600160a01b031663c89e43616040518163ffffffff1660e01b815260040160206040518083038186803b15801562000af857600080fd5b505afa15801562000b0d573d6000803e3d6000fd5b505050506040513d601f19601f8201168201806040525062000b339190810190620036d2565b856001600160a01b03166366d003ac6040518163ffffffff1660e01b815260040160206040518083038186803b15801562000b6d57600080fd5b505afa15801562000b82573d6000803e3d6000fd5b505050506040513d601f19601f8201168201806040525062000ba89190810190620036d2565b86600260405162000bbe9594939291906200443a565b60405180910390a2509695505050505050565b6001600160801b0319821660009081526002602090815260408083206001600160a01b0385168452600a01825291829020600301805483518184028101840190945280845260609392830182828015620004a4576020028201919060005260206000209081546001600160a01b0316815260019091019060200180831162000485575050505050905092915050565b6001600160801b03198516600090815260026020526040902060010154600160201b90046001600160a01b031662000cac5760405162461bcd60e51b8152600401620005759062004716565b6001600160801b031985166000908152600260205260409020600401546001600160a01b031662000cf15760405162461bcd60e51b8152600401620005759062004698565b336001600160a01b0385161462000d1c5760405162461bcd60e51b8152600401620005759062004770565b6001600160801b0319851660009081526002602090815260408083206001600160a01b0388168452600a0190915290205460ff1662000d6f5760405162461bcd60e51b81526004016200057590620046ce565b6001600160a01b03831662000d985760405162461bcd60e51b8152600401620005759062004608565b60008211801562000ea65750600160009054906101000a90046001600160a01b03166001600160a01b031663fc0c546a6040518163ffffffff1660e01b815260040160206040518083038186803b15801562000df357600080fd5b505afa15801562000e08573d6000803e3d6000fd5b505050506040513d601f19601f8201168201806040525062000e2e919081019062003a83565b6001600160a01b03166318160ddd6040518163ffffffff1660e01b815260040160206040518083038186803b15801562000e6757600080fd5b505afa15801562000e7c573d6000803e3d6000fd5b505050506040513d601f19601f8201168201806040525062000ea2919081019062003ac5565b8211155b62000ec55760405162461bcd60e51b81526004016200057590620045f6565b620d2f008163ffffffff161062000ef05760405162461bcd60e51b815260040162000575906200475e565b846001600160801b0319167f1c3be017379c486bade742062ae83c3a0a25974e898e26fd98a221d0c53d9dca338686868660405162000f3495949392919062004364565b60405180910390a25050505050565b6001546001600160a01b031681565b62000f5d3362002bac565b62000f6757600080fd5b62000f72816200330e565b50565b60015460405163022b92c360e21b81526000916001600160a01b0316906308ae4b0c9062000fa890339060040162004354565b60006040518083038186803b15801562000fc157600080fd5b505afa15801562000fd6573d6000803e3d6000fd5b505050506040513d6000823e601f3d908101601f1916820160405262001000919081019062003ae6565b5093506001925062001010915050565b8160058111156200101d57fe5b148062001036575060028160058111156200103457fe5b145b620010555760405162461bcd60e51b8152600401620005759062004674565b6001600160801b03198816600090815260026020526040902060010154600160201b90046001600160a01b031615620010a25760405162461bcd60e51b815260040162000575906200462c565b6001600160a01b038516620010cb5760405162461bcd60e51b8152600401620005759062004662565b6001600160a01b03851660009081526004602052604090205460801b6001600160801b03191615620011115760405162461bcd60e51b8152600401620005759062004650565b600160009054906101000a90046001600160a01b03166001600160a01b031663fc0c546a6040518163ffffffff1660e01b815260040160206040518083038186803b1580156200116057600080fd5b505afa15801562001175573d6000803e3d6000fd5b505050506040513d601f19601f820116820180604052506200119b919081019062003a83565b6001600160a01b03166318160ddd6040518163ffffffff1660e01b815260040160206040518083038186803b158015620011d457600080fd5b505afa158015620011e9573d6000803e3d6000fd5b505050506040513d601f19601f820116820180604052506200120f919081019062003ac5565b841115620012315760405162461bcd60e51b81526004016200057590620047a6565b600160009054906101000a90046001600160a01b03166001600160a01b031663fc0c546a6040518163ffffffff1660e01b815260040160206040518083038186803b1580156200128057600080fd5b505afa15801562001295573d6000803e3d6000fd5b505050506040513d601f19601f82011682018060405250620012bb919081019062003a83565b6001600160a01b03166318160ddd6040518163ffffffff1660e01b815260040160206040518083038186803b158015620012f457600080fd5b505afa15801562001309573d6000803e3d6000fd5b505050506040513d601f19601f820116820180604052506200132f919081019062003ac5565b831115620013515760405162461bcd60e51b8152600401620005759062004728565b60015460408051637e062a3560e11b8152905162989680926001600160a01b03169163fc0c546a916004808301926020929190829003018186803b1580156200139957600080fd5b505afa158015620013ae573d6000803e3d6000fd5b505050506040513d601f19601f82011682018060405250620013d4919081019062003a83565b6001600160a01b03166318160ddd6040518163ffffffff1660e01b815260040160206040518083038186803b1580156200140d57600080fd5b505afa15801562001422573d6000803e3d6000fd5b505050506040513d601f19601f8201168201806040525062001448919081019062003ac5565b03670de0b6b3a7640000028210620014745760405162461bcd60e51b8152600401620005759062004782565b604080516101608101825242808252600154600160a01b900463ffffffff166020808401919091523383850152606083018b9052608083018a90526001600160a01b03891660a084015260c0830188905260e08301879052610100830186905283516000808252818301865261012085019190915284518181529182019094529092610140830191905090526001600160801b03198a166000908152600260208181526040928390208451815584820151600182018054958701516001600160a01b0316600160201b02640100000000600160c01b031963ffffffff90931663ffffffff1990971696909617919091169490941790935560608401518051620015859385019291909101906200344f565b5060808201518051620015a39160038401916020909101906200344f565b5060a08201516004820180546001600160a01b0319166001600160a01b0390921691909117905560c0820151600582015560e082015160068201556101008201516007820155610120820151805162001607916008840191602090910190620034d4565b50610140820151805162001626916009840191602090910190620034d4565b5050506001600160a01b0386166000908152600460209081526040808320805460808e901c6001600160801b031991821681179092553380865260058552838620805460018181018355918852958720600280880490910180546010988416890261010090810a8089026001600160801b0391820219909316929092179092556003805480860182559a529189047fc2575a0e9e593c00f959f8c92f12db2869c3395a3b0502d05e2516446f71f85b018054998416909802900a94850294021990961692909217909355835463ffffffff600160a01b808304821687018216810263ffffffff60a01b1990931692909217958690559251938e16947fb0f9176e0c4d7b9658b3643d301e03f043c0ab868721078cd02536725f04f45494620017659488949390920490911691908e908e908e908e908e908e906200480d565b60405180910390a2505050505050505050565b600381815481106200178657fe5b9060005260206000209060029182820401919006601002915054906101000a900460801b81565b6001600160801b031981166000908152600260209081526040918290206008018054835181840281018401909452808452606093928301828280156200181d57602002820191906000526020600020905b81546001600160a01b03168152600190910190602001808311620017fe575b50505050509050919050565b6001600160801b03198516600090815260026020526040812060010154600160201b90046001600160a01b0316620018755760405162461bcd60e51b8152600401620005759062004716565b6001600160801b031986166000908152600260209081526040808320338452600b0190915290205460ff16620018bf5760405162461bcd60e51b815260040162000575906200461a565b6001600160801b031986166000908152600260205260409020600101546001600160a01b03868116600160201b9092041614620019105760405162461bcd60e51b81526004016200057590620046f2565b6001600160a01b038416620019395760405162461bcd60e51b8152600401620005759062004608565b60008311801562001a475750600160009054906101000a90046001600160a01b03166001600160a01b031663fc0c546a6040518163ffffffff1660e01b815260040160206040518083038186803b1580156200199457600080fd5b505afa158015620019a9573d6000803e3d6000fd5b505050506040513d601f19601f82011682018060405250620019cf919081019062003a83565b6001600160a01b03166318160ddd6040518163ffffffff1660e01b815260040160206040518083038186803b15801562001a0857600080fd5b505afa15801562001a1d573d6000803e3d6000fd5b505050506040513d601f19601f8201168201806040525062001a43919081019062003ac5565b8311155b62001a665760405162461bcd60e51b81526004016200057590620045f6565b620d2f008263ffffffff161062001a915760405162461bcd60e51b815260040162000575906200475e565b600154604080516311dea6bd60e11b815290516000926001600160a01b0316916323bd4d7a916004808301926020929190829003018186803b15801562001ad757600080fd5b505afa15801562001aec573d6000803e3d6000fd5b505050506040513d601f19601f8201168201806040525062001b129190810190620036d2565b600160009054906101000a90046001600160a01b03166001600160a01b031663fc0c546a6040518163ffffffff1660e01b815260040160206040518083038186803b15801562001b6157600080fd5b505afa15801562001b76573d6000803e3d6000fd5b505050506040513d601f19601f8201168201806040525062001b9c919081019062003a83565b6001600160801b031989166000908152600260205260409081902060040154905130918b916001600160a01b039091169033908b908d908c908c9060019062001be59062003441565b62001bfb9b9a9998979695949392919062004486565b604051809103906000f08015801562001c18573d6000803e3d6000fd5b5090506000600160009054906101000a90046001600160a01b03166001600160a01b031663fc0c546a6040518163ffffffff1660e01b815260040160206040518083038186803b15801562001c6c57600080fd5b505afa15801562001c81573d6000803e3d6000fd5b505050506040513d601f19601f8201168201806040525062001ca7919081019062003a83565b6001600160a01b03166323b872dd3384886040518463ffffffff1660e01b815260040162001cd893929190620043b0565b602060405180830381600087803b15801562001cf357600080fd5b505af115801562001d08573d6000803e3d6000fd5b505050506040513d601f19601f8201168201806040525062001d2e9190810190620037f8565b90508062001d505760405162461bcd60e51b8152600401620005759062004794565b6001600160801b031988166000818152600260209081526040808320338452600b01825280832060030180546001810182559084529282902090920180546001600160a01b0319166001600160a01b03871690811790915582516333f2026760e11b815292517f734f20c5aed5a81ff57bd83ec575d094a7846b1e3fcd2e8e39b030afc2a289049391926367e404ce9260048082019391829003018186803b15801562001dfc57600080fd5b505afa15801562001e11573d6000803e3d6000fd5b505050506040513d601f19601f8201168201806040525062001e379190810190620036d2565b846001600160a01b031663c89e43616040518163ffffffff1660e01b815260040160206040518083038186803b15801562001e7157600080fd5b505afa15801562001e86573d6000803e3d6000fd5b505050506040513d601f19601f8201168201806040525062001eac9190810190620036d2565b856001600160a01b03166366d003ac6040518163ffffffff1660e01b815260040160206040518083038186803b15801562001ee657600080fd5b505afa15801562001efb573d6000803e3d6000fd5b505050506040513d601f19601f8201168201806040525062001f219190810190620036d2565b86600160405162000bbe9594939291906200443a565b6001600160801b031983166000908152600260205260408120600101548190606090600160201b90046001600160a01b031662001f885760405162461bcd60e51b8152600401620005759062004716565b60ff84166001148062001f9e575060ff84166002145b62001fbd5760405162461bcd60e51b815260040162000575906200463e565b60ff841660021415620020a1576001600160801b0319861660009081526002602081815260408084206001600160a01b038a168552600b018252928390208054600180830154838601805488519381161561010002600019011696909604601f8101869004860283018601909752868252929591949293909183918301828280156200208d5780601f1062002061576101008083540402835291602001916200208d565b820191906000526020600020905b8154815290600101906020018083116200206f57829003601f168201915b505050505090509350935093505062002138565b6001600160801b0319861660009081526002602081815260408084206001600160a01b038a168552600a018252928390208054600180830154838601805488519381161561010002600019011696909604601f8101869004860283018601909752868252929591949293909183918301828280156200208d5780601f1062002061576101008083540402835291602001916200208d565b93509350939050565b6001600160801b03199190911660009081526002602090815260408083206001600160a01b039485168452600d019091529020541690565b6001600160801b03199190911660009081526002602090815260408083206001600160a01b039485168452600c019091529020541690565b6002602081815260009283526040928390208054600180830154838601805488516101009482161594909402600019011696909604601f8101869004860283018601909752868252919563ffffffff831695600160201b9093046001600160a01b0316949192918301828280156200226d5780601f1062002241576101008083540402835291602001916200226d565b820191906000526020600020905b8154815290600101906020018083116200224f57829003601f168201915b5050505060038301805460408051602060026001851615610100026000190190941693909304601f8101849004840282018401909252818152949594935090830182828015620023015780601f10620022d55761010080835404028352916020019162002301565b820191906000526020600020905b815481529060010190602001808311620022e357829003601f168201915b5050505060048301546005840154600685015460079095015493946001600160a01b039092169390925089565b60015460405163022b92c360e21b815260009182916001600160a01b03909116906308ae4b0c906200236590339060040162004354565b60006040518083038186803b1580156200237e57600080fd5b505afa15801562002393573d6000803e3d6000fd5b505050506040513d6000823e601f3d908101601f19168201604052620023bd919081019062003ae6565b50935060019250620023cd915050565b816005811115620023da57fe5b14620023fa5760405162461bcd60e51b8152600401620005759062004674565b6001600160801b03198616600090815260026020526040902060010154600160201b90046001600160a01b0316620024465760405162461bcd60e51b8152600401620005759062004716565b6001600160801b031986166000908152600260205260409020600101546001600160a01b03898116600160201b909204161415620024985760405162461bcd60e51b81526004016200057590620047b8565b60ff851660011480620024ae575060ff85166002145b620024cd5760405162461bcd60e51b815260040162000575906200463e565b600060ff86166001141562002554576001600160801b0319871660009081526002602090815260408083206001600160a01b038d168452600a0190915290205460ff1615620025305760405162461bcd60e51b815260040162000575906200473a565b506001600160801b03198616600090815260026020526040902060050154620025c7565b6001600160801b0319871660009081526002602090815260408083206001600160a01b038d168452600b0190915290205460ff1615620025a85760405162461bcd60e51b81526004016200057590620046bc565b506001600160801b031986166000908152600260205260409020600601545b73__XBRTypes______________________________63bc0625328a6040518060e00160405280600160009054906101000a90046001600160a01b03166001600160a01b03166359c8e6036040518163ffffffff1660e01b815260040160206040518083038186803b1580156200263c57600080fd5b505afa15801562002651573d6000803e3d6000fd5b505050506040513d601f19601f8201168201806040525062002677919081019062003ac5565b81526001546040805163a787d61b60e01b815290516020938401936001600160a01b039093169263a787d61b9260048082019391829003018186803b158015620026c057600080fd5b505afa158015620026d5573d6000803e3d6000fd5b505050506040513d601f19601f82011682018060405250620026fb9190810190620036d2565b6001600160a01b031681526020018d6001600160a01b031681526020018c81526020018b6001600160801b03191681526020018a60ff16815260200189815250876040518463ffffffff1660e01b81526004016200275c9392919062004550565b60206040518083038186803b1580156200277557600080fd5b505af41580156200278a573d6000803e3d6000fd5b505050506040513d601f19601f82011682018060405250620027b09190810190620037f8565b620027cf5760405162461bcd60e51b8152600401620005759062004686565b80156200292c5760015460408051637e062a3560e11b815290516000926001600160a01b03169163fc0c546a916004808301926020929190829003018186803b1580156200281c57600080fd5b505afa15801562002831573d6000803e3d6000fd5b505050506040513d601f19601f8201168201806040525062002857919081019062003a83565b6001600160801b03198916600090815260026020526040908190206001015490516323b872dd60e01b81526001600160a01b03928316926323b872dd92620028b2928f92600160201b90920490911690879060040162004540565b602060405180830381600087803b158015620028cd57600080fd5b505af1158015620028e2573d6000803e3d6000fd5b505050506040513d601f19601f82011682018060405250620029089190810190620037f8565b9050806200292a5760405162461bcd60e51b815260040162000575906200474c565b505b60ff86166001141562002a48576040518060800160405280898152602001828152602001868152602001600060405190808252806020026020018201604052801562002982578160200160208202803883390190505b5090526001600160801b0319881660009081526002602081815260408084206001600160a01b038f168552600a0182529283902084518155848201516001820155928401518051620029dc9385019291909101906200344f565b5060608201518051620029fa916003840191602090910190620034d4565b5050506001600160801b0319871660009081526002602090815260408220600801805460018101825590835291200180546001600160a01b0319166001600160a01b038b1617905562002b52565b6040518060800160405280898152602001828152602001868152602001600060405190808252806020026020018201604052801562002a91578160200160208202803883390190505b5090526001600160801b0319881660009081526002602081815260408084206001600160a01b038f168552600b018252928390208451815584820151600182015592840151805162002aeb9385019291909101906200344f565b506060820151805162002b09916003840191602090910190620034d4565b5050506001600160801b0319871660009081526002602090815260408220600901805460018101825590835291200180546001600160a01b0319166001600160a01b038b161790555b866001600160801b0319167f7c37cc18b0d70854a11abeed873f3c5dea809a2b3522ff30f58ba8e6a04cdc7b8a888b858a60405162002b969594939291906200458a565b60405180910390a29150505b9695505050505050565b6000620004ac818363ffffffff6200335816565b6001600160801b031981166000908152600260209081526040918290206009018054835181840281018401909452808452606093928301828280156200181d576020028201919060005260206000209081546001600160a01b03168152600190910190602001808311620017fe5750505050509050919050565b6001600160a01b038216600090815260056020526040812080548390811062002c5f57fe5b90600052602060002090600291828204019190066010029054906101000a900460801b905092915050565b60015460405163022b92c360e21b815260009182916001600160a01b03909116906308ae4b0c9062002cc190339060040162004354565b60006040518083038186803b15801562002cda57600080fd5b505afa15801562002cef573d6000803e3d6000fd5b505050506040513d6000823e601f3d908101601f1916820160405262002d19919081019062003ae6565b5093506001925062002d29915050565b81600581111562002d3657fe5b1462002d565760405162461bcd60e51b8152600401620005759062004674565b6001600160801b03198516600090815260026020526040902060010154600160201b90046001600160a01b031662002da25760405162461bcd60e51b8152600401620005759062004716565b6001600160801b03198516600090815260026020526040902060010154600160201b90046001600160a01b031633141562002df15760405162461bcd60e51b81526004016200057590620047b8565b60ff84166001148062002e07575060ff84166002145b62002e265760405162461bcd60e51b815260040162000575906200463e565b600060ff85166001141562002ea4576001600160801b031986166000908152600260209081526040808320338452600a0190915290205460ff161562002e805760405162461bcd60e51b815260040162000575906200473a565b506001600160801b0319851660009081526002602052604090206005015462002f0e565b6001600160801b031986166000908152600260209081526040808320338452600b0190915290205460ff161562002eef5760405162461bcd60e51b81526004016200057590620046bc565b506001600160801b031985166000908152600260205260409020600601545b80156200306b5760015460408051637e062a3560e11b815290516000926001600160a01b03169163fc0c546a916004808301926020929190829003018186803b15801562002f5b57600080fd5b505afa15801562002f70573d6000803e3d6000fd5b505050506040513d601f19601f8201168201806040525062002f96919081019062003a83565b6001600160801b03198816600090815260026020526040908190206001015490516323b872dd60e01b81526001600160a01b03928316926323b872dd9262002ff1923392600160201b909204909116908790600401620043b0565b602060405180830381600087803b1580156200300c57600080fd5b505af115801562003021573d6000803e3d6000fd5b505050506040513d601f19601f82011682018060405250620030479190810190620037f8565b905080620030695760405162461bcd60e51b815260040162000575906200474c565b505b4260ff861660011415620031765760405180608001604052808281526020018381526020018681526020016000604051908082528060200260200182016040528015620030c2578160200160208202803883390190505b5090526001600160801b031988166000908152600260208181526040808420338552600a0182529283902084518155848201516001820155928401518051620031139385019291909101906200344f565b506060820151805162003131916003840191602090910190620034d4565b5050506001600160801b0319871660009081526002602090815260408220600801805460018101825590835291200180546001600160a01b031916331790556200326e565b60405180608001604052808281526020018381526020018681526020016000604051908082528060200260200182016040528015620031bf578160200160208202803883390190505b5090526001600160801b031988166000908152600260208181526040808420338552600b0182529283902084518155848201516001820155928401518051620032109385019291909101906200344f565b50606082015180516200322e916003840191602090910190620034d4565b5050506001600160801b0319871660009081526002602090815260408220600901805460018101825590835291200180546001600160a01b031916331790555b866001600160801b0319167f7c37cc18b0d70854a11abeed873f3c5dea809a2b3522ff30f58ba8e6a04cdc7b338884868a604051620032b2959493929190620043de565b60405180910390a25095945050505050565b620032d760008263ffffffff620033a316565b6040516001600160a01b038216907fa7b36d52bea726c3aa90d876d0e52a1089a347b3e3408a03f08eae32f96fdbb490600090a250565b6200332160008263ffffffff620033f016565b6040516001600160a01b038216907f1390a149489c82e9e2e89927bdb17ad1ea3f0cc314fce06c96369721d3afb8f090600090a250565b60006001600160a01b038216620033835760405162461bcd60e51b8152600401620005759062004704565b506001600160a01b03166000908152602091909152604090205460ff1690565b620033af828262003358565b620033ce5760405162461bcd60e51b81526004016200057590620046aa565b6001600160a01b0316600090815260209190915260409020805460ff19169055565b620033fc828262003358565b156200341c5760405162461bcd60e51b81526004016200057590620045e4565b6001600160a01b0316600090815260209190915260409020805460ff19166001179055565b6112988062004a6f83390190565b828054600181600116156101000203166002900490600052602060002090601f016020900481019282601f106200349257805160ff1916838001178555620034c2565b82800160010185558215620034c2579182015b82811115620034c2578251825591602001919060010190620034a5565b50620034d09291506200353a565b5090565b8280548282559060005260206000209081019282156200352c579160200282015b828111156200352c57825182546001600160a01b0319166001600160a01b03909116178255602090920191600190910190620034f5565b50620034d092915062003557565b6200052691905b80821115620034d0576000815560010162003541565b6200052691905b80821115620034d05780546001600160a01b03191681556001016200355e565b8035620004ac8162004a07565b8051620004ac8162004a07565b8051620004ac8162004a1e565b8035620004ac8162004a29565b600082601f830112620035c457600080fd5b8151620035db620035d5826200490a565b620048e2565b91508082526020830160208301858383011115620035f857600080fd5b62003605838284620049bf565b50505092915050565b600082601f8301126200362057600080fd5b813562003631620035d5826200490a565b915080825260208301602083018583830111156200364e57600080fd5b62003605838284620049b3565b8051620004ac8162004a34565b8051620004ac8162004a3f565b8035620004ac8162004a4d565b8051620004ac8162004a4d565b8035620004ac8162004a58565b8035620004ac8162004a63565b600060208284031215620036bc57600080fd5b6000620036ca84846200357e565b949350505050565b600060208284031215620036e557600080fd5b6000620036ca84846200358b565b600080604083850312156200370757600080fd5b60006200371585856200357e565b9250506020620037288582860162003675565b9150509250929050565b60008060008060008060c087890312156200374c57600080fd5b60006200375a89896200357e565b96505060206200376d89828a0162003675565b95505060406200378089828a01620035a5565b94505060606200379389828a016200369c565b935050608087013567ffffffffffffffff811115620037b157600080fd5b620037bf89828a016200360e565b92505060a087013567ffffffffffffffff811115620037dd57600080fd5b620037eb89828a016200360e565b9150509295509295509295565b6000602082840312156200380b57600080fd5b6000620036ca848462003598565b6000602082840312156200382c57600080fd5b6000620036ca8484620035a5565b600080604083850312156200384e57600080fd5b60006200385c8585620035a5565b925050602062003728858286016200357e565b600080600080600060a086880312156200388857600080fd5b6000620038968888620035a5565b9550506020620038a9888289016200357e565b9450506040620038bc888289016200357e565b9350506060620038cf8882890162003675565b9250506080620038e2888289016200368f565b9150509295509295909350565b6000806000606084860312156200390557600080fd5b6000620039138686620035a5565b935050602062003926868287016200357e565b925050604062003939868287016200369c565b9150509250925092565b600080600080600080600060e0888a0312156200395f57600080fd5b60006200396d8a8a620035a5565b975050602088013567ffffffffffffffff8111156200398b57600080fd5b620039998a828b016200360e565b965050604088013567ffffffffffffffff811115620039b757600080fd5b620039c58a828b016200360e565b9550506060620039d88a828b016200357e565b9450506080620039eb8a828b0162003675565b93505060a0620039fe8a828b0162003675565b92505060c062003a118a828b0162003675565b91505092959891949750929550565b60008060006060848603121562003a3657600080fd5b600062003a448686620035a5565b935050602062003a57868287016200369c565b925050604084013567ffffffffffffffff81111562003a7557600080fd5b62003939868287016200360e565b60006020828403121562003a9657600080fd5b6000620036ca84846200365b565b60006020828403121562003ab757600080fd5b6000620036ca848462003675565b60006020828403121562003ad857600080fd5b6000620036ca848462003682565b600080600080600060a0868803121562003aff57600080fd5b600062003b0d888862003682565b955050602086015167ffffffffffffffff81111562003b2b57600080fd5b62003b3988828901620035b2565b945050604086015167ffffffffffffffff81111562003b5757600080fd5b62003b6588828901620035b2565b935050606062003b788882890162003668565b925050608086015167ffffffffffffffff81111562003b9657600080fd5b620038e288828901620035b2565b600062003bb2838362003bcb565b505060200190565b62003bc58162004999565b82525050565b62003bc58162004946565b600062003be38262004939565b62003bef81856200493d565b935062003bfc8362004933565b8060005b8381101562003c3057815162003c17888262003ba4565b975062003c248362004933565b92505060010162003c00565b509495945050505050565b62003bc58162004953565b62003bc58162004958565b600062003c5e8262004939565b62003c6a81856200493d565b935062003c7c818560208601620049bf565b62003c8781620049f2565b9093019392505050565b62003bc58162004965565b62003bc581620049a6565b600062003cb6601f836200493d565b7f526f6c65733a206163636f756e7420616c72656164792068617320726f6c6500815260200192915050565b600062003cf16016836200493d565b751253959053125117d0d2105393915317d05353d5539560521b815260200192915050565b600062003d256018836200493d565b7f494e56414c49445f4348414e4e454c5f44454c45474154450000000000000000815260200192915050565b600062003d606010836200493d565b6f4e4f5f434f4e53554d45525f524f4c4560801b815260200192915050565b600062003d8e6015836200493d565b744d41524b45545f414c52454144595f45584953545360581b815260200192915050565b600062003dc16012836200493d565b71494e56414c49445f4143544f525f5459504560701b815260200192915050565b600062003df16026836200493d565b7f4d414b45525f414c52454144595f574f524b494e475f464f525f4f544845525f81526513505492d15560d21b602082015260400192915050565b600062003e3b600d836200493d565b6c24a72b20a624a22fa6a0a5a2a960991b815260200192915050565b600062003e666013836200493d565b7229a2a72222a92fa727aa2fa0afa6a2a6a122a960691b815260200192915050565b600062003e97601d836200493d565b7f494e56414c49445f4d41524b45545f4a4f494e5f5349474e4154555245000000815260200192915050565b600062003ed26016836200493d565b752727afa0a1aa24ab22afa6a0a925a2aa2fa6a0a5a2a960511b815260200192915050565b600062003f066021836200493d565b7f526f6c65733a206163636f756e7420646f6573206e6f74206861766520726f6c8152606560f81b602082015260400192915050565b600062003f4b601a836200493d565b7f414c52454144595f4a4f494e45445f41535f434f4e53554d4552000000000000815260200192915050565b600062003f866016836200493d565b752922a1a4a824a2a72a2fa727aa2fa82927ab24a222a960511b815260200192915050565b600062003fba6010836200493d565b6f29a2a72222a92fa727aa2fa6a0a5a2a960811b815260200192915050565b600062003fe86019836200493d565b7f494e56414c49445f4348414e4e454c5f524543495049454e5400000000000000815260200192915050565b6000620040236022836200493d565b7f526f6c65733a206163636f756e7420697320746865207a65726f206164647265815261737360f01b602082015260400192915050565b600062004069600e836200493d565b6d1393d7d4d550d217d3505492d15560921b815260200192915050565b6000620040956019836200493d565b7f494e56414c49445f434f4e53554d45525f534543555249545900000000000000815260200192915050565b6000620040d0601a836200493d565b7f414c52454144595f4a4f494e45445f41535f50524f5649444552000000000000815260200192915050565b60006200410b6020836200493d565b7f4a4f494e5f4d41524b45545f5452414e534645525f46524f4d5f4641494c4544815260200192915050565b6000620041466017836200493d565b7f494e56414c49445f4348414e4e454c5f54494d454f5554000000000000000000815260200192915050565b6000620041816014836200493d565b7314d15391115497d393d517d49150d2541251539560621b815260200192915050565b6000620041b36012836200493d565b71494e56414c49445f4d41524b45545f46454560701b815260200192915050565b6000620041e36021836200493d565b7f4f50454e5f4348414e4e454c5f5452414e534645525f46524f4d5f4641494c458152601160fa1b602082015260400192915050565b6000620042286019836200493d565b7f494e56414c49445f50524f56494445525f534543555249545900000000000000815260200192915050565b600062004263600f836200493d565b6e29a2a72222a92fa4a9afa7aba722a960891b815260200192915050565b805160009060e084019062004297858262004323565b506020830151620042ac602086018262003bcb565b506040830151620042c1604086018262003bcb565b506060830151620042d6606086018262004323565b506080830151620042eb608086018262003c46565b5060a08301516200430060a086018262004339565b5060c083015184820360c08601526200431a828262003c51565b95945050505050565b62003bc58162000526565b62003bc5816200498a565b62003bc58162004993565b60208101620004ac828462003bcb565b60208101620004ac828462003bba565b60a0810162004374828862003bba565b62004383602083018762003bcb565b62004392604083018662003bcb565b620043a1606083018562004323565b62002ba260808301846200432e565b60608101620043c0828662003bba565b620043cf602083018562003bcb565b620036ca604083018462004323565b60a08101620043ee828862003bba565b620043fd602083018762004339565b6200440c604083018662004323565b6200441b606083018562004323565b81810360808301526200442f818462003c51565b979650505050505050565b60a081016200444a828862003bcb565b62004459602083018762003bcb565b62004468604083018662003bcb565b62004477606083018562003bcb565b62002ba2608083018462003c9c565b610160810162004497828e62003bcb565b620044a6602083018d62003bcb565b620044b5604083018c62003bcb565b620044c4606083018b62003c46565b620044d3608083018a62003bcb565b620044e260a083018962003bba565b620044f160c083018862003bcb565b6200450060e083018762003bcb565b6200451061010083018662004323565b620045206101208301856200432e565b6200453061014083018462003c9c565b9c9b505050505050505050505050565b60608101620043c0828662003bcb565b6060810162004560828662003bcb565b818103602083015262004574818562004281565b905081810360408301526200431a818462003c51565b60a08101620043ee828862003bcb565b60208082528101620045ad818462003bd6565b9392505050565b60208101620004ac828462003c3b565b60208101620004ac828462003c46565b60208101620004ac828462003c91565b60208082528101620004ac8162003ca7565b60208082528101620004ac8162003ce2565b60208082528101620004ac8162003d16565b60208082528101620004ac8162003d51565b60208082528101620004ac8162003d7f565b60208082528101620004ac8162003db2565b60208082528101620004ac8162003de2565b60208082528101620004ac8162003e2c565b60208082528101620004ac8162003e57565b60208082528101620004ac8162003e88565b60208082528101620004ac8162003ec3565b60208082528101620004ac8162003ef7565b60208082528101620004ac8162003f3c565b60208082528101620004ac8162003f77565b60208082528101620004ac8162003fab565b60208082528101620004ac8162003fd9565b60208082528101620004ac8162004014565b60208082528101620004ac816200405a565b60208082528101620004ac8162004086565b60208082528101620004ac81620040c1565b60208082528101620004ac81620040fc565b60208082528101620004ac8162004137565b60208082528101620004ac8162004172565b60208082528101620004ac81620041a4565b60208082528101620004ac81620041d4565b60208082528101620004ac8162004219565b60208082528101620004ac8162004254565b60208101620004ac828462004323565b60608101620047ea828662004323565b620047f9602083018562004323565b81810360408301526200431a818462003c51565b61012081016200481e828c62004323565b6200482d602083018b6200432e565b6200483c604083018a62003bba565b818103606083015262004850818962003c51565b9050818103608083015262004866818862003c51565b90506200487760a083018762003bcb565b6200488660c083018662004323565b6200489560e083018562004323565b620048a561010083018462004323565b9a9950505050505050505050565b6101208101620048c4828c62004323565b620048d3602083018b6200432e565b6200483c604083018a62003bcb565b60405181810167ffffffffffffffff811182821017156200490257600080fd5b604052919050565b600067ffffffffffffffff8211156200492257600080fd5b506020601f91909101601f19160190565b60200190565b5190565b90815260200190565b6000620004ac826200497e565b151590565b6001600160801b03191690565b6000620004ac8262004946565b806200051d81620049fc565b6001600160a01b031690565b63ffffffff1690565b60ff1690565b6000620004ac8262004965565b6000620004ac8262004972565b82818337506000910152565b60005b83811015620049dc578181015183820152602001620049c2565b83811115620049ec576000848401525b50505050565b601f01601f191690565b6003811062000f7257fe5b62004a128162004946565b811462000f7257600080fd5b62004a128162004953565b62004a128162004958565b62004a128162004965565b6006811062000f7257600080fd5b62004a128162000526565b62004a12816200498a565b62004a12816200499356fe608060405234801561001057600080fd5b50604051611298380380611298833981810160405261016081101561003457600080fd5b508051602082015160408301516060840151608085015160a086015160c087015160e08801516101008901516101208a0151610140909a0151600380546001600160a01b03808d166001600160a01b03199283161790925560048054928b1692909116919091178082559a9b999a98999798969795969495939492939282919060ff60a01b1916600160a01b8360028111156100cc57fe5b0217905550600480546001919060ff60a81b1916600160a81b830217905550600580546001600160801b03191660808a811c91909117909155600680546001600160a01b03199081166001600160a01b038b8116919091179092556007805482168a8416179055600880548216898416179055600980548216888416179055600a869055600e805463ffffffff191663ffffffff871617905542600b5560018054909116918d169190911781556040805160c0810182526003938101938452622c212960e91b60a082015292835280518082018252828152603160f81b60208083019190915284015282015273254dffcd3277c0b1660f6d42efbb754edababc2b60608201526101db906101ef565b600055506102729950505050505050505050565b6000604051808061124660529139604080519182900360520182208551805160209182012081880151805190830120888501516060808b015185890196909652878701939093529186015260808501526001600160a01b0390911660a0808501919091528251808503909101815260c09093019091528151910120915050919050565b610fc5806102816000396000f3fe608060405234801561001057600080fd5b50600436106101005760003560e01c806370dea79a11610097578063aa8c217c11610066578063aa8c217c14610415578063b86c0e1f1461041d578063c19d93fb14610425578063c89e43611461043d57610100565b806370dea79a1461029a57806386a4fb02146102bb5780638a9e5104146104055780639ef27b001461040d57610100565b806366d003ac116100d357806366d003ac1461025d5780636739afca1461026557806367e404ce1461026d5780636ed71ede1461027557610100565b806305a787501461010557806323bd4d7a146101315780632b5bb52a146101555780633893020314610243575b600080fd5b61010d610445565b6040518082600281111561011d57fe5b60ff16815260200191505060405180910390f35b610139610455565b604080516001600160a01b039092168252519081900360200190f35b61022f600480360360c081101561016b57600080fd5b6001600160a01b03823581169260208101359091169163ffffffff6040830135169160608101359160808201351515919081019060c0810160a08201356401000000008111156101ba57600080fd5b8201836020820111156101cc57600080fd5b803590602001918460018302840111640100000000831117156101ee57600080fd5b91908080601f016020809104026020016040519081016040528093929190818152602001838380828437600092019190915250929550610464945050505050565b604080519115158252519081900360200190f35b61024b610587565b60408051918252519081900360200190f35b61013961058d565b61013961059c565b6101396105ab565b61027d6105ba565b604080516001600160801b03199092168252519081900360200190f35b6102a26105c3565b6040805163ffffffff9092168252519081900360200190f35b610403600480360360a08110156102d157600080fd5b63ffffffff8235169160208101359160408201351515919081019060808101606082013564010000000081111561030757600080fd5b82018360208201111561031957600080fd5b8035906020019184600183028401116401000000008311171561033b57600080fd5b91908080601f016020809104026020016040519081016040528093929190818152602001838380828437600092019190915250929594936020810193503591505064010000000081111561038e57600080fd5b8201836020820111156103a057600080fd5b803590602001918460018302840111640100000000831117156103c257600080fd5b91908080601f0160208091040260200160405190810160405280939291908181526020018383808284376000920191909152509295506105cf945050505050565b005b610139610d66565b61024b610d75565b61024b610d7b565b61024b610d81565b61042d610d87565b6040518082600381111561011d57fe5b610139610d97565b600454600160a01b900460ff1681565b6003546001600160a01b031681565b60008060008061047385610da6565b925092509250610481610eae565b50604080516080810182526001600160a01b038b16815263ffffffff8a1660208201529081018890528615156060820152600080546104bf83610e2f565b604051602001808061190160f01b815250600201838152602001828152602001925050506040516020818303038152906040528051906020012090508b6001600160a01b031660018287878760405160008152602001604052604051808581526020018460ff1660ff1681526020018381526020018281526020019450505050506020604051602081039080840390855afa158015610562573d6000803e3d6000fd5b505050602060405103516001600160a01b031614955050505050509695505050505050565b600b5481565b6009546001600160a01b031681565b6004546001600160a01b031681565b6007546001600160a01b031681565b60055460801b81565b600e5463ffffffff1681565b6008546105e9906001600160a01b03163087878787610464565b61063a576040805162461bcd60e51b815260206004820152601a60248201527f494e56414c49445f44454c45474154455f5349474e4154555245000000000000604482015290519081900360640190fd5b600654610654906001600160a01b03163087878786610464565b6106a5576040805162461bcd60e51b815260206004820152601d60248201527f494e56414c49445f4d41524b45544d414b45525f5349474e4154555245000000604482015290519081900360640190fd5b600a548411156106fc576040805162461bcd60e51b815260206004820152601760248201527f494e56414c49445f434c4f53494e475f42414c414e4345000000000000000000604482015290519081900360640190fd5b60018563ffffffff16101561074e576040805162461bcd60e51b8152602060048201526013602482015272494e56414c49445f434c4f53494e475f53455160681b604482015290519081900360640190fd5b6001600454600160a81b900460ff16600381111561076857fe5b148061078b57506002600454600160a81b900460ff16600381111561078957fe5b145b6107cf576040805162461bcd60e51b815260206004820152601060248201526f21a420a72722a62fa727aa2fa7a822a760811b604482015290519081900360640190fd5b6002600454600160a81b900460ff1660038111156107e957fe5b14156108ea57600d5415610844576040805162461bcd60e51b815260206004820181905260248201527f494e5445524e414c5f4552524f525f434c4f5345445f41545f4e4f4e5a45524f604482015290519081900360640190fd5b600c54421061088c576040805162461bcd60e51b815260206004820152600f60248201526e10d2105393915317d512535153d555608a1b604482015290519081900360640190fd5b60015463ffffffff600160a01b9091048116908616106108ea576040805162461bcd60e51b815260206004820152601460248201527327aaaa2220aa22a22faa2920a729a0a1aa24a7a760611b604482015290519081900360640190fd5b600a5460015490859003908590606483049081840390600160a01b900463ffffffff908116908a161115610a3f57600154600160a01b900463ffffffff161561098457600254881115610984576040805162461bcd60e51b815260206004820152601c60248201527f5452414e53414354494f4e5f42414c414e43455f4f5554444154454400000000604482015290519081900360640190fd5b6004805460ff60a81b1916600160a91b1790556001805463ffffffff8b8116600160a01b0263ffffffff60a01b19909216919091179091556002899055600e5442911601600c819055600554600754604080516001600160a01b0390921682526020820185905281810186905260608201879052608080830194909452516001600160801b03199290931b91909116917f923a6b018992e2b7b9726ce9ca5ad625bf9047554fe62452bb13c513382e599f9181900360a00190a25b8680610a49575087155b80610a7857506002600454600160a81b900460ff166003811115610a6957fe5b148015610a785750600c544210155b15610d5b578015610b43576001546009546040805163a9059cbb60e01b81526001600160a01b039283166004820152602481018590529051919092169163a9059cbb9160448083019260209291908290030181600087803b158015610adc57600080fd5b505af1158015610af0573d6000803e3d6000fd5b505050506040513d6020811015610b0657600080fd5b5051610b435760405162461bcd60e51b8152600401808060200182810382526024815260200180610f6d6024913960400191505060405180910390fd5b8115610c09576001546003546040805163a9059cbb60e01b81526001600160a01b039283166004820152602481018690529051919092169163a9059cbb9160448083019260209291908290030181600087803b158015610ba257600080fd5b505af1158015610bb6573d6000803e3d6000fd5b505050506040513d6020811015610bcc57600080fd5b5051610c095760405162461bcd60e51b8152600401808060200182810382526021815260200180610ed66021913960400191505060405180910390fd5b8215610ccf576001546007546040805163a9059cbb60e01b81526001600160a01b039283166004820152602481018790529051919092169163a9059cbb9160448083019260209291908290030181600087803b158015610c6857600080fd5b505af1158015610c7c573d6000803e3d6000fd5b505050506040513d6020811015610c9257600080fd5b5051610ccf5760405162461bcd60e51b8152600401808060200182810382526024815260200180610f496024913960400191505060405180910390fd5b42600d8190556004805460ff60a81b1916600360a81b179055600554600754604080516001600160a01b0390921682526020820185905281810186905260608201879052608080830194909452519190921b6001600160801b031916917f800105c84e45907e1a349f0e6e5bfbd427efc3dc4de8974ea11f6fe6d3d9108b9160a0918190039190910190a25b505050505050505050565b6006546001600160a01b031681565b600d5481565b600a5481565b600c5481565b600454600160a81b900460ff1681565b6008546001600160a01b031681565b60008060008351604114610e01576040805162461bcd60e51b815260206004820152601860248201527f494e56414c49445f5349474e41545552455f4c454e4754480000000000000000604482015290519081900360640190fd5b50505060208101516040820151604183015160ff169190601b831015610e2857601b830192505b9193909250565b60006040518080610ef760529139604080519182900360520182208551602080880151888501516060998a0151838801959095526001600160a01b039093168686015263ffffffff16978501979097526080840152151560a0808401919091528151808403909101815260c09092019052805193019290922092915050565b6040805160808101825260008082526020820181905291810182905260608101919091529056fe4348414e4e454c5f434c4f53455f4645455f5452414e534645525f4641494c45444368616e6e656c436c6f73652861646472657373206368616e6e656c5f6164722c75696e743332206368616e6e656c5f7365712c75696e743235362062616c616e63652c626f6f6c2069735f66696e616c294348414e4e454c5f434c4f53455f524546554e445f5452414e534645525f4641494c45444348414e4e454c5f434c4f53455f5041594f55545f5452414e534645525f4641494c4544a265627a7a723158207fd253edc933e50490917508f542ca4edbba053cf81f66f4f453b143a803657264736f6c63430005100032454950373132446f6d61696e28737472696e67206e616d652c737472696e672076657273696f6e2c75696e7432353620636861696e49642c6164647265737320766572696679696e67436f6e747261637429a365627a7a72315820df31dcade8216545dd488975c6558a575bfee68b5cd9a32831f28b1142a9cb436c6578706572696d656e74616cf564736f6c63430005100040",
  "source": "///////////////////////////////////////////////////////////////////////////////\n//\n//  Copyright (C) 2018-2020 Crossbar.io Technologies GmbH and contributors.\n//\n//  Licensed under the Apache License, Version 2.0 (the \"License\");\n//  you may not use this file except in compliance with the License.\n//  You may obtain a copy of the License at\n//\n//      http://www.apache.org/licenses/LICENSE-2.0\n//\n//  Unless required by applicable law or agreed to in writing, software\n//  distributed under the License is distributed on an \"AS IS\" BASIS,\n//  WITHOUT WARRANTIES OR CONDITIONS OF ANY KIND, either express or implied.\n//  See the License for the specific language governing permissions and\n//  limitations under the License.\n//\n///////////////////////////////////////////////////////////////////////////////\n\npragma solidity ^0.5.12;\npragma experimental ABIEncoderV2;\n\n// https://openzeppelin.org/api/docs/math_SafeMath.html\nimport \"openzeppelin-solidity/contracts/math/SafeMath.sol\";\n\nimport \"./XBRMaintained.sol\";\nimport \"./XBRTypes.sol\";\nimport \"./XBRToken.sol\";\nimport \"./XBRNetwork.sol\";\nimport \"./XBRChannel.sol\";\n\n\n/**\n * @title XBR Market smart contract.\n * @author The XBR Project\n */\ncontract XBRMarket is XBRMaintained {\n\n    // Add safe math functions to uint256 using SafeMath lib from OpenZeppelin\n    using SafeMath for uint256;\n\n    /// Event emitted when a new market was created.\n    event MarketCreated (bytes16 indexed marketId, uint created, uint32 marketSeq, address owner, string terms,\n        string meta, address maker, uint256 providerSecurity, uint256 consumerSecurity, uint256 marketFee);\n\n    /// Event emitted when a market was updated.\n    event MarketUpdated (bytes16 indexed marketId, uint32 marketSeq, address owner, string terms, string meta,\n        address maker, uint256 providerSecurity, uint256 consumerSecurity, uint256 marketFee);\n\n    /// Event emitted when a market was closed.\n    event MarketClosed (bytes16 indexed marketId);\n\n    /// Event emitted when a new actor joined a market.\n    event ActorJoined (bytes16 indexed marketId, address actor, uint8 actorType, uint joined,\n        uint256 security, string meta);\n\n    /// Event emitted when an actor has left a market.\n    event ActorLeft (bytes16 indexed marketId, address actor, uint8 actorType);\n\n    /// Event emitted when a new payment channel was created in a market.\n    event ChannelCreated (bytes16 indexed marketId, address sender, address delegate,\n        address recipient, address channel, XBRChannel.ChannelType channelType);\n\n    /// Event emitted when a new request for a paying channel was created in a market.\n    event PayingChannelRequestCreated (bytes16 indexed marketId, address sender, address recipient, address delegate,\n        uint256 amount, uint32 timeout);\n\n    // Note: closing event of payment channels are emitted from XBRChannel (not from here)\n\n    XBRNetwork public network;\n\n    /// Created markets are sequence numbered using this counter (to allow deterministic collision-free IDs for markets)\n    uint32 private marketSeq = 1;\n\n    /// Current XBR Markets (\"market directory\")\n    mapping(bytes16 => XBRTypes.Market) public markets;\n\n    /// List of IDs of current XBR Markets.\n    bytes16[] public marketIds;\n\n    /// Index: maker address => market ID\n    mapping(address => bytes16) public marketsByMaker;\n\n    /// Index: market owner address => [market ID]\n    mapping(address => bytes16[]) public marketsByOwner;\n\n    /**\n     * Constructor.\n     *\n     * @param network_ The network this market is part of.\n     */\n    constructor (address network_) public {\n        network = XBRNetwork(network_);\n    }\n\n    /**\n     * Create a new XBR market. The sender of the transaction must be XBR network member\n     * and automatically becomes owner of the new market.\n     *\n     * @param marketId The ID of the market to create. Must be unique (not yet existing).\n                       To generate a new ID you can do `python -c \"import uuid; print(uuid.uuid4().bytes.hex())\"`.\n     * @param terms The XBR market terms set by the market owner. IPFS Multihash pointing\n     *              to a ZIP archive file with market documents.\n     * @param meta The XBR market metadata published by the market owner. IPFS Multihash pointing\n     *             to a RDF/Turtle file with market metadata.\n     * @param maker The address of the XBR market maker that will run this market. The delegate of the market owner.\n     * @param providerSecurity The amount of XBR tokens a XBR provider joining the market must deposit.\n     * @param consumerSecurity The amount of XBR tokens a XBR consumer joining the market must deposit.\n     * @param marketFee The fee taken by the market (beneficiary is the market owner). The fee is a percentage of\n     *                  the revenue of the XBR Provider that receives XBR Token paid for transactions.\n     *                  The fee must be between 0% (inclusive) and 99% (inclusive), and is expressed as\n     *                  a fraction of the total supply of XBR tokens.\n     */\n    function createMarket (bytes16 marketId, string memory terms, string memory meta, address maker,\n        uint256 providerSecurity, uint256 consumerSecurity, uint256 marketFee) public {\n\n        (, , , XBRTypes.MemberLevel member_level, ) = network.members(msg.sender);\n\n        // the market operator (owner) must be a registered member\n        require(member_level == XBRTypes.MemberLevel.ACTIVE ||\n                member_level == XBRTypes.MemberLevel.VERIFIED, \"SENDER_NOT_A_MEMBER\");\n\n        // market must not yet exist (to generate a new marketId: )\n        require(markets[marketId].owner == address(0), \"MARKET_ALREADY_EXISTS\");\n\n        // must provide a valid market maker address already when creating a market\n        require(maker != address(0), \"INVALID_MAKER\");\n\n        // the market maker can only work for one market\n        require(marketsByMaker[maker] == bytes16(0), \"MAKER_ALREADY_WORKING_FOR_OTHER_MARKET\");\n\n        // provider security must be non-negative (and obviously smaller than the total token supply)\n        require(providerSecurity >= 0 && providerSecurity <= network.token().totalSupply(), \"INVALID_PROVIDER_SECURITY\");\n\n        // consumer security must be non-negative (and obviously smaller than the total token supply)\n        require(consumerSecurity >= 0 && consumerSecurity <= network.token().totalSupply(), \"INVALID_CONSUMER_SECURITY\");\n\n        // FIXME: treat market fee\n        require(marketFee >= 0 && marketFee < (network.token().totalSupply() - 10**7) * 10**18, \"INVALID_MARKET_FEE\");\n\n        // now remember out new market ..\n        uint created = block.timestamp;\n        markets[marketId] = XBRTypes.Market(created, marketSeq, msg.sender, terms, meta, maker,\n            providerSecurity, consumerSecurity, marketFee, new address[](0), new address[](0));\n\n        // .. and the market-maker-to-market mapping\n        marketsByMaker[maker] = marketId;\n\n        // .. and the market-owner-to-market mapping\n        marketsByOwner[msg.sender].push(marketId);\n\n        // .. and list of markst IDs\n        marketIds.push(marketId);\n\n        // increment market sequence for next market\n        marketSeq = marketSeq + 1;\n\n        // notify observers (eg a dormant market maker waiting to be associated)\n        emit MarketCreated(marketId, created, marketSeq, msg.sender, terms, meta, maker,\n            providerSecurity, consumerSecurity, marketFee);\n    }\n\n    function countMarkets() public view returns (uint) {\n        return marketIds.length;\n    }\n\n    function getMarketsByOwner(address owner, uint index) public view returns (bytes16) {\n        return marketsByOwner[owner][index];\n    }\n\n    function countMarketsByOwner(address owner) public view returns (uint) {\n        return marketsByOwner[owner].length;\n    }\n\n    function getMarketActor (bytes16 marketId, address actor, uint8 actorType) public view\n        returns (uint, uint256, string memory)\n    {\n\n        // the market must exist\n        require(markets[marketId].owner != address(0), \"NO_SUCH_MARKET\");\n\n        // must ask for a data provider (seller) or data consumer (buyer)\n        require(actorType == uint8(XBRTypes.ActorType.PROVIDER) ||\n                actorType == uint8(XBRTypes.ActorType.CONSUMER), \"INVALID_ACTOR_TYPE\");\n\n        if (actorType == uint8(XBRTypes.ActorType.CONSUMER)) {\n            XBRTypes.Actor storage _actor = markets[marketId].consumerActors[actor];\n            return (_actor.joined, _actor.security, _actor.meta);\n        } else {\n            XBRTypes.Actor storage _actor = markets[marketId].providerActors[actor];\n            return (_actor.joined, _actor.security, _actor.meta);\n        }\n    }\n\n    // /**\n    //  * Update market information, like market terms, metadata or maker address.\n    //  *\n    //  * @param marketId The ID of the market to update.\n    //  * @param terms When terms should be updated, provide a string of non-zero length with\n    //  *              an IPFS Multihash pointing to the new ZIP file with market terms.\n    //  * @param meta When metadata should be updated, provide a string of non-zero length with\n    //  *             an IPFS Multihash pointing to the new RDF/Turtle file with market metadata.\n    //  * @param maker When maker should be updated, provide a non-zero address.\n    //  * @param providerSecurity Provider security to set that will apply for new members (providers) joining\n    //  *                         the market. It will NOT apply to current market members.\n    //  * @param consumerSecurity Consumer security to set that will apply for new members (consumers) joining\n    //  *                         the market. It will NOT apply to current market members.\n    //  * @param marketFee New market fee to set. The new market fee will apply to all new payment channels\n    //  *                  opened. It will NOT apply to already opened (or closed) payment channels.\n    //  * @return Flag indicating weather the market information was actually updated or left unchanged.\n    //  */\n    // function updateMarket(bytes16 marketId, string memory terms, string memory meta, address maker,\n    //     uint256 providerSecurity, uint256 consumerSecurity, uint256 marketFee) public returns (bool) {\n\n    //     Market storage market = markets[marketId];\n\n    //     require(market.owner != address(0), \"NO_SUCH_MARKET\");\n    //     require(market.owner == msg.sender, \"NOT_AUTHORIZED\");\n    //     //require(marketsByMaker[maker] == bytes16(0), \"MAKER_ALREADY_WORKING_FOR_OTHER_MARKET\");\n    //     require(marketFee >= 0 && marketFee < (10**9 - 10**7) * 10**18, \"INVALID_MARKET_FEE\");\n\n    //     bool wasChanged = false;\n\n    //     // for these knobs, only update when non-zero values provided\n    //     if (maker != address(0) && maker != market.maker) {\n    //         markets[marketId].maker = maker;\n    //         wasChanged = true;\n    //     }\n\n    //     /* FIXME: find out why including the following code leas to \"out of gas\" issues when deploying contracts\n\n    //     if (bytes(terms).length > 0 && keccak256(abi.encode(terms)) != keccak256(abi.encode(market.terms))) {\n    //         markets[marketId].terms = terms;\n    //         wasChanged = true;\n    //     }\n    //     if (bytes(meta).length > 0 && keccak256(abi.encode(meta)) != keccak256(abi.encode(market.meta))) {\n    //         markets[marketId].meta = meta;\n    //         wasChanged = true;\n    //     }\n    //     */\n\n    //     // for these knobs, we allow updating to zero value\n    //     if (providerSecurity != market.providerSecurity) {\n    //         markets[marketId].providerSecurity = providerSecurity;\n    //         wasChanged = true;\n    //     }\n    //     if (consumerSecurity != market.consumerSecurity) {\n    //         markets[marketId].consumerSecurity = consumerSecurity;\n    //         wasChanged = true;\n    //     }\n    //     if (marketFee != market.marketFee) {\n    //         markets[marketId].marketFee = marketFee;\n    //         wasChanged = true;\n    //     }\n\n    //     if (wasChanged) {\n    //         emit MarketUpdated(marketId, market.marketSeq, market.owner, market.terms, market.meta, market.maker,\n    //                 market.providerSecurity, market.consumerSecurity, market.marketFee);\n    //     }\n\n    //     return wasChanged;\n    // }\n\n    // /**\n    //  * Close a market. A closed market will not accept new memberships.\n    //  *\n    //  * @param marketId The ID of the market to close.\n    //  */\n    // function closeMarket (bytes16 marketId) public view {\n    //     require(markets[marketId].owner != address(0), \"NO_SUCH_MARKET\");\n    //     require(markets[marketId].owner == msg.sender, \"NOT_AUTHORIZED\");\n    //     // FIXME\n    //     // - remove market ID from marketIds\n    //     require(false, \"NOT_IMPLEMENTED\");\n    // }\n\n    /**\n     * Join the given XBR market as the specified type of actor, which must be PROVIDER or CONSUMER.\n     *\n     * @param marketId The ID of the XBR data market to join.\n     * @param actorType The type of actor under which to join: PROVIDER or CONSUMER.\n     * @param meta The XBR market provider/consumer metadata. IPFS Multihash pointing to a JSON file with metadata.\n     */\n    function joinMarket (bytes16 marketId, uint8 actorType, string memory meta) public returns (uint256) {\n\n        (, , , XBRTypes.MemberLevel member_level, ) = network.members(msg.sender);\n\n        // the joining sender must be a registered member\n        require(member_level == XBRTypes.MemberLevel.ACTIVE, \"SENDER_NOT_A_MEMBER\");\n\n        // the market to join must exist\n        require(markets[marketId].owner != address(0), \"NO_SUCH_MARKET\");\n\n        // the market owner cannot join as an actor (provider/consumer) in the market\n        require(markets[marketId].owner != msg.sender, \"SENDER_IS_OWNER\");\n\n        // the joining member must join as a data provider (seller) or data consumer (buyer)\n        require(actorType == uint8(XBRTypes.ActorType.PROVIDER) ||\n                actorType == uint8(XBRTypes.ActorType.CONSUMER), \"INVALID_ACTOR_TYPE\");\n\n        // get the security amount required for joining the market (if any)\n        uint256 security;\n        // if (uint8(actorType) == uint8(ActorType.PROVIDER)) {\n        if (actorType == uint8(XBRTypes.ActorType.PROVIDER)) {\n            // the joining member must not be joined as a provider already\n            require(uint8(markets[marketId].providerActors[msg.sender].joined) == 0, \"ALREADY_JOINED_AS_PROVIDER\");\n            security = markets[marketId].providerSecurity;\n        } else  {\n            // the joining member must not be joined as a consumer already\n            require(uint8(markets[marketId].consumerActors[msg.sender].joined) == 0, \"ALREADY_JOINED_AS_CONSUMER\");\n            security = markets[marketId].consumerSecurity;\n        }\n\n        if (security > 0) {\n            // Transfer (if any) security to the market owner (for ActorType.CONSUMER or ActorType.PROVIDER)\n            bool success = network.token().transferFrom(msg.sender, markets[marketId].owner, security);\n            require(success, \"JOIN_MARKET_TRANSFER_FROM_FAILED\");\n        }\n\n        // remember actor (by actor address) within market\n        uint joined = block.timestamp;\n        if (actorType == uint8(XBRTypes.ActorType.PROVIDER)) {\n            markets[marketId].providerActors[msg.sender] = XBRTypes.Actor(joined, security, meta, new address[](0));\n            markets[marketId].providerActorAdrs.push(msg.sender);\n        } else {\n            markets[marketId].consumerActors[msg.sender] = XBRTypes.Actor(joined, security, meta, new address[](0));\n            markets[marketId].consumerActorAdrs.push(msg.sender);\n        }\n\n        // emit event ActorJoined(bytes16 marketId, address actor, ActorType actorType, uint joined,\n        //                        uint256 security, string meta)\n        emit ActorJoined(marketId, msg.sender, actorType, joined, security, meta);\n\n        // return effective security transferred\n        return security;\n    }\n\n    function joinMarketFor (address member, uint256 joined, bytes16 marketId, uint8 actorType,\n        string memory meta, bytes memory signature) public returns (uint256) {\n\n        (, , , XBRTypes.MemberLevel member_level, ) = network.members(msg.sender);\n\n        // the joining member must be a registered member\n        require(member_level == XBRTypes.MemberLevel.ACTIVE, \"SENDER_NOT_A_MEMBER\");\n\n        // the market to join must exist\n        require(markets[marketId].owner != address(0), \"NO_SUCH_MARKET\");\n\n        // the market owner cannot join as an actor (provider/consumer) in the market\n        require(markets[marketId].owner != member, \"SENDER_IS_OWNER\");\n\n        // the joining member must join as a data provider (seller) or data consumer (buyer)\n        require(actorType == uint8(XBRTypes.ActorType.PROVIDER) ||\n                actorType == uint8(XBRTypes.ActorType.CONSUMER), \"INVALID_ACTOR_TYPE\");\n\n        // FIXME: check \"joined\"\n\n        // get the security amount required for joining the market (if any)\n        uint256 security = 0;\n\n        if (actorType == uint8(XBRTypes.ActorType.PROVIDER)) {\n            // the joining member must not be joined as a provider already\n            require(uint8(markets[marketId].providerActors[member].joined) == 0, \"ALREADY_JOINED_AS_PROVIDER\");\n            security = markets[marketId].providerSecurity;\n        } else  {\n            // the joining member must not be joined as a consumer already\n            require(uint8(markets[marketId].consumerActors[member].joined) == 0, \"ALREADY_JOINED_AS_CONSUMER\");\n            security = markets[marketId].consumerSecurity;\n        }\n\n        // FIXME:\n        require(XBRTypes.verify(member, XBRTypes.EIP712MarketJoin(network.verifyingChain(), network.verifyingContract(),\n            member, joined, marketId, actorType, meta), signature), \"INVALID_MARKET_JOIN_SIGNATURE\");\n\n        if (security > 0) {\n            // Transfer (if any) security to the market owner (for ActorType.CONSUMER or ActorType.PROVIDER)\n            bool success = network.token().transferFrom(member, markets[marketId].owner, security);\n            require(success, \"JOIN_MARKET_TRANSFER_FROM_FAILED\");\n        }\n\n        // remember actor (by actor address) within market\n        if (actorType == uint8(XBRTypes.ActorType.PROVIDER)) {\n            markets[marketId].providerActors[member] = XBRTypes.Actor(joined, security, meta, new address[](0));\n            markets[marketId].providerActorAdrs.push(member);\n        } else {\n            markets[marketId].consumerActors[member] = XBRTypes.Actor(joined, security, meta, new address[](0));\n            markets[marketId].consumerActorAdrs.push(member);\n        }\n\n        emit ActorJoined(marketId, member, actorType, joined, security, meta);\n\n        // return effective security transferred\n        return security;\n    }\n\n    // /**\n    //  * As a market actor (participant) currently member of a market, leave that market.\n    //  * A market can only be left when all payment channels of the sender are closed (or expired).\n    //  *\n    //  * @param marketId The ID of the market to leave.\n    //  */\n    // function leaveMarket (bytes16 marketId) public view {\n    //     require(markets[marketId].owner != address(0), \"NO_SUCH_MARKET\");\n    //     // FIXME\n    //     // - remove sender actor from markets[marketId].providerActorAdrs|consumerActorAdrs\n    //     require(false, \"NOT_IMPLEMENTED\");\n    // }\n\n    /**\n     * Open a new payment channel and deposit an amount of XBR token for off-chain consumption.\n     * Must be called by the data consumer (XBR buyer) and an off-chain buyer delegate address must be given.\n     *\n     * @param marketId The ID of the market to open a payment channel within.\n     * @param recipient Recipient of the earned off-chain transaction amounts of this single channel,\n     *                  commonly the market operator.\n     * @param delegate The address of the (offchain) consumer delegate allowed to consume the channel.\n     * @param amount Amount of XBR Token to deposit into the payment channel (the initial off-chain balance).\n     * @param timeout Channel timeout which will apply.\n     */\n    function openPaymentChannel (bytes16 marketId, address recipient, address delegate,\n        uint256 amount, uint32 timeout) public returns (address paymentChannel) {\n\n        // market must exist\n        require(markets[marketId].owner != address(0), \"NO_SUCH_MARKET\");\n\n        // sender must be consumer in the market\n        require(uint8(markets[marketId].consumerActors[msg.sender].joined) != 0, \"NO_CONSUMER_ROLE\");\n\n        // technical recipient of the unidirectional, half-legged channel must be the\n        // owner (operator) of the market\n        require(recipient == markets[marketId].owner, \"INVALID_CHANNEL_RECIPIENT\");\n\n        // must provide a valid off-chain channel delegate address\n        require(delegate != address(0), \"INVALID_CHANNEL_DELEGATE\");\n\n        // payment channel amount must be positive\n        require(amount > 0 && amount <= network.token().totalSupply(), \"INVALID_CHANNEL_AMOUNT\");\n\n        // payment channel timeout can be [0 seconds - 10 days[\n        require(timeout >= 0 && timeout < 864000, \"INVALID_CHANNEL_TIMEOUT\");\n\n        // create new payment channel contract\n        XBRChannel channel = new XBRChannel(network.organization(), address(network.token()), address(this), marketId,\n            markets[marketId].maker, msg.sender, delegate, recipient, amount, timeout,\n            XBRChannel.ChannelType.PAYMENT);\n\n        // transfer tokens (initial balance) into payment channel contract\n        bool success = network.token().transferFrom(msg.sender, address(channel), amount);\n        require(success, \"OPEN_CHANNEL_TRANSFER_FROM_FAILED\");\n\n        // remember the new payment channel associated with the market\n        //markets[marketId].channels.push(address(channel));\n        markets[marketId].consumerActors[msg.sender].channels.push(address(channel));\n\n        // emit event ChannelCreated(bytes16 marketId, address sender, address delegate,\n        //      address recipient, address channel)\n        emit ChannelCreated(marketId, channel.sender(), channel.delegate(), channel.recipient(),\n            address(channel), XBRChannel.ChannelType.PAYMENT);\n\n        // return address of new channel contract\n        return address(channel);\n    }\n\n    /**\n     * As a data provider, request a new payment channel to get paid by the market maker. Given sufficient\n     * security amount (deposited by the data provider when joining the marker) to cover the request amount,\n     * the market maker will open a payment (state) channel to allow the market maker buying data keys in\n     * microtransactions, and offchain. The creation of the payment channel is asynchronously: the market maker\n     * is watching the global blockchain filtering for events relevant to the market managed by the maker.\n     * When a request to open a payment channel is recognized by the market maker, it will check the provider\n     * for sufficient security deposit covering the requested amount, and if all is fine, create a new payment\n     * channel and store the contract address for the channel request ID, so the data provider can retrieve it.\n     *\n     * @param marketId The ID of the market to request a paying channel within.\n     * @param delegate The address of the (offchain) provider delegate allowed to sell into the channel.\n     * @param amount Amount of XBR Token to deposit into the paying channel (the initial off-chain balance).\n     * @param timeout Channel timeout which will apply.\n     */\n    function requestPayingChannel (bytes16 marketId, address recipient, address delegate,\n        uint256 amount, uint32 timeout) public {\n\n        // market must exist\n        require(markets[marketId].owner != address(0), \"NO_SUCH_MARKET\");\n\n        // market must have a market maker associated\n        require(markets[marketId].maker != address(0), \"NO_ACTIVE_MARKET_MAKER\");\n\n        // sender must be market maker for market\n        require(msg.sender == recipient, \"SENDER_NOT_RECIPIENT\");\n\n        // recipient must be provider in the market\n        require(uint8(markets[marketId].providerActors[recipient].joined) != 0, \"RECIPIENT_NOT_PROVIDER\");\n\n        // must provide a valid off-chain channel delegate address\n        require(delegate != address(0), \"INVALID_CHANNEL_DELEGATE\");\n\n        // paying channel amount must be positive\n        require(amount > 0 && amount <= network.token().totalSupply(), \"INVALID_CHANNEL_AMOUNT\");\n\n        // paying channel timeout can be [0 seconds - 10 days[\n        require(timeout >= 0 && timeout < 864000, \"INVALID_CHANNEL_TIMEOUT\");\n\n        // emit event PayingChannelRequestCreated(bytes16 marketId, address sender, address recipient,\n        //      address delegate, uint256 amount, uint32 timeout)\n        emit PayingChannelRequestCreated(marketId, msg.sender, recipient, delegate, amount, timeout);\n    }\n\n    /**\n     * Open a new paying channel and deposit an amount of XBR token for off-chain consumption.\n     * Must be called by the market maker in response to a successful request for a paying channel.\n     *\n     * @param marketId The ID of the market to open a paying channel within.\n     * @param recipient Ultimate recipient of tokens earned, recipient must be provider in the market.\n     * @param delegate The address of the (offchain) provider delegate allowed to earn on the channel.\n     * @param amount Amount of XBR Token to deposit into the paying channel (the initial off-chain balance).\n     * @param timeout Channel timeout which will apply.\n     */\n    function openPayingChannel (bytes16 marketId, address recipient, address delegate,\n        uint256 amount, uint32 timeout) public returns (address paymentChannel) {\n\n        // market must exist\n        require(markets[marketId].owner != address(0), \"NO_SUCH_MARKET\");\n\n        // sender must be market maker for market\n        require(markets[marketId].maker == msg.sender, \"SENDER_NOT_MAKER\");\n\n        // recipient must be provider in the market\n        require(uint8(markets[marketId].providerActors[recipient].joined) != 0, \"RECIPIENT_NOT_PROVIDER\");\n\n        // must provide a valid off-chain channel delegate address\n        require(delegate != address(0), \"INVALID_CHANNEL_DELEGATE\");\n\n        // payment channel amount must be positive\n        require(amount > 0 && amount <= network.token().totalSupply(), \"INVALID_CHANNEL_AMOUNT\");\n\n        // payment channel timeout can be [0 seconds - 10 days[\n        require(timeout >= 0 && timeout < 864000, \"INVALID_CHANNEL_TIMEOUT\");\n\n        // create new paying channel contract\n        XBRChannel channel = new XBRChannel(network.organization(), address(network.token), address(this),\n            marketId, markets[marketId].maker, msg.sender, delegate, recipient, amount, timeout,\n            XBRChannel.ChannelType.PAYING);\n\n        // transfer tokens (initial balance) into payment channel contract\n        bool success = network.token().transferFrom(msg.sender, address(channel), amount);\n        require(success, \"OPEN_CHANNEL_TRANSFER_FROM_FAILED\");\n\n        // remember the new payment channel associated with the market\n        //markets[marketId].channels.push(address(channel));\n        markets[marketId].providerActors[recipient].channels.push(address(channel));\n\n        // emit event ChannelCreated(bytes16 marketId, address sender, address delegate,\n        //  address recipient, address channel)\n        emit ChannelCreated(marketId, channel.sender(), channel.delegate(), channel.recipient(),\n            address(channel), XBRChannel.ChannelType.PAYING);\n\n        return address(channel);\n    }\n\n    /**\n     * Lookup all provider actors in a XBR Market.\n     *\n     * @param marketId The XBR Market to provider actors for.\n     * @return List of provider actor addresses in the market.\n     */\n    function getAllMarketProviders(bytes16 marketId) public view returns (address[] memory) {\n        return markets[marketId].providerActorAdrs;\n    }\n\n    /**\n     * Lookup all consumer actors in a XBR Market.\n     *\n     * @param marketId The XBR Market to consumer actors for.\n     * @return List of consumer actor addresses in the market.\n     */\n    function getAllMarketConsumers(bytes16 marketId) public view returns (address[] memory) {\n        return markets[marketId].consumerActorAdrs;\n    }\n\n    /**\n     * Lookup all payment channels for an consumer actor in a XBR Market.\n     *\n     * @param marketId The XBR Market to get payment channels for.\n     * @param actor The XBR actor to get payment channels for.\n     * @return List of contract addresses of payment channels in the market.\n     */\n    function getAllPaymentChannels(bytes16 marketId, address actor) public view returns (address[] memory) {\n        return markets[marketId].consumerActors[actor].channels;\n    }\n\n    /**\n     * Lookup all paying channels for an provider actor in a XBR Market.\n     *\n     * @param marketId The XBR Market to get paying channels for.\n     * @param actor The XBR actor to get paying channels for.\n     * @return List of contract addresses of paying channels in the market.\n     */\n    function getAllPayingChannels(bytes16 marketId, address actor) public view returns (address[] memory) {\n        return markets[marketId].providerActors[actor].channels;\n    }\n\n    /**\n     * Lookup the current payment channel to use for the given delegate in the given market.\n     *\n     * @param marketId The XBR Market to get the current payment channel address for.\n     * @param delegate The delegate to get the current payment channel address for.\n     * @return Current payment channel address for the given delegate/market.\n     */\n    function currentPaymentChannelByDelegate(bytes16 marketId, address delegate) public view returns (address) {\n        return markets[marketId].currentPaymentChannelByDelegate[delegate];\n    }\n\n    /**\n     * Lookup the current paying channel to use for the given delegate in the given market.\n     *\n     * @param marketId The XBR Market to get the current paying channel address for.\n     * @param delegate The delegate to get the current paying channel address for.\n     * @return Current paying channel address for the given delegate/market.\n     */\n    function currentPayingChannelByDelegate(bytes16 marketId, address delegate) public view returns (address) {\n        return markets[marketId].currentPayingChannelByDelegate[delegate];\n    }\n}\n",
  "sourcePath": "/home/oberstet/scm/crossbario/xbr-protocol/contracts/XBRMarket.sol",
  "compiler": {
    "name": "solc",
    "version": "0.5.16+commit.9c3226ce.Emscripten.clang"
  },
  "schemaVersion": "3.0.23",
  "updatedAt": "2020-03-01T11:22:57.658Z",
  "devdoc": {
    "author": "The XBR Project",
    "methods": {
      "addMaintainer(address)": {
        "params": {
          "account": "The account to grant maintainer rights to."
        }
      },
      "constructor": {
        "params": {
          "network_": "The network this market is part of."
        }
      },
      "createMarket(bytes16,string,string,address,uint256,uint256,uint256)": {
        "params": {
          "consumerSecurity": "The amount of XBR tokens a XBR consumer joining the market must deposit.",
          "maker": "The address of the XBR market maker that will run this market. The delegate of the market owner.",
          "marketFee": "The fee taken by the market (beneficiary is the market owner). The fee is a percentage of                 the revenue of the XBR Provider that receives XBR Token paid for transactions.                 The fee must be between 0% (inclusive) and 99% (inclusive), and is expressed as                 a fraction of the total supply of XBR tokens.",
          "marketId": "The ID of the market to create. Must be unique (not yet existing). To generate a new ID you can do `python -c \"import uuid; print(uuid.uuid4().bytes.hex())\"`.",
          "meta": "The XBR market metadata published by the market owner. IPFS Multihash pointing            to a RDF/Turtle file with market metadata.",
          "providerSecurity": "The amount of XBR tokens a XBR provider joining the market must deposit.",
          "terms": "The XBR market terms set by the market owner. IPFS Multihash pointing             to a ZIP archive file with market documents."
        }
      },
      "currentPayingChannelByDelegate(bytes16,address)": {
        "params": {
          "delegate": "The delegate to get the current paying channel address for.",
          "marketId": "The XBR Market to get the current paying channel address for."
        },
        "return": "Current paying channel address for the given delegate/market."
      },
      "currentPaymentChannelByDelegate(bytes16,address)": {
        "params": {
          "delegate": "The delegate to get the current payment channel address for.",
          "marketId": "The XBR Market to get the current payment channel address for."
        },
        "return": "Current payment channel address for the given delegate/market."
      },
      "getAllMarketConsumers(bytes16)": {
        "params": {
          "marketId": "The XBR Market to consumer actors for."
        },
        "return": "List of consumer actor addresses in the market."
      },
      "getAllMarketProviders(bytes16)": {
        "params": {
          "marketId": "The XBR Market to provider actors for."
        },
        "return": "List of provider actor addresses in the market."
      },
      "getAllPayingChannels(bytes16,address)": {
        "params": {
          "actor": "The XBR actor to get paying channels for.",
          "marketId": "The XBR Market to get paying channels for."
        },
        "return": "List of contract addresses of paying channels in the market."
      },
      "getAllPaymentChannels(bytes16,address)": {
        "params": {
          "actor": "The XBR actor to get payment channels for.",
          "marketId": "The XBR Market to get payment channels for."
        },
        "return": "List of contract addresses of payment channels in the market."
      },
      "isMaintainer(address)": {
        "params": {
          "account": "The account to check."
        },
        "return": "`true` if the account is maintainer, otherwise `false`."
      },
      "joinMarket(bytes16,uint8,string)": {
        "params": {
          "actorType": "The type of actor under which to join: PROVIDER or CONSUMER.",
          "marketId": "The ID of the XBR data market to join.",
          "meta": "The XBR market provider/consumer metadata. IPFS Multihash pointing to a JSON file with metadata."
        }
      },
      "openPayingChannel(bytes16,address,address,uint256,uint32)": {
        "params": {
          "amount": "Amount of XBR Token to deposit into the paying channel (the initial off-chain balance).",
          "delegate": "The address of the (offchain) provider delegate allowed to earn on the channel.",
          "marketId": "The ID of the market to open a paying channel within.",
          "recipient": "Ultimate recipient of tokens earned, recipient must be provider in the market.",
          "timeout": "Channel timeout which will apply."
        }
      },
      "openPaymentChannel(bytes16,address,address,uint256,uint32)": {
        "params": {
          "amount": "Amount of XBR Token to deposit into the payment channel (the initial off-chain balance).",
          "delegate": "The address of the (offchain) consumer delegate allowed to consume the channel.",
          "marketId": "The ID of the market to open a payment channel within.",
          "recipient": "Recipient of the earned off-chain transaction amounts of this single channel,                 commonly the market operator.",
          "timeout": "Channel timeout which will apply."
        }
      },
      "requestPayingChannel(bytes16,address,address,uint256,uint32)": {
        "params": {
          "amount": "Amount of XBR Token to deposit into the paying channel (the initial off-chain balance).",
          "delegate": "The address of the (offchain) provider delegate allowed to sell into the channel.",
          "marketId": "The ID of the market to request a paying channel within.",
          "timeout": "Channel timeout which will apply."
        }
      }
    },
    "title": "XBR Market smart contract."
  },
  "userdoc": {
    "methods": {
      "addMaintainer(address)": {
        "notice": "Add a new maintainer to the list of maintainers."
      },
      "constructor": "Constructor.",
      "createMarket(bytes16,string,string,address,uint256,uint256,uint256)": {
        "notice": "Create a new XBR market. The sender of the transaction must be XBR network member and automatically becomes owner of the new market."
      },
      "currentPayingChannelByDelegate(bytes16,address)": {
        "notice": "Lookup the current paying channel to use for the given delegate in the given market."
      },
      "currentPaymentChannelByDelegate(bytes16,address)": {
        "notice": "Lookup the current payment channel to use for the given delegate in the given market."
      },
      "getAllMarketConsumers(bytes16)": {
        "notice": "Lookup all consumer actors in a XBR Market."
      },
      "getAllMarketProviders(bytes16)": {
        "notice": "Lookup all provider actors in a XBR Market."
      },
      "getAllPayingChannels(bytes16,address)": {
        "notice": "Lookup all paying channels for an provider actor in a XBR Market."
      },
      "getAllPaymentChannels(bytes16,address)": {
        "notice": "Lookup all payment channels for an consumer actor in a XBR Market."
      },
      "isMaintainer(address)": {
        "notice": "Check if the given address is currently a maintainer."
      },
      "joinMarket(bytes16,uint8,string)": {
        "notice": "Join the given XBR market as the specified type of actor, which must be PROVIDER or CONSUMER."
      },
      "openPayingChannel(bytes16,address,address,uint256,uint32)": {
        "notice": "Open a new paying channel and deposit an amount of XBR token for off-chain consumption. Must be called by the market maker in response to a successful request for a paying channel."
      },
      "openPaymentChannel(bytes16,address,address,uint256,uint32)": {
        "notice": "Open a new payment channel and deposit an amount of XBR token for off-chain consumption. Must be called by the data consumer (XBR buyer) and an off-chain buyer delegate address must be given."
      },
      "renounceMaintainer()": {
        "notice": "Give away maintainer rights."
      },
      "requestPayingChannel(bytes16,address,address,uint256,uint32)": {
        "notice": "As a data provider, request a new payment channel to get paid by the market maker. Given sufficient security amount (deposited by the data provider when joining the marker) to cover the request amount, the market maker will open a payment (state) channel to allow the market maker buying data keys in microtransactions, and offchain. The creation of the payment channel is asynchronously: the market maker is watching the global blockchain filtering for events relevant to the market managed by the maker. When a request to open a payment channel is recognized by the market maker, it will check the provider for sufficient security deposit covering the requested amount, and if all is fine, create a new payment channel and store the contract address for the channel request ID, so the data provider can retrieve it."
      }
    }
  }
}