{
  "contractName": "XBRNetwork",
  "abi": [
    {
      "constant": true,
      "inputs": [
        {
          "name": "",
          "type": "address"
        }
      ],
      "name": "marketsByMaker",
      "outputs": [
        {
          "name": "",
          "type": "bytes16"
        }
      ],
      "payable": false,
      "stateMutability": "view",
      "type": "function"
    },
    {
      "constant": true,
      "inputs": [],
      "name": "organization",
      "outputs": [
        {
          "name": "",
          "type": "address"
        }
      ],
      "payable": false,
      "stateMutability": "view",
      "type": "function"
    },
    {
      "constant": false,
      "inputs": [],
      "name": "renounceMaintainer",
      "outputs": [],
      "payable": false,
      "stateMutability": "nonpayable",
      "type": "function"
    },
    {
      "constant": false,
      "inputs": [
        {
          "name": "account",
          "type": "address"
        }
      ],
      "name": "addMaintainer",
      "outputs": [],
      "payable": false,
      "stateMutability": "nonpayable",
      "type": "function"
    },
    {
      "constant": true,
      "inputs": [
        {
          "name": "account",
          "type": "address"
        }
      ],
      "name": "isMaintainer",
      "outputs": [
        {
          "name": "",
          "type": "bool"
        }
      ],
      "payable": false,
      "stateMutability": "view",
      "type": "function"
    },
    {
      "inputs": [
        {
          "name": "token_",
          "type": "address"
        },
        {
          "name": "organization_",
          "type": "address"
        }
      ],
      "payable": false,
      "stateMutability": "nonpayable",
      "type": "constructor"
    },
    {
      "anonymous": false,
      "inputs": [
        {
          "indexed": true,
          "name": "member",
          "type": "address"
        },
        {
          "indexed": false,
          "name": "eula",
          "type": "string"
        },
        {
          "indexed": false,
          "name": "profile",
          "type": "string"
        },
        {
          "indexed": false,
          "name": "level",
          "type": "uint8"
        }
      ],
      "name": "MemberCreated",
      "type": "event"
    },
    {
      "anonymous": false,
      "inputs": [
        {
          "indexed": false,
          "name": "member",
          "type": "address"
        }
      ],
      "name": "MemberRetired",
      "type": "event"
    },
    {
      "anonymous": false,
      "inputs": [
        {
          "indexed": true,
          "name": "marketId",
          "type": "bytes16"
        },
        {
          "indexed": false,
          "name": "marketSeq",
          "type": "uint32"
        },
        {
          "indexed": false,
          "name": "owner",
          "type": "address"
        },
        {
          "indexed": false,
          "name": "terms",
          "type": "string"
        },
        {
          "indexed": false,
          "name": "meta",
          "type": "string"
        },
        {
          "indexed": false,
          "name": "maker",
          "type": "address"
        },
        {
          "indexed": false,
          "name": "providerSecurity",
          "type": "uint256"
        },
        {
          "indexed": false,
          "name": "consumerSecurity",
          "type": "uint256"
        },
        {
          "indexed": false,
          "name": "marketFee",
          "type": "uint256"
        }
      ],
      "name": "MarketCreated",
      "type": "event"
    },
    {
      "anonymous": false,
      "inputs": [
        {
          "indexed": true,
          "name": "marketId",
          "type": "bytes16"
        },
        {
          "indexed": false,
          "name": "marketSeq",
          "type": "uint32"
        },
        {
          "indexed": false,
          "name": "owner",
          "type": "address"
        },
        {
          "indexed": false,
          "name": "terms",
          "type": "string"
        },
        {
          "indexed": false,
          "name": "meta",
          "type": "string"
        },
        {
          "indexed": false,
          "name": "maker",
          "type": "address"
        },
        {
          "indexed": false,
          "name": "providerSecurity",
          "type": "uint256"
        },
        {
          "indexed": false,
          "name": "consumerSecurity",
          "type": "uint256"
        },
        {
          "indexed": false,
          "name": "marketFee",
          "type": "uint256"
        }
      ],
      "name": "MarketUpdated",
      "type": "event"
    },
    {
      "anonymous": false,
      "inputs": [
        {
          "indexed": true,
          "name": "marketId",
          "type": "bytes16"
        }
      ],
      "name": "MarketClosed",
      "type": "event"
    },
    {
      "anonymous": false,
      "inputs": [
        {
          "indexed": true,
          "name": "marketId",
          "type": "bytes16"
        },
        {
          "indexed": false,
          "name": "actor",
          "type": "address"
        },
        {
          "indexed": false,
          "name": "actorType",
          "type": "uint8"
        },
        {
          "indexed": false,
          "name": "security",
          "type": "uint256"
        },
        {
          "indexed": false,
          "name": "meta",
          "type": "string"
        }
      ],
      "name": "ActorJoined",
      "type": "event"
    },
    {
      "anonymous": false,
      "inputs": [
        {
          "indexed": true,
          "name": "marketId",
          "type": "bytes16"
        },
        {
          "indexed": false,
          "name": "actor",
          "type": "address"
        },
        {
          "indexed": false,
          "name": "actorType",
          "type": "uint8"
        }
      ],
      "name": "ActorLeft",
      "type": "event"
    },
    {
      "anonymous": false,
      "inputs": [
        {
          "indexed": true,
          "name": "marketId",
          "type": "bytes16"
        },
        {
          "indexed": false,
          "name": "sender",
          "type": "address"
        },
        {
          "indexed": false,
          "name": "delegate",
          "type": "address"
        },
        {
          "indexed": false,
          "name": "receiver",
          "type": "address"
        },
        {
          "indexed": false,
          "name": "channel",
          "type": "address"
        },
        {
          "indexed": false,
          "name": "channelType",
          "type": "uint8"
        }
      ],
      "name": "ChannelCreated",
      "type": "event"
    },
    {
      "anonymous": false,
      "inputs": [
        {
          "indexed": true,
          "name": "marketId",
          "type": "bytes16"
        },
        {
          "indexed": false,
          "name": "sender",
          "type": "address"
        },
        {
          "indexed": false,
          "name": "recipient",
          "type": "address"
        },
        {
          "indexed": false,
          "name": "delegate",
          "type": "address"
        },
        {
          "indexed": false,
          "name": "amount",
          "type": "uint256"
        },
        {
          "indexed": false,
          "name": "timeout",
          "type": "uint32"
        }
      ],
      "name": "PayingChannelRequestCreated",
      "type": "event"
    },
    {
      "anonymous": false,
      "inputs": [
        {
          "indexed": true,
          "name": "account",
          "type": "address"
        }
      ],
      "name": "MaintainerAdded",
      "type": "event"
    },
    {
      "anonymous": false,
      "inputs": [
        {
          "indexed": true,
          "name": "account",
          "type": "address"
        }
      ],
      "name": "MaintainerRemoved",
      "type": "event"
    },
    {
      "constant": false,
      "inputs": [
        {
          "name": "eula",
          "type": "string"
        },
        {
          "name": "profile",
          "type": "string"
        }
      ],
      "name": "register",
      "outputs": [],
      "payable": false,
      "stateMutability": "nonpayable",
      "type": "function"
    },
    {
      "constant": false,
      "inputs": [],
      "name": "unregister",
      "outputs": [],
      "payable": false,
      "stateMutability": "nonpayable",
      "type": "function"
    },
    {
      "constant": false,
      "inputs": [
        {
          "name": "member",
          "type": "address"
        },
        {
          "name": "level",
          "type": "uint8"
        }
      ],
      "name": "setMemberLevel",
      "outputs": [],
      "payable": false,
      "stateMutability": "nonpayable",
      "type": "function"
    },
    {
      "constant": false,
      "inputs": [
        {
          "name": "marketId",
          "type": "bytes16"
        },
        {
          "name": "terms",
          "type": "string"
        },
        {
          "name": "meta",
          "type": "string"
        },
        {
          "name": "maker",
          "type": "address"
        },
        {
          "name": "providerSecurity",
          "type": "uint256"
        },
        {
          "name": "consumerSecurity",
          "type": "uint256"
        },
        {
          "name": "marketFee",
          "type": "uint256"
        }
      ],
      "name": "createMarket",
      "outputs": [],
      "payable": false,
      "stateMutability": "nonpayable",
      "type": "function"
    },
    {
      "constant": false,
      "inputs": [
        {
          "name": "marketId",
          "type": "bytes16"
        },
        {
          "name": "terms",
          "type": "string"
        },
        {
          "name": "meta",
          "type": "string"
        },
        {
          "name": "maker",
          "type": "address"
        },
        {
          "name": "providerSecurity",
          "type": "uint256"
        },
        {
          "name": "consumerSecurity",
          "type": "uint256"
        },
        {
          "name": "marketFee",
          "type": "uint256"
        }
      ],
      "name": "updateMarket",
      "outputs": [
        {
          "name": "",
          "type": "bool"
        }
      ],
      "payable": false,
      "stateMutability": "nonpayable",
      "type": "function"
    },
    {
      "constant": true,
      "inputs": [
        {
          "name": "marketId",
          "type": "bytes16"
        }
      ],
      "name": "closeMarket",
      "outputs": [],
      "payable": false,
      "stateMutability": "view",
      "type": "function"
    },
    {
      "constant": false,
      "inputs": [
        {
          "name": "marketId",
          "type": "bytes16"
        },
        {
          "name": "actorType",
          "type": "uint8"
        },
        {
          "name": "meta",
          "type": "string"
        }
      ],
      "name": "joinMarket",
      "outputs": [
        {
          "name": "",
          "type": "uint256"
        }
      ],
      "payable": false,
      "stateMutability": "nonpayable",
      "type": "function"
    },
    {
      "constant": true,
      "inputs": [
        {
          "name": "marketId",
          "type": "bytes16"
        }
      ],
      "name": "leaveMarket",
      "outputs": [],
      "payable": false,
      "stateMutability": "view",
      "type": "function"
    },
    {
      "constant": false,
      "inputs": [
        {
          "name": "marketId",
          "type": "bytes16"
        },
        {
          "name": "recipient",
          "type": "address"
        },
        {
          "name": "delegate",
          "type": "address"
        },
        {
          "name": "amount",
          "type": "uint256"
        },
        {
          "name": "timeout",
          "type": "uint32"
        }
      ],
      "name": "openPaymentChannel",
      "outputs": [
        {
          "name": "paymentChannel",
          "type": "address"
        }
      ],
      "payable": false,
      "stateMutability": "nonpayable",
      "type": "function"
    },
    {
      "constant": false,
      "inputs": [
        {
          "name": "marketId",
          "type": "bytes16"
        },
        {
          "name": "recipient",
          "type": "address"
        },
        {
          "name": "delegate",
          "type": "address"
        },
        {
          "name": "amount",
          "type": "uint256"
        },
        {
          "name": "timeout",
          "type": "uint32"
        }
      ],
      "name": "requestPayingChannel",
      "outputs": [],
      "payable": false,
      "stateMutability": "nonpayable",
      "type": "function"
    },
    {
      "constant": false,
      "inputs": [
        {
          "name": "marketId",
          "type": "bytes16"
        },
        {
          "name": "recipient",
          "type": "address"
        },
        {
          "name": "delegate",
          "type": "address"
        },
        {
          "name": "amount",
          "type": "uint256"
        },
        {
          "name": "timeout",
          "type": "uint32"
        }
      ],
      "name": "openPayingChannel",
      "outputs": [
        {
          "name": "paymentChannel",
          "type": "address"
        }
      ],
      "payable": false,
      "stateMutability": "nonpayable",
      "type": "function"
    }
  ],
  "bytecode": "0x60806040526001805463ffffffff1916811790553480156200002057600080fd5b506040516040806200467e833981018060405260408110156200004257600080fd5b5080516020909101516200005f3364010000000062000155810204565b600180547fffffffffffffffff0000000000000000000000000000000000000000ffffffff16640100000000600160a060020a03858116919091029190911790915560028054600160a060020a0319169183169190911781556040805160808101825260006060820181815282528251602080820185529181529082015291908201523360009081526003602090815260409091208251805191926200010b92849290910190620002d3565b506020828101518051620001269260018501920190620002d3565b50604082015160028201805460ff191660018360058111156200014557fe5b0217905550905050505062000378565b62000170600082640100000000620032d3620001a782021704565b604051600160a060020a038216907f1390a149489c82e9e2e89927bdb17ad1ea3f0cc314fce06c96369721d3afb8f090600090a250565b620001bc82826401000000006200024e810204565b156200022957604080517f08c379a000000000000000000000000000000000000000000000000000000000815260206004820152601f60248201527f526f6c65733a206163636f756e7420616c72656164792068617320726f6c6500604482015290519081900360640190fd5b600160a060020a0316600090815260209190915260409020805460ff19166001179055565b6000600160a060020a0382161515620002b3576040517f08c379a00000000000000000000000000000000000000000000000000000000081526004018080602001828103825260228152602001806200465c6022913960400191505060405180910390fd5b50600160a060020a03166000908152602091909152604090205460ff1690565b828054600181600116156101000203166002900490600052602060002090601f016020900481019282601f106200031657805160ff191683800117855562000346565b8280016001018555821562000346579182015b828111156200034657825182559160200191906001019062000329565b506200035492915062000358565b5090565b6200037591905b808211156200035457600081556001016200035f565b90565b6142d480620003886000396000f3fe60806040523480156200001157600080fd5b50600436106200011b5760003560e060020a9004806350405fdf11620000a95780638020170211620000735780638020170214620006ff578063dd57366a1462000755578063e79a198f146200077e578063fb58c7c31462000788576200011b565b806350405fdf14620004ed5780635ef75880146200051f5780636b453c1f1462000575578063710ccb38146200059e576200011b565b806323bd4d7a11620000eb57806323bd4d7a1462000331578063314db06b14620003575780633ffbd47f14620003615780634e01967b1462000497576200011b565b806221ec1914620001205780631290cc1a1462000295578063186def2b14620002db5780631ed714de1462000307575b600080fd5b62000281600480360360e08110156200013857600080fd5b6001608060020a031982351691908101906040810160208201356401000000008111156200016557600080fd5b8201836020820111156200017857600080fd5b803590602001918460018302840111640100000000831117156200019b57600080fd5b91908080601f0160208091040260200160405190810160405280939291908181526020018383808284376000920191909152509295949360208101935035915050640100000000811115620001ef57600080fd5b8201836020820111156200020257600080fd5b803590602001918460018302840111640100000000831117156200022557600080fd5b91908080601f01602080910402602001604051908101604052809392919081815260200183838082843760009201919091525092955050600160a060020a0383351693505050602081013590604081013590606001356200085f565b604080519115158252519081900360200190f35b620002be60048036036020811015620002ad57600080fd5b5035600160a060020a031662001040565b604080516001608060020a03199092168252519081900360200190f35b6200030560048036036020811015620002f357600080fd5b50356001608060020a03191662001065565b005b62000305600480360360208110156200031f57600080fd5b50356001608060020a03191662001129565b6200033b6200121c565b60408051600160a060020a039092168252519081900360200190f35b620003056200122b565b62000305600480360360408110156200037957600080fd5b8101906020810181356401000000008111156200039557600080fd5b820183602082011115620003a857600080fd5b80359060200191846001830284011164010000000083111715620003cb57600080fd5b91908080601f01602080910402602001604051908101604052809392919081815260200183838082843760009201919091525092959493602081019350359150506401000000008111156200041f57600080fd5b8201836020820111156200043257600080fd5b803590602001918460018302840111640100000000831117156200045557600080fd5b91908080601f01602080910402602001604051908101604052809392919081815260200183838082843760009201919091525092955062001238945050505050565b6200033b600480360360a0811015620004af57600080fd5b5080356001608060020a031916906020810135600160a060020a03908116916040810135909116906060810135906080013563ffffffff166200157e565b62000305600480360360408110156200050557600080fd5b508035600160a060020a0316906020013560ff1662001af2565b62000305600480360360a08110156200053757600080fd5b5080356001608060020a031916906020810135600160a060020a03908116916040810135909116906060810135906080013563ffffffff1662001bbe565b62000305600480360360208110156200058d57600080fd5b5035600160a060020a031662001db1565b62000305600480360360e0811015620005b657600080fd5b6001608060020a03198235169190810190604081016020820135640100000000811115620005e357600080fd5b820183602082011115620005f657600080fd5b803590602001918460018302840111640100000000831117156200061957600080fd5b91908080601f01602080910402602001604051908101604052809392919081815260200183838082843760009201919091525092959493602081019350359150506401000000008111156200066d57600080fd5b8201836020820111156200068057600080fd5b80359060200191846001830284011164010000000083111715620006a357600080fd5b91908080601f01602080910402602001604051908101604052809392919081815260200183838082843760009201919091525092955050600160a060020a03833516935050506020810135906040810135906060013562001dd3565b6200033b600480360360a08110156200071757600080fd5b5080356001608060020a031916906020810135600160a060020a03908116916040810135909116906060810135906080013563ffffffff16620026eb565b62000281600480360360208110156200076d57600080fd5b5035600160a060020a031662002bd3565b6200030562002bed565b6200084d60048036036060811015620007a057600080fd5b6001608060020a03198235169160ff60208201351691810190606081016040820135640100000000811115620007d557600080fd5b820183602082011115620007e857600080fd5b803590602001918460018302840111640100000000831117156200080b57600080fd5b91908080601f01602080910402602001604051908101604052809392919081815260200183838082843760009201919091525092955062002cbe945050505050565b60408051918252519081900360200190f35b6001608060020a03198716600090815260046020526040812080546401000000009004600160a060020a03161515620008d1576040805160e560020a62461bcd02815260206004820152600e6024820152600080516020620041f7833981519152604482015290519081900360640190fd5b80546401000000009004600160a060020a031633146200093b576040805160e560020a62461bcd02815260206004820152600e60248201527f4e4f545f415554484f52495a4544000000000000000000000000000000000000604482015290519081900360640190fd5b600160a060020a038616600090815260056020526040902054700100000000000000000000000000000000026001608060020a03191615620009b25760405160e560020a62461bcd028152600401808060200182810382526026815260200180620041d16026913960400191505060405180910390fd5b60008310158015620009cf57506b0332e8a789bc7ef49e00000083105b151562000a26576040805160e560020a62461bcd02815260206004820152601260248201527f494e56414c49445f4d41524b45545f4645450000000000000000000000000000604482015290519081900360640190fd5b6000600160a060020a0387161580159062000a5157506003820154600160a060020a03888116911614155b1562000a9057506001608060020a0319891660009081526004602052604090206003018054600160a060020a031916600160a060020a03881617905560015b6000895111801562000bdc575081600101604051602001808060200182810382528381815460018160011615610100020316600290048152602001915080546001816001161561010002031660029004801562000b315780601f1062000b055761010080835404028352916020019162000b31565b820191906000526020600020905b81548152906001019060200180831162000b1357829003601f168201915b50509250505060405160208183030381529060405280519060200120896040516020018080602001828103825283818151815260200191508051906020019080838360005b8381101562000b9057818101518382015260200162000b76565b50505050905090810190601f16801562000bbe5780820380516001836020036101000a031916815260200191505b50925050506040516020818303038152906040528051906020012014155b1562000c1a576001608060020a03198a1660009081526004602090815260409091208a5162000c14926001909201918c01906200335a565b50600190505b6000885111801562000d5b57506040805160208082019081526002808601805460001961010060018316150201169190910493830184905292909182916060909101908490801562000cb05780601f1062000c845761010080835404028352916020019162000cb0565b820191906000526020600020905b81548152906001019060200180831162000c9257829003601f168201915b50509250505060405160208183030381529060405280519060200120886040516020018080602001828103825283818151815260200191508051906020019080838360005b8381101562000d0f57818101518382015260200162000cf5565b50505050905090810190601f16801562000d3d5780820380516001836020036101000a031916815260200191505b50925050506040516020818303038152906040528051906020012014155b1562000d99576001608060020a03198a166000908152600460209081526040909120895162000d93926002909201918b01906200335a565b50600190505b6004820154861462000dc957506001608060020a0319891660009081526004602081905260409091200185905560015b6005820154851462000df857506001608060020a03198916600090815260046020526040902060050184905560015b6006820154841462000e2757506001608060020a03198916600090815260046020526040902060060183905560015b80156200103357896fffffffffffffffffffffffffffffffff19167fe5e16c8bac0b35f728c96809036d527464a2850cd0ab58970a44d72b107498f68360000160009054906101000a900463ffffffff168460000160049054906101000a9004600160a060020a031685600101866002018760030160009054906101000a9004600160a060020a0316886004015489600501548a60060154604051808963ffffffff1663ffffffff16815260200188600160a060020a0316600160a060020a03168152602001806020018060200187600160a060020a0316600160a060020a0316815260200186815260200185815260200184815260200183810383528981815460018160011615610100020316600290048152602001915080546001816001161561010002031660029004801562000fa45780601f1062000f785761010080835404028352916020019162000fa4565b820191906000526020600020905b81548152906001019060200180831162000f8657829003601f168201915b50508381038252885460026000196101006001841615020190911604808252602090910190899080156200101c5780601f1062000ff0576101008083540402835291602001916200101c565b820191906000526020600020905b81548152906001019060200180831162000ffe57829003601f168201915b50509a505050505050505050505060405180910390a25b9998505050505050505050565b6005602052600090815260409020547001000000000000000000000000000000000281565b6001608060020a031981166000908152600460205260409020546401000000009004600160a060020a03161515620010d6576040805160e560020a62461bcd02815260206004820152600e6024820152600080516020620041f7833981519152604482015290519081900360640190fd5b6040805160e560020a62461bcd02815260206004820152600f60248201527f4e4f545f494d504c454d454e5445440000000000000000000000000000000000604482015290519081900360640190fd5b50565b6001608060020a031981166000908152600460205260409020546401000000009004600160a060020a031615156200119a576040805160e560020a62461bcd02815260206004820152600e6024820152600080516020620041f7833981519152604482015290519081900360640190fd5b6001608060020a031981166000908152600460205260409020546401000000009004600160a060020a03163314620010d6576040805160e560020a62461bcd02815260206004820152600e60248201527f4e4f545f415554484f52495a4544000000000000000000000000000000000000604482015290519081900360640190fd5b600254600160a060020a031681565b620012363362003161565b565b3360009081526003602052604090206002015460ff1660058111156200125a57fe5b15620012b0576040805160e560020a62461bcd02815260206004820152601960248201527f4d454d4245525f414c52454144595f5245474953544552454400000000000000604482015290519081900360640190fd5b60405160200180806020018281038252602e8152602001806200425a602e913960400191505060405160208183030381529060405280519060200120826040516020018080602001828103825283818151815260200191508051906020019080838360005b838110156200132f57818101518382015260200162001315565b50505050905090810190601f1680156200135d5780820380516001836020036101000a031916815260200191505b509250505060405160208183030381529060405280519060200120141515620013d0576040805160e560020a62461bcd02815260206004820152600c60248201527f494e56414c49445f45554c410000000000000000000000000000000000000000604482015290519081900360640190fd5b604080516060810182528381526020808201849052600182840152336000908152600382529290922081518051929391926200141092849201906200335a565b5060208281015180516200142b92600185019201906200335a565b50604082015160028201805460ff191660018360058111156200144a57fe5b021790555090505033600160a060020a03167ff80f80714d0c23a9fad9abecbe04fa405bb13477a68a69a520886c0bb9853b29838360016040518080602001806020018460058111156200149a57fe5b60ff168152602001838103835286818151815260200191508051906020019080838360005b83811015620014d9578181015183820152602001620014bf565b50505050905090810190601f168015620015075780820380516001836020036101000a031916815260200191505b50838103825285518152855160209182019187019080838360005b838110156200153c57818101518382015260200162001522565b50505050905090810190601f1680156200156a5780820380516001836020036101000a031916815260200191505b509550505050505060405180910390a25050565b6001608060020a031985166000908152600460205260408120546401000000009004600160a060020a03161515620015ef576040805160e560020a62461bcd02815260206004820152600e6024820152600080516020620041f7833981519152604482015290519081900360640190fd5b6001608060020a03198616600090815260046020526040902060030154600160a060020a031633146200166c576040805160e560020a62461bcd02815260206004820152601060248201527f53454e4445525f4e4f545f4d414b455200000000000000000000000000000000604482015290519081900360640190fd5b6001608060020a031986166000908152600460208181526040808420600160a060020a038a1685526009019091529091205460039160ff90911690811115620016b157fe5b60ff16146200170a576040805160e560020a62461bcd02815260206004820152601660248201527f524543495049454e545f4e4f545f50524f564944455200000000000000000000604482015290519081900360640190fd5b6001546000906401000000009004600160a060020a0316873387898888600262001733620033df565b600160a060020a03808a1682526001608060020a031989166020830152878116604083015286811660608301528516608082015260a0810184905263ffffffff831660c082015260e081018260028111156200178b57fe5b60ff16815260200198505050505050505050604051809103906000f080158015620017ba573d6000803e3d6000fd5b50600154604080517f23b872dd000000000000000000000000000000000000000000000000000000008152336004820152600160a060020a038085166024830152604482018990529151939450640100000000909204169160009183916323b872dd9160648082019260209290919082900301818787803b1580156200183f57600080fd5b505af115801562001854573d6000803e3d6000fd5b505050506040513d60208110156200186b57600080fd5b50519050801515620018b25760405160e560020a62461bcd028152600401808060200182810382526021815260200180620042886021913960400191505060405180910390fd5b6001608060020a0319891660008181526004602081815260408084206007018054600181018255908552938290209093018054600160a060020a031916600160a060020a03891690811790915583517f67e404ce00000000000000000000000000000000000000000000000000000000815293517f734f20c5aed5a81ff57bd83ec575d094a7846b1e3fcd2e8e39b030afc2a289049491936367e404ce938382019390929190829003018186803b1580156200196d57600080fd5b505afa15801562001982573d6000803e3d6000fd5b505050506040513d60208110156200199957600080fd5b5051604080517fc89e43610000000000000000000000000000000000000000000000000000000081529051600160a060020a0388169163c89e4361916004808301926020929190829003018186803b158015620019f557600080fd5b505afa15801562001a0a573d6000803e3d6000fd5b505050506040513d602081101562001a2157600080fd5b5051604080517f66d003ac0000000000000000000000000000000000000000000000000000000081529051600160a060020a038916916366d003ac916004808301926020929190829003018186803b15801562001a7d57600080fd5b505afa15801562001a92573d6000803e3d6000fd5b505050506040513d602081101562001aa957600080fd5b505160408051600160a060020a03948516815292841660208401529083168282015291871660608201526002608082015290519081900360a00190a25090979650505050505050565b62001afd3362002bd3565b151562001b0957600080fd5b3360009081526003602052604090206002015460ff16600581111562001b2b57fe5b151562001b82576040805160e560020a62461bcd02815260206004820152600e60248201527f4e4f5f535543485f4d454d424552000000000000000000000000000000000000604482015290519081900360640190fd5b600160a060020a0382166000908152600360205260409020600201805482919060ff1916600183600581111562001bb557fe5b02179055505050565b6001608060020a031985166000908152600460205260409020546401000000009004600160a060020a0316151562001c2f576040805160e560020a62461bcd02815260206004820152600e6024820152600080516020620041f7833981519152604482015290519081900360640190fd5b6001608060020a03198516600090815260046020526040902060030154600160a060020a0316151562001cac576040805160e560020a62461bcd02815260206004820152601660248201527f4e4f5f4143544956455f4d41524b45545f4d414b455200000000000000000000604482015290519081900360640190fd5b6001608060020a0319851660009081526004602081815260408084203385526009019091529091205460039160ff9091169081111562001ce857fe5b60ff161462001d41576040805160e560020a62461bcd02815260206004820152601060248201527f4e4f5f50524f56494445525f524f4c4500000000000000000000000000000000604482015290519081900360640190fd5b60408051338152600160a060020a0380871660208301528516818301526060810184905263ffffffff8316608082015290516001608060020a03198716917f1c3be017379c486bade742062ae83c3a0a25974e898e26fd98a221d0c53d9dca919081900360a00190a25050505050565b62001dbc3362002bd3565b151562001dc857600080fd5b6200112681620031ab565b6001608060020a031987166000908152600460205260409020546401000000009004600160a060020a03161562001e54576040805160e560020a62461bcd02815260206004820152601560248201527f4d41524b45545f414c52454144595f4558495354530000000000000000000000604482015290519081900360640190fd5b600160a060020a038416151562001eb5576040805160e560020a62461bcd02815260206004820152600d60248201527f494e56414c49445f4d414b455200000000000000000000000000000000000000604482015290519081900360640190fd5b600160a060020a038416600090815260056020526040902054700100000000000000000000000000000000026001608060020a0319161562001f2c5760405160e560020a62461bcd028152600401808060200182810382526026815260200180620041d16026913960400191505060405180910390fd5b6000831015801562001fbd5750600160049054906101000a9004600160a060020a0316600160a060020a03166318160ddd6040518163ffffffff1660e060020a02815260040160206040518083038186803b15801562001f8b57600080fd5b505afa15801562001fa0573d6000803e3d6000fd5b505050506040513d602081101562001fb757600080fd5b50518311155b151562002014576040805160e560020a62461bcd02815260206004820152601960248201527f494e56414c49445f50524f56494445525f534543555249545900000000000000604482015290519081900360640190fd5b60008210158015620020a55750600160049054906101000a9004600160a060020a0316600160a060020a03166318160ddd6040518163ffffffff1660e060020a02815260040160206040518083038186803b1580156200207357600080fd5b505afa15801562002088573d6000803e3d6000fd5b505050506040513d60208110156200209f57600080fd5b50518211155b1515620020fc576040805160e560020a62461bcd02815260206004820152601960248201527f494e56414c49445f434f4e53554d45525f534543555249545900000000000000604482015290519081900360640190fd5b600081101580156200219b575062989680600160049054906101000a9004600160a060020a0316600160a060020a03166318160ddd6040518163ffffffff1660e060020a02815260040160206040518083038186803b1580156200215f57600080fd5b505afa15801562002174573d6000803e3d6000fd5b505050506040513d60208110156200218b57600080fd5b505103670de0b6b3a76400000281105b1515620021f2576040805160e560020a62461bcd02815260206004820152601260248201527f494e56414c49445f4d41524b45545f4645450000000000000000000000000000604482015290519081900360640190fd5b604080516101408101825260015463ffffffff1681523360208083019190915281830189905260608201889052600160a060020a038716608083015260a0820186905260c0820185905260e0820184905282516000808252818301855261010084019190915283518181529182019093529091610120830191905090526001608060020a031988166000908152600460209081526040918290208351815485840151600160a060020a03166401000000000277ffffffffffffffffffffffffffffffffffffffff000000001963ffffffff90931663ffffffff199092169190911791909116178155918301518051620022f292600185019201906200335a565b5060608201518051620023109160028401916020909101906200335a565b506080820151600382018054600160a060020a031916600160a060020a0390921691909117905560a0820151600482015560c0820151600582015560e08201516006820155610100820151805162002373916007840191602090910190620033f0565b50610120820151805162002392916008840191602090910190620033f0565b50506040805160808101825260028152600060208083018290528351808201855282815283850152606083018290526001608060020a03198c16825260048082528483203384526009019091529290208151815492945090929091839160ff199091169060019084908111156200240557fe5b02179055506020828101516001830155604083015180516200242e92600285019201906200335a565b506060820151816003015590505060046000886fffffffffffffffffffffffffffffffff19166fffffffffffffffffffffffffffffffff191681526020019081526020016000206008018490806001815401808255809150509060018203906000526020600020016000909192909190916101000a815481600160a060020a030219169083600160a060020a0316021790555050866005600086600160a060020a0316600160a060020a0316815260200190815260200160002060006101000a8154816fffffffffffffffffffffffffffffffff021916908370010000000000000000000000000000000090040217905550600160009054906101000a900463ffffffff16600101600160006101000a81548163ffffffff021916908363ffffffff160217905550866fffffffffffffffffffffffffffffffff19167f4bd7c78d90ab88f388bfeb546e0c4420507a56234e8f64c32e3f880f3538ce94600160009054906101000a900463ffffffff1633898989898989604051808963ffffffff1663ffffffff16815260200188600160a060020a0316600160a060020a03168152602001806020018060200187600160a060020a0316600160a060020a03168152602001868152602001858152602001848152602001838103835289818151815260200191508051906020019080838360005b838110156200263c57818101518382015260200162002622565b50505050905090810190601f1680156200266a5780820380516001836020036101000a031916815260200191505b5083810382528851815288516020918201918a019080838360005b838110156200269f57818101518382015260200162002685565b50505050905090810190601f168015620026cd5780820380516001836020036101000a031916815260200191505b509a505050505050505050505060405180910390a250505050505050565b6001608060020a031985166000908152600460205260408120546401000000009004600160a060020a031615156200275c576040805160e560020a62461bcd02815260206004820152600e6024820152600080516020620041f7833981519152604482015290519081900360640190fd5b6001608060020a0319861660009081526004602081815260408084203385526009019091529091205460ff16818111156200279357fe5b60ff1614620027ec576040805160e560020a62461bcd02815260206004820152601060248201527f4e4f5f434f4e53554d45525f524f4c4500000000000000000000000000000000604482015290519081900360640190fd5b6000600160049054906101000a9004600160a060020a0316873387898888600162002816620033df565b600160a060020a03808a1682526001608060020a031989166020830152878116604083015286811660608301528516608082015260a0810184905263ffffffff831660c082015260e081018260028111156200286e57fe5b60ff16815260200198505050505050505050604051809103906000f0801580156200289d573d6000803e3d6000fd5b50600154604080517f23b872dd000000000000000000000000000000000000000000000000000000008152336004820152600160a060020a038481166024830152604482018990529151939450600093640100000000909304909116916323b872dd9160648082019260209290919082900301818787803b1580156200292257600080fd5b505af115801562002937573d6000803e3d6000fd5b505050506040513d60208110156200294e57600080fd5b50519050801515620029955760405160e560020a62461bcd028152600401808060200182810382526021815260200180620042886021913960400191505060405180910390fd5b6001608060020a0319881660008181526004602081815260408084206007018054600181018255908552938290209093018054600160a060020a031916600160a060020a03881690811790915583517f67e404ce00000000000000000000000000000000000000000000000000000000815293517f734f20c5aed5a81ff57bd83ec575d094a7846b1e3fcd2e8e39b030afc2a289049491936367e404ce938382019390929190829003018186803b15801562002a5057600080fd5b505afa15801562002a65573d6000803e3d6000fd5b505050506040513d602081101562002a7c57600080fd5b5051604080517fc89e43610000000000000000000000000000000000000000000000000000000081529051600160a060020a0387169163c89e4361916004808301926020929190829003018186803b15801562002ad857600080fd5b505afa15801562002aed573d6000803e3d6000fd5b505050506040513d602081101562002b0457600080fd5b5051604080517f66d003ac0000000000000000000000000000000000000000000000000000000081529051600160a060020a038816916366d003ac916004808301926020929190829003018186803b15801562002b6057600080fd5b505afa15801562002b75573d6000803e3d6000fd5b505050506040513d602081101562002b8c57600080fd5b505160408051600160a060020a03948516815292841660208401529083168282015291861660608201526001608082015290519081900360a00190a2509695505050505050565b600062002be7818363ffffffff620031f516565b92915050565b3360009081526003602052604090206002015460ff16600581111562002c0f57fe5b151562002c66576040805160e560020a62461bcd02815260206004820152600e60248201527f4e4f5f535543485f4d454d424552000000000000000000000000000000000000604482015290519081900360640190fd5b336000908152600360208190526040909120600201805460ff191660018302179055506040805133815290517fa59e3b52cc428f9ef295563b34bd6af71489d571edf9d7f38ba0e977d0abc6cf9181900360200190a1565b6001608060020a031983166000908152600460205260408120546401000000009004600160a060020a0316151562002d2f576040805160e560020a62461bcd02815260206004820152600e6024820152600080516020620041f7833981519152604482015290519081900360640190fd5b6001608060020a0319841660009081526004602081815260408084203385526009019091529091205460ff169081111562002d6657fe5b60ff161562002dbf576040805160e560020a62461bcd02815260206004820152601460248201527f4143544f525f414c52454144595f4a4f494e4544000000000000000000000000604482015290519081900360640190fd5b600283600481111562002dce57fe5b60ff16148062002ded5750600383600481111562002de857fe5b60ff16145b8062002e0757506004838181111562002e0257fe5b60ff16145b151562002e1357600080fd5b6000600384600481111562002e2457fe5b60ff16141562002e5357506001608060020a031984166000908152600460208190526040909120015462002e93565b6004848181111562002e6157fe5b60ff16141562002e8f57506001608060020a0319841660009081526004602052604090206005015462002e93565b5060005b600081111562002fa257600154604080517f23b872dd0000000000000000000000000000000000000000000000000000000081523360048201523060248201526044810184905290516000926401000000009004600160a060020a0316916323b872dd91606480830192602092919082900301818787803b15801562002f1857600080fd5b505af115801562002f2d573d6000803e3d6000fd5b505050506040513d602081101562002f4457600080fd5b5051905080151562002fa0576040805160e560020a62461bcd02815260206004820181905260248201527f4a4f494e5f4d41524b45545f5452414e534645525f46524f4d5f4641494c4544604482015290519081900360640190fd5b505b60806040519081016040528085600481111562002fbb57fe5b815260208082018490526040808301879052600060609093018390526001608060020a03198916835260048083528184203385526009019092529091208251815491929091839160ff199091169060019084908111156200301857fe5b02179055506020828101516001830155604083015180516200304192600285019201906200335a565b50606091909101516003909101556001608060020a0319851660008181526004602081815260408084206008018054600181018255908552938290209093018054600160a060020a0319163390811790915592518381527ffddabd3503898c96b0a89230335f75495af4c58bb4209bc7516eebfdb02e89539392899287928a9290918201908590811115620030d257fe5b60ff16815260200183815260200180602001828103825283818151815260200191508051906020019080838360005b838110156200311b57818101518382015260200162003101565b50505050905090810190601f168015620031495780820380516001836020036101000a031916815260200191505b509550505050505060405180910390a2949350505050565b6200317460008263ffffffff6200326316565b604051600160a060020a038216907fa7b36d52bea726c3aa90d876d0e52a1089a347b3e3408a03f08eae32f96fdbb490600090a250565b620031be60008263ffffffff620032d316565b604051600160a060020a038216907f1390a149489c82e9e2e89927bdb17ad1ea3f0cc314fce06c96369721d3afb8f090600090a250565b6000600160a060020a0382161515620032435760405160e560020a62461bcd028152600401808060200182810382526022815260200180620042386022913960400191505060405180910390fd5b50600160a060020a03166000908152602091909152604090205460ff1690565b6200326f8282620031f5565b1515620032b15760405160e560020a62461bcd028152600401808060200182810382526021815260200180620042176021913960400191505060405180910390fd5b600160a060020a0316600090815260209190915260409020805460ff19169055565b620032df8282620031f5565b1562003335576040805160e560020a62461bcd02815260206004820152601f60248201527f526f6c65733a206163636f756e7420616c72656164792068617320726f6c6500604482015290519081900360640190fd5b600160a060020a0316600090815260209190915260409020805460ff19166001179055565b828054600181600116156101000203166002900490600052602060002090601f016020900481019282601f106200339d57805160ff1916838001178555620033cd565b82800160010185558215620033cd579182015b82811115620033cd578251825591602001919060010190620033b0565b50620033db92915062003456565b5090565b604051610d33806200349e83390190565b82805482825590600052602060002090810192821562003448579160200282015b82811115620034485782518254600160a060020a031916600160a060020a0390911617825560209092019160019091019062003411565b50620033db92915062003476565b6200347391905b80821115620033db57600081556001016200345d565b90565b6200347391905b80821115620033db578054600160a060020a03191681556001016200347d56fe608060405234801561001057600080fd5b5060405161010080610d33833981018060405261010081101561003257600080fd5b508051602082015160408301516060840151608085015160a086015160c087015160e09097015160008054600160a060020a031916600160a060020a0389161780825597989697959694959394929382919060a060020a60ff021916740100000000000000000000000000000000000000008360028111156100b057fe5b0217905550600080546001919060a860020a60ff021916750100000000000000000000000000000000000000000083021790555050600180546001608060020a0319167001000000000000000000000000000000009097049690961790955560028054600160a060020a0319908116600160a060020a03968716179091556003805482169486169490941790935560048054909316919093161790556005556008805463ffffffff191663ffffffff9092169190911790555043600655610bb78061017c6000396000f3fe608060405234801561001057600080fd5b50600436106100d1576000357c0100000000000000000000000000000000000000000000000000000000900480636ed71ede1161008e5780636ed71ede1461024f57806370dea79a1461027d5780639ef27b001461029e578063aa8c217c146102a6578063c19d93fb146102ae578063c89e4361146102c6576100d1565b806305a78750146100d6578063359d4be2146101025780633893020314610181578063490d59a41461019b57806366d003ac1461022357806367e404ce14610247575b600080fd5b6100de6102ce565b604051808260028111156100ee57fe5b60ff16815260200191505060405180910390f35b61017f600480360361016081101561011957600080fd5b508035906fffffffffffffffffffffffffffffffff196020820135169063ffffffff6040820135169060608101359060808101359060ff60a082013581169160c08101359160e082013591610100810135909116906101208101359061014001356102ef565b005b61018961073c565b60408051918252519081900360200190f35b61020f60048036036101208110156101b257600080fd5b50600160a060020a03813516906020810135906fffffffffffffffffffffffffffffffff196040820135169063ffffffff6060820135169060808101359060a08101359060ff60c0820135169060e0810135906101000135610742565b604080519115158252519081900360200190f35b61022b610a5d565b60408051600160a060020a039092168252519081900360200190f35b61022b610a6c565b610257610a7b565b604080516fffffffffffffffffffffffffffffffff199092168252519081900360200190f35b610285610a94565b6040805163ffffffff9092168252519081900360200190f35b610189610aa0565b610189610aa6565b6102b6610aac565b604051808260038111156100ee57fe5b61022b610ace565b60005474010000000000000000000000000000000000000000900460ff1681565b600160005474010000000000000000000000000000000000000000900460ff16600281111561031a57fe5b141561040b5760025461033d90600160a060020a03168c8c8c8c8c898989610742565b1515610393576040805160e560020a62461bcd02815260206004820152601d60248201527f494e56414c49445f4d41524b45544d414b45525f5349474e4154555245000000604482015290519081900360640190fd5b6003546103b090600160a060020a03168c8c8c8c8c8c8c8c610742565b1515610406576040805160e560020a62461bcd02815260206004820152601a60248201527f494e56414c49445f44454c45474154455f5349474e4154555245000000000000604482015290519081900360640190fd5b6104f1565b60035461042890600160a060020a03168c8c8c8c8c898989610742565b151561047e576040805160e560020a62461bcd02815260206004820152601d60248201527f494e56414c49445f4d41524b45544d414b45525f5349474e4154555245000000604482015290519081900360640190fd5b60025461049b90600160a060020a03168c8c8c8c8c8c8c8c610742565b15156104f1576040805160e560020a62461bcd02815260206004820152601a60248201527f494e56414c49445f44454c45474154455f5349474e4154555245000000000000604482015290519081900360640190fd5b60016000547501000000000000000000000000000000000000000000900460ff16600381111561051d57fe5b14610572576040805160e560020a62461bcd02815260206004820152601060248201527f4348414e4e454c5f4e4f545f4f50454e00000000000000000000000000000000604482015290519081900360640190fd5b6000805460048054600554604080517fa9059cbb000000000000000000000000000000000000000000000000000000008152600160a060020a039384169481019490945260248401919091525192169163a9059cbb9160448082019260209290919082900301818787803b1580156105e957600080fd5b505af11580156105fd573d6000803e3d6000fd5b505050506040513d602081101561061357600080fd5b5051905080151561066e576040805160e560020a62461bcd02815260206004820152601d60248201527f4348414e4e454c5f434c4f53455f5452414e534645525f4641494c4544000000604482015290519081900360640190fd5b43600755600080546003919075ff0000000000000000000000000000000000000000001916750100000000000000000000000000000000000000000083021790555060015460025460055460075460408051600160a060020a039094168452602084019290925282820152517001000000000000000000000000000000009092026fffffffffffffffffffffffffffffffff1916917f149862a34bbf1a64df1b3d1a30d1521062eba33815665c97e48f4f7a4e549088916060908290030190a2505050505050505050505050565b60065481565b6000600160806040519081016040528060528152602001610b3a605291396040516020018082805190602001908083835b602083106107925780518252601f199092019160209182019101610773565b51815160001960209485036101000a0190811690199190911617905260408051601f19959093018381039590950183528481528251928201929092207f5842520000000000000000000000000000000000000000000000000000000000855282519485900360030185207f31000000000000000000000000000000000000000000000000000000000000008652835195869003600101862086840192909252858401526060850152611691608085015273254dffcd3277c0b1660f6d42efbb754edababc2b60a0808601919091528251808603909101815260c08501808452815191909201206101408501909252605c808252919550935091610ade915060e001396040516020018082805190602001908083835b602083106108c65780518252601f1990920191602091820191016108a7565b6001836020036101000a038019825116818451168082178552505050505050905001915050604051602081830303815290604052805190602001208b8b8b8b8b60405160200180878152602001868152602001856fffffffffffffffffffffffffffffffff19166fffffffffffffffffffffffffffffffff191681526020018463ffffffff1663ffffffff16815260200183815260200182815260200196505050505050506040516020818303038152906040528051906020012060405160200180807f5c7831395c783031000000000000000000000000000000000000000000000000815250600801838152602001828152602001925050506040516020818303038152906040528051906020012085858560405160008152602001604052604051808581526020018460ff1660ff1681526020018381526020018281526020019450505050506020604051602081039080840390855afa158015610a30573d6000803e3d6000fd5b50505060206040510351600160a060020a03168a600160a060020a03161490509998505050505050505050565b600454600160a060020a031681565b600254600160a060020a031681565b6001547001000000000000000000000000000000000281565b60085463ffffffff1681565b60075481565b60055481565b6000547501000000000000000000000000000000000000000000900460ff1681565b600354600160a060020a03168156fe5472616e73616374696f6e2875696e74323536207075626b65792c75696e74313238206b65795f69642c75696e743332206368616e6e656c5f7365712c75696e7432353620616d6f756e742c75696e743235362062616c616e636529454950373132446f6d61696e28737472696e67206e616d652c737472696e672076657273696f6e2c75696e7432353620636861696e49642c6164647265737320766572696679696e67436f6e747261637429a165627a7a723058201b7648c6959b552ad4d77af465b56033b8a295fb0de173e30b06ac22ea32d83900294d414b45525f414c52454144595f574f524b494e475f464f525f4f544845525f4d41524b45544e4f5f535543485f4d41524b4554000000000000000000000000000000000000526f6c65733a206163636f756e7420646f6573206e6f74206861766520726f6c65526f6c65733a206163636f756e7420697320746865207a65726f2061646472657373516d553747697a6272653137783656325652315132474a456a7a366d38533162586d427456785332766d766238314f50454e5f4348414e4e454c5f5452414e534645525f46524f4d5f4641494c4544a165627a7a72305820e2cfa9b7279c4220e77572905d46da17774e964707961c26a410f4220c0d4beb0029526f6c65733a206163636f756e7420697320746865207a65726f2061646472657373",
  "source": "///////////////////////////////////////////////////////////////////////////////\n//\n//  Copyright (C) 2018 Crossbar.io Technologies GmbH and contributors.\n//\n//  Licensed under the Apache License, Version 2.0 (the \"License\");\n//  you may not use this file except in compliance with the License.\n//  You may obtain a copy of the License at\n//\n//      http://www.apache.org/licenses/LICENSE-2.0\n//\n//  Unless required by applicable law or agreed to in writing, software\n//  distributed under the License is distributed on an \"AS IS\" BASIS,\n//  WITHOUT WARRANTIES OR CONDITIONS OF ANY KIND, either express or implied.\n//  See the License for the specific language governing permissions and\n//  limitations under the License.\n//\n///////////////////////////////////////////////////////////////////////////////\n\npragma solidity ^0.5.2;\n\n// https://openzeppelin.org/api/docs/math_SafeMath.html\nimport \"openzeppelin-solidity/contracts/math/SafeMath.sol\";\n\nimport \"./XBRToken.sol\";\nimport \"./XBRMaintained.sol\";\nimport \"./XBRChannel.sol\";\n\n\n/**\n * @title XBR Network main smart contract.\n * @author The XBR Project\n */\ncontract XBRNetwork is XBRMaintained {\n\n    // Add safe math functions to uint256 using SafeMath lib from OpenZeppelin\n    using SafeMath for uint256;\n\n    // //////// enums\n\n    /// XBR Network membership levels\n    enum MemberLevel { NULL, ACTIVE, VERIFIED, RETIRED, PENALTY, BLOCKED }\n\n    /// XBR Market Actor types\n    enum ActorType { NULL, NETWORK, MARKET, PROVIDER, CONSUMER }\n\n    // //////// container types\n\n    /// Container type for holding XBR Network membership information.\n    struct Member {\n        /// The IPFS Multihash of the XBR EULA being agreed to and stored as one ZIP file archive on IPFS. Currently, this must be equal to \"QmU7Gizbre17x6V2VR1Q2GJEjz6m8S1bXmBtVxS2vmvb81\"\n        string eula;\n\n        /// Optional public member profile: the IPFS Multihash of the member profile stored in IPFS.\n        string profile;\n\n        /// Current member level.\n        MemberLevel level;\n    }\n\n    /// Container type for holding XBR Market Actors information.\n    struct Actor {\n        /// The type of the actor within the market.\n        ActorType actorType;\n\n        /// Security deposited by actor.\n        uint256 security;\n\n        /// Metadata attached to an actor in a market.\n        string meta;\n\n        /// Actor WAMP key (Ed25519 public key).\n        bytes32 key;\n    }\n\n    /// Container type for holding XBR Market information.\n    struct Market {\n        uint32 marketSeq;\n        address owner;\n        string terms;\n        string meta;\n        address maker;\n        uint256 providerSecurity;\n        uint256 consumerSecurity;\n        uint256 marketFee;\n        address[] channels;\n        address[] actorAddresses;\n        mapping(address => Actor) actors;\n        mapping(address => address) currentPaymentChannelByDelegate;\n        mapping(address => address) currentPayingChannelByDelegate;\n    }\n\n    /// Container type for holding paying channel request information. FIXME: make this event-based (to save gas).\n    struct PayingChannelRequest {\n        bytes16 marketId;\n        address sender;\n        address delegate;\n        address recipient;\n        uint256 amount;\n        uint32 timeout;\n    }\n\n    struct DelegateAssociation {\n        address delegate;\n        bytes32 pubkey;\n        bytes16 marketId;\n        ActorType actorType;\n    }\n\n    // //////// events for MEMBERS\n\n    /// Event emitted when a new member joined the XBR Network.\n    event MemberCreated (address indexed member, string eula, string profile, MemberLevel level);\n\n    /// Event emitted when a member leaves the XBR Network.\n    event MemberRetired (address member);\n\n    // //////// events for MARKETS\n\n    /// Event emitted when a new market was created.\n    event MarketCreated (bytes16 indexed marketId, uint32 marketSeq, address owner, string terms, string meta,\n        address maker, uint256 providerSecurity, uint256 consumerSecurity, uint256 marketFee);\n\n    /// Event emitted when a market was updated.\n    event MarketUpdated (bytes16 indexed marketId, uint32 marketSeq, address owner, string terms, string meta,\n        address maker, uint256 providerSecurity, uint256 consumerSecurity, uint256 marketFee);\n\n    /// Event emitted when a market was closed.\n    event MarketClosed (bytes16 indexed marketId);\n\n    /// Event emitted when a new actor joined a market.\n    event ActorJoined (bytes16 indexed marketId, address actor, ActorType actorType, uint256 security, string meta);\n\n    /// Event emitted when an actor has left a market.\n    event ActorLeft (bytes16 indexed marketId, address actor, ActorType actorType);\n\n    /// Event emitted when a new payment channel was created in a market.\n    event ChannelCreated (bytes16 indexed marketId, address sender, address delegate,\n        address receiver, address channel, XBRChannel.ChannelType channelType);\n\n    /// Event emitted when a new request for a paying channel was created in a market.\n    event PayingChannelRequestCreated (bytes16 indexed marketId, address sender, address recipient, address delegate,\n        uint256 amount, uint32 timeout);\n\n    // Note: closing event of payment channels are emitted from XBRChannel (not from here)\n\n    // Created markets are sequence numbered using this counter (to allow deterministic collison-free IDs for markets)\n    uint32 private marketSeq = 1;\n\n    /// XBR Network ERC20 token (XBR for the CrossbarFX technology stack)\n    XBRToken private token;\n\n    /// Address of the `XBR Network Organization <https://xbr.network/>`_\n    address public organization;\n\n    /// Current XBR Network members (\"member directory\").\n    mapping(address => Member) private members;\n\n    /// Current XBR Markets (\"market directory\")\n    mapping(bytes16 => Market) private markets;\n\n    /// Index: maker address => market ID\n    mapping(address => bytes16) public marketsByMaker;\n\n    /// Index: delegate address =>\n    mapping(address => address) private paymentChannels;\n\n    /**\n     * Create a new network.\n     *\n     * @param token_ The token to run this network on.\n     * @param organization_ The network technology provider and ecosystem sponsor.\n     */\n    constructor (address token_, address organization_) public {\n        token = XBRToken(token_);\n        organization = organization_;\n\n        members[msg.sender] = Member(\"\", \"\", MemberLevel.VERIFIED);\n    }\n\n    /**\n     * Join the XBR Network. All XBR stakeholders, namely XBR Data Providers,\n     * XBR Data Consumers, XBR Data Markets and XBR Data Clouds, must register\n     * with the XBR Network on the global blockchain by calling this function.\n     *\n     * @param eula The IPFS Multihash of the XBR EULA being agreed to and stored as one ZIP file archive on IPFS.\n     *             Currently, this must be equal to \"QmU7Gizbre17x6V2VR1Q2GJEjz6m8S1bXmBtVxS2vmvb81\"\n     * @param profile Optional public member profile: the IPFS Multihash of the member profile stored in IPFS.\n     */\n    function register (string memory eula, string memory profile) public {\n        require(uint(members[msg.sender].level) == 0, \"MEMBER_ALREADY_REGISTERED\");\n        require(keccak256(abi.encode(eula)) ==\n                keccak256(abi.encode(\"QmU7Gizbre17x6V2VR1Q2GJEjz6m8S1bXmBtVxS2vmvb81\")), \"INVALID_EULA\");\n\n        members[msg.sender] = Member(eula, profile, MemberLevel.ACTIVE);\n\n        emit MemberCreated(msg.sender, eula, profile, MemberLevel.ACTIVE);\n    }\n\n    /**\n     * Leave the XBR Network.\n     */\n    function unregister () public {\n        require(uint(members[msg.sender].level) != 0, \"NO_SUCH_MEMBER\");\n\n        // FIXME: check that the member has no active objects associated anymore\n\n        members[msg.sender].level = MemberLevel.RETIRED;\n\n        emit MemberRetired(msg.sender);\n    }\n\n    /**\n     * Manually override the member level of a XBR Network member. Being able to do so\n     * currently serves two purposes:\n     *\n     * - having a last resort to handle situation where members violated the EULA\n     * - being able to manually patch things in error/bug cases\n     *\n     * @param member The address of the XBR network member to override member level.\n     * @param level The member level to set the member to.\n     */\n    function setMemberLevel (address member, MemberLevel level) public onlyMaintainer {\n        require(uint(members[msg.sender].level) != 0, \"NO_SUCH_MEMBER\");\n\n        members[member].level = level;\n    }\n\n    /**\n     * Create a new XBR market. The sender of the transaction must be XBR network member\n     * and automatically becomes owner of the new market.\n     *\n     * @param marketId The ID of the market to create. Must be unique (not yet existing).\n     * @param terms The XBR market terms set by the market owner. IPFS Multihash pointing\n     *              to a ZIP archive file with market documents.\n     * @param meta The XBR market metadata published by the market owner. IPFS Multihash pointing\n     *             to a RDF/Turtle file with market metadata.\n     * @param maker The address of the XBR market maker that will run this market. The delegate of the market owner.\n     * @param providerSecurity The amount of XBR tokens a XBR provider joining the market must deposit.\n     * @param consumerSecurity The amount of XBR tokens a XBR consumer joining the market must deposit.\n     * @param marketFee The fee taken by the market (beneficiary is the market owner). The fee is a percentage of\n     *                  the revenue of the XBR Provider that receives XBR Token paid for transactions.\n     *                  The fee must be between 0% (inclusive) and 99% (inclusive), and is expressed as\n     *                  a fraction of the total supply of XBR tokens.\n     */\n    function createMarket (bytes16 marketId, string memory terms, string memory meta, address maker,\n        uint256 providerSecurity, uint256 consumerSecurity, uint256 marketFee) public {\n\n        require(markets[marketId].owner == address(0), \"MARKET_ALREADY_EXISTS\");\n        require(maker != address(0), \"INVALID_MAKER\");\n        require(marketsByMaker[maker] == bytes16(0), \"MAKER_ALREADY_WORKING_FOR_OTHER_MARKET\");\n        require(providerSecurity >= 0 && providerSecurity <= token.totalSupply(), \"INVALID_PROVIDER_SECURITY\");\n        require(consumerSecurity >= 0 && consumerSecurity <= token.totalSupply(), \"INVALID_CONSUMER_SECURITY\");\n        require(marketFee >= 0 && marketFee < (token.totalSupply() - 10**7) * 10**18, \"INVALID_MARKET_FEE\");\n\n        markets[marketId] = Market(marketSeq, msg.sender, terms, meta, maker, providerSecurity,\n            consumerSecurity, marketFee, new address[](0), new address[](0));\n\n        markets[marketId].actors[msg.sender] = Actor(ActorType.MARKET, 0, '', 0);\n        markets[marketId].actorAddresses.push(maker);\n\n        marketsByMaker[maker] = marketId;\n\n        marketSeq = marketSeq + 1;\n\n        emit MarketCreated(marketId, marketSeq, msg.sender, terms, meta, maker,\n                                providerSecurity, consumerSecurity, marketFee);\n    }\n\n    /**\n     * Update market information, like market terms, metadata or maker address.\n     *\n     * @param marketId The ID of the market to update.\n     * @param terms When terms should be updated, provide a string of non-zero length with\n     *              an IPFS Multihash pointing to the new ZIP file with market terms.\n     * @param meta When metadata should be updated, provide a string of non-zero length with\n     *             an IPFS Multihash pointing to the new RDF/Turtle file with market metadata.\n     * @param maker When maker should be updated, provide a non-zero address.\n     * @param providerSecurity Provider security to set that will apply for new members (providers) joining\n     *                         the market. It will NOT apply to current market members.\n     * @param consumerSecurity Consumer security to set that will apply for new members (consumers) joining\n     *                         the market. It will NOT apply to current market members.\n     * @param marketFee New market fee to set. The new market fee will apply to all new payment channels\n     *                  opened. It will NOT apply to already opened (or closed) payment channels.\n     * @return Flag indicating weather the market information was actually updated or left unchanged.\n     */\n    function updateMarket(bytes16 marketId, string memory terms, string memory meta, address maker,\n        uint256 providerSecurity, uint256 consumerSecurity, uint256 marketFee) public returns (bool) {\n\n        Market storage market = markets[marketId];\n\n        require(market.owner != address(0), \"NO_SUCH_MARKET\");\n        require(market.owner == msg.sender, \"NOT_AUTHORIZED\");\n        require(marketsByMaker[maker] == bytes16(0), \"MAKER_ALREADY_WORKING_FOR_OTHER_MARKET\");\n        require(marketFee >= 0 && marketFee < (10**9 - 10**7) * 10**18, \"INVALID_MARKET_FEE\");\n\n        bool wasChanged = false;\n\n        // for these knobs, only update when non-zero values provided\n        if (maker != address(0) && maker != market.maker) {\n            markets[marketId].maker = maker;\n            wasChanged = true;\n        }\n        if (bytes(terms).length > 0 && keccak256(abi.encode(terms)) != keccak256(abi.encode(market.terms))) {\n            markets[marketId].terms = terms;\n            wasChanged = true;\n        }\n        if (bytes(meta).length > 0 && keccak256(abi.encode(meta)) != keccak256(abi.encode(market.meta))) {\n            markets[marketId].meta = meta;\n            wasChanged = true;\n        }\n\n        // for these knobs, we allow updating to zero value\n        if (providerSecurity != market.providerSecurity) {\n            markets[marketId].providerSecurity = providerSecurity;\n            wasChanged = true;\n        }\n        if (consumerSecurity != market.consumerSecurity) {\n            markets[marketId].consumerSecurity = consumerSecurity;\n            wasChanged = true;\n        }\n        if (marketFee != market.marketFee) {\n            markets[marketId].marketFee = marketFee;\n            wasChanged = true;\n        }\n\n        if (wasChanged) {\n            emit MarketUpdated(marketId, market.marketSeq, market.owner, market.terms, market.meta, market.maker,\n                    market.providerSecurity, market.consumerSecurity, market.marketFee);\n        }\n\n        return wasChanged;\n    }\n\n    /**\n     * Close a market. A closed market will not accept new memberships.\n     *\n     * @param marketId The ID of the market to close.\n     */\n    function closeMarket (bytes16 marketId) public view {\n        require(markets[marketId].owner != address(0), \"NO_SUCH_MARKET\");\n        require(markets[marketId].owner == msg.sender, \"NOT_AUTHORIZED\");\n        // FIXME\n        require(false, \"NOT_IMPLEMENTED\");\n    }\n\n    /**\n     * Join the given XBR market as the specified type of actor, which must be PROVIDER or CONSUMER.\n     *\n     * @param marketId The ID of the XBR data market to join.\n     * @param actorType The type of actor under which to join: PROVIDER or CONSUMER.\n     * @param meta The XBR market provider/consumer metadata. IPFS Multihash pointing to a JSON file with metadata.\n     */\n    function joinMarket (bytes16 marketId, ActorType actorType, string memory meta) public returns (uint256) {\n        require(markets[marketId].owner != address(0), \"NO_SUCH_MARKET\");\n        require(uint8(markets[marketId].actors[msg.sender].actorType) == 0, \"ACTOR_ALREADY_JOINED\");\n        require(uint8(actorType) == uint8(ActorType.MARKET) ||\n            uint8(actorType) == uint8(ActorType.PROVIDER) || uint8(actorType) == uint8(ActorType.CONSUMER));\n\n        uint256 security;\n        if (uint8(actorType) == uint8(ActorType.PROVIDER)) {\n            security = markets[marketId].providerSecurity;\n        } else if (uint8(actorType) == uint8(ActorType.CONSUMER)) {\n            security = markets[marketId].consumerSecurity;\n        } else {\n            // ActorType.MARKET\n            security = 0;\n        }\n\n        if (security > 0) {\n            // ActorType.CONSUMER, ActorType.PROVIDER\n            bool success = token.transferFrom(msg.sender, address(this), security);\n            require(success, \"JOIN_MARKET_TRANSFER_FROM_FAILED\");\n        }\n\n        // remember actor (by address+type) within market\n        markets[marketId].actors[msg.sender] = Actor(actorType, security, meta, 0);\n        markets[marketId].actorAddresses.push(msg.sender);\n\n        // emit event ActorJoined(bytes16 marketId, address actor, ActorType actorType, uint256 security, string meta)\n        emit ActorJoined(marketId, msg.sender, actorType, security, meta);\n\n        return security;\n    }\n\n    /**\n     * As a market actor (participant) currently member of a market, leave that market.\n     * A market can only be left when all payment channels of the sender are closed (or expired).\n     *\n     * @param marketId The ID of the market to leave.\n     */\n    function leaveMarket (bytes16 marketId) public view {\n        require(markets[marketId].owner != address(0), \"NO_SUCH_MARKET\");\n        // FIXME\n        require(false, \"NOT_IMPLEMENTED\");\n    }\n\n    /**\n     * Open a new payment channel and deposit an amount of XBR token for off-chain consumption.\n     * Must be called by the data consumer (XBR buyer) and an off-chain buyer delegate address must be given.\n     *\n     * @param marketId The ID of the market to open a payment channel within.\n     * @param recipient Recipient of the earned off-chain transaction amounts of this single channel,\n     *                  commonly the market operator.\n     * @param delegate The address of the (offchain) consumer delegate allowed to consume the channel.\n     * @param amount Amount of XBR Token to deposit into the payment channel (the initial off-chain balance).\n     * @param timeout Channel timeout which will apply.\n     */\n    function openPaymentChannel (bytes16 marketId, address recipient, address delegate,\n        uint256 amount, uint32 timeout) public returns (address paymentChannel) {\n\n        // market must exist\n        require(markets[marketId].owner != address(0), \"NO_SUCH_MARKET\");\n\n        // sender must be consumer in the market\n        require(uint8(markets[marketId].actors[msg.sender].actorType) == uint8(ActorType.CONSUMER), \"NO_CONSUMER_ROLE\");\n\n        // create new payment channel contract\n        XBRChannel channel = new XBRChannel(address(token), marketId, msg.sender, delegate, recipient, amount, timeout,\n            XBRChannel.ChannelType.PAYMENT);\n\n        // transfer tokens (initial balance) into payment channel contract\n        bool success = token.transferFrom(msg.sender, address(channel), amount);\n        require(success, \"OPEN_CHANNEL_TRANSFER_FROM_FAILED\");\n\n        // remember the new payment channel associated with the market\n        markets[marketId].channels.push(address(channel));\n\n        // emit event ChannelCreated(bytes16 marketId, address sender, address delegate,\n        //      address receiver, address channel)\n        emit ChannelCreated(marketId, channel.sender(), channel.delegate(), channel.recipient(),\n            address(channel), XBRChannel.ChannelType.PAYMENT);\n\n        return address(channel);\n    }\n\n    /**\n     * As a data provider, request a new payment channel to get paid by the market maker. Given sufficient\n     * security amount (deposited by the data provider when joining the marker) to cover the request amount,\n     * the market maker will open a payment (state) channel to allow the market maker buying data keys in\n     * microtransactions, and offchain. The creation of the payment channel is asynchronously: the market maker\n     * is watching the global blockchain filtering for events relevant to the market managed by the maker.\n     * When a request to open a payment channel is recognized by the market maker, it will check the provider\n     * for sufficient security deposit covering the requested amount, and if all is fine, create a new payment\n     * channel and store the contract address for the channel request ID, so the data provider can retrieve it.\n     *\n     * @param marketId The ID of the market to request a paying channel within.\n     * @param delegate The address of the (offchain) provider delegate allowed to sell into the channel.\n     * @param amount Amount of XBR Token to deposit into the paying channel (the initial off-chain balance).\n     * @param timeout Channel timeout which will apply.\n     */\n    function requestPayingChannel (bytes16 marketId, address recipient, address delegate,\n        uint256 amount, uint32 timeout) public {\n\n        // market must exist\n        require(markets[marketId].owner != address(0), \"NO_SUCH_MARKET\");\n\n        // market must have a market maker associated\n        require(markets[marketId].maker != address(0), \"NO_ACTIVE_MARKET_MAKER\");\n\n        // sender must be provider in the market\n        require(uint8(markets[marketId].actors[msg.sender].actorType) == uint8(ActorType.PROVIDER),\n            \"NO_PROVIDER_ROLE\");\n\n        // emit event PayingChannelRequestCreated(bytes16 marketId, address sender, address recipient,\n        //      address delegate, uint256 amount, uint32 timeout)\n        emit PayingChannelRequestCreated(marketId, msg.sender, recipient, delegate, amount, timeout);\n    }\n\n    /**\n     * Open a new paying channel and deposit an amount of XBR token for off-chain consumption.\n     * Must be called by the market maker in response to a successful request for a paying channel.\n     *\n     * @param marketId The ID of the market to open a paying channel within.\n     * @param recipient Ultimate recipient of tokens earned, recipient must be provider in the market.\n     * @param delegate The address of the (offchain) provider delegate allowed to earn on the channel.\n     * @param amount Amount of XBR Token to deposit into the paying channel (the initial off-chain balance).\n     * @param timeout Channel timeout which will apply.\n     */\n    function openPayingChannel (bytes16 marketId, address recipient, address delegate,\n        uint256 amount, uint32 timeout) public returns (address paymentChannel) {\n\n        // market must exist\n        require(markets[marketId].owner != address(0), \"NO_SUCH_MARKET\");\n\n        // sender must be market maker for market\n        require(markets[marketId].maker == msg.sender, \"SENDER_NOT_MAKER\");\n\n        // recipient must be provider in the market\n        require(uint8(markets[marketId].actors[recipient].actorType) == uint8(ActorType.PROVIDER),\n            \"RECIPIENT_NOT_PROVIDER\");\n\n        // create new paying channel contract\n        XBRChannel channel = new XBRChannel(address(token), marketId, msg.sender, delegate, recipient, amount,\n            timeout, XBRChannel.ChannelType.PAYING);\n\n        // transfer tokens (initial balance) into payment channel contract\n        XBRToken _token = XBRToken(token);\n        bool success = _token.transferFrom(msg.sender, address(channel), amount);\n        require(success, \"OPEN_CHANNEL_TRANSFER_FROM_FAILED\");\n\n        // remember the new payment channel associated with the market\n        markets[marketId].channels.push(address(channel));\n\n        // emit event ChannelCreated(bytes16 marketId, address sender, address delegate,\n        //  address receiver, address channel)\n        emit ChannelCreated(marketId, channel.sender(), channel.delegate(), channel.recipient(),\n            address(channel), XBRChannel.ChannelType.PAYING);\n\n        return address(channel);\n    }\n}\n",
  "sourcePath": "/home/oberstet/scm/crossbario/xbr-protocol/contracts/XBRNetwork.sol",
  "compiler": {
    "name": "solc",
    "version": "0.5.2+commit.1df8f40c.Emscripten.clang"
  },
  "schemaVersion": "3.0.11",
  "updatedAt": "2019-08-16T14:31:56.608Z",
  "devdoc": {
    "author": "The XBR Project",
    "methods": {
      "addMaintainer(address)": {
        "params": {
          "account": "The account to grant maintainer rights to."
        }
      },
      "closeMarket(bytes16)": {
        "params": {
          "marketId": "The ID of the market to close."
        }
      },
      "constructor": {
        "params": {
          "organization_": "The network technology provider and ecosystem sponsor.",
          "token_": "The token to run this network on."
        }
      },
      "createMarket(bytes16,string,string,address,uint256,uint256,uint256)": {
        "params": {
          "consumerSecurity": "The amount of XBR tokens a XBR consumer joining the market must deposit.",
          "maker": "The address of the XBR market maker that will run this market. The delegate of the market owner.",
          "marketFee": "The fee taken by the market (beneficiary is the market owner). The fee is a percentage of                 the revenue of the XBR Provider that receives XBR Token paid for transactions.                 The fee must be between 0% (inclusive) and 99% (inclusive), and is expressed as                 a fraction of the total supply of XBR tokens.",
          "marketId": "The ID of the market to create. Must be unique (not yet existing).",
          "meta": "The XBR market metadata published by the market owner. IPFS Multihash pointing            to a RDF/Turtle file with market metadata.",
          "providerSecurity": "The amount of XBR tokens a XBR provider joining the market must deposit.",
          "terms": "The XBR market terms set by the market owner. IPFS Multihash pointing             to a ZIP archive file with market documents."
        }
      },
      "isMaintainer(address)": {
        "params": {
          "account": "The account to check."
        },
        "return": "`true` if the account is maintainer, otherwise `false`."
      },
      "joinMarket(bytes16,uint8,string)": {
        "params": {
          "actorType": "The type of actor under which to join: PROVIDER or CONSUMER.",
          "marketId": "The ID of the XBR data market to join.",
          "meta": "The XBR market provider/consumer metadata. IPFS Multihash pointing to a JSON file with metadata."
        }
      },
      "leaveMarket(bytes16)": {
        "params": {
          "marketId": "The ID of the market to leave."
        }
      },
      "openPayingChannel(bytes16,address,address,uint256,uint32)": {
        "params": {
          "amount": "Amount of XBR Token to deposit into the paying channel (the initial off-chain balance).",
          "delegate": "The address of the (offchain) provider delegate allowed to earn on the channel.",
          "marketId": "The ID of the market to open a paying channel within.",
          "recipient": "Ultimate recipient of tokens earned, recipient must be provider in the market.",
          "timeout": "Channel timeout which will apply."
        }
      },
      "openPaymentChannel(bytes16,address,address,uint256,uint32)": {
        "params": {
          "amount": "Amount of XBR Token to deposit into the payment channel (the initial off-chain balance).",
          "delegate": "The address of the (offchain) consumer delegate allowed to consume the channel.",
          "marketId": "The ID of the market to open a payment channel within.",
          "recipient": "Recipient of the earned off-chain transaction amounts of this single channel,                 commonly the market operator.",
          "timeout": "Channel timeout which will apply."
        }
      },
      "register(string,string)": {
        "params": {
          "eula": "The IPFS Multihash of the XBR EULA being agreed to and stored as one ZIP file archive on IPFS.            Currently, this must be equal to \"QmU7Gizbre17x6V2VR1Q2GJEjz6m8S1bXmBtVxS2vmvb81\"",
          "profile": "Optional public member profile: the IPFS Multihash of the member profile stored in IPFS."
        }
      },
      "requestPayingChannel(bytes16,address,address,uint256,uint32)": {
        "params": {
          "amount": "Amount of XBR Token to deposit into the paying channel (the initial off-chain balance).",
          "delegate": "The address of the (offchain) provider delegate allowed to sell into the channel.",
          "marketId": "The ID of the market to request a paying channel within.",
          "timeout": "Channel timeout which will apply."
        }
      },
      "setMemberLevel(address,uint8)": {
        "params": {
          "level": "The member level to set the member to.",
          "member": "The address of the XBR network member to override member level."
        }
      },
      "updateMarket(bytes16,string,string,address,uint256,uint256,uint256)": {
        "params": {
          "consumerSecurity": "Consumer security to set that will apply for new members (consumers) joining                        the market. It will NOT apply to current market members.",
          "maker": "When maker should be updated, provide a non-zero address.",
          "marketFee": "New market fee to set. The new market fee will apply to all new payment channels                 opened. It will NOT apply to already opened (or closed) payment channels.",
          "marketId": "The ID of the market to update.",
          "meta": "When metadata should be updated, provide a string of non-zero length with            an IPFS Multihash pointing to the new RDF/Turtle file with market metadata.",
          "providerSecurity": "Provider security to set that will apply for new members (providers) joining                        the market. It will NOT apply to current market members.",
          "terms": "When terms should be updated, provide a string of non-zero length with             an IPFS Multihash pointing to the new ZIP file with market terms."
        },
        "return": "Flag indicating weather the market information was actually updated or left unchanged."
      }
    },
    "title": "XBR Network main smart contract."
  },
  "userdoc": {
    "methods": {
      "addMaintainer(address)": {
        "notice": "Add a new maintainer to the list of maintainers."
      },
      "closeMarket(bytes16)": {
        "notice": "Close a market. A closed market will not accept new memberships."
      },
      "constructor": "Create a new network.",
      "createMarket(bytes16,string,string,address,uint256,uint256,uint256)": {
        "notice": "Create a new XBR market. The sender of the transaction must be XBR network member and automatically becomes owner of the new market."
      },
      "isMaintainer(address)": {
        "notice": "Check if the given address is currently a maintainer."
      },
      "joinMarket(bytes16,uint8,string)": {
        "notice": "Join the given XBR market as the specified type of actor, which must be PROVIDER or CONSUMER."
      },
      "leaveMarket(bytes16)": {
        "notice": "As a market actor (participant) currently member of a market, leave that market. A market can only be left when all payment channels of the sender are closed (or expired)."
      },
      "openPayingChannel(bytes16,address,address,uint256,uint32)": {
        "notice": "Open a new paying channel and deposit an amount of XBR token for off-chain consumption. Must be called by the market maker in response to a successful request for a paying channel."
      },
      "openPaymentChannel(bytes16,address,address,uint256,uint32)": {
        "notice": "Open a new payment channel and deposit an amount of XBR token for off-chain consumption. Must be called by the data consumer (XBR buyer) and an off-chain buyer delegate address must be given."
      },
      "register(string,string)": {
        "notice": "Join the XBR Network. All XBR stakeholders, namely XBR Data Providers, XBR Data Consumers, XBR Data Markets and XBR Data Clouds, must register with the XBR Network on the global blockchain by calling this function."
      },
      "renounceMaintainer()": {
        "notice": "Give away maintainer rights."
      },
      "requestPayingChannel(bytes16,address,address,uint256,uint32)": {
        "notice": "As a data provider, request a new payment channel to get paid by the market maker. Given sufficient security amount (deposited by the data provider when joining the marker) to cover the request amount, the market maker will open a payment (state) channel to allow the market maker buying data keys in microtransactions, and offchain. The creation of the payment channel is asynchronously: the market maker is watching the global blockchain filtering for events relevant to the market managed by the maker. When a request to open a payment channel is recognized by the market maker, it will check the provider for sufficient security deposit covering the requested amount, and if all is fine, create a new payment channel and store the contract address for the channel request ID, so the data provider can retrieve it."
      },
      "setMemberLevel(address,uint8)": {
        "notice": "Manually override the member level of a XBR Network member. Being able to do so currently serves two purposes:     * - having a last resort to handle situation where members violated the EULA - being able to manually patch things in error/bug cases"
      },
      "unregister()": {
        "notice": "Leave the XBR Network."
      },
      "updateMarket(bytes16,string,string,address,uint256,uint256,uint256)": {
        "notice": "Update market information, like market terms, metadata or maker address."
      }
    }
  }
}