{
  "contractName": "XBRNetwork",
  "abi": [
    {
      "inputs": [
        {
          "internalType": "address",
          "name": "token_",
          "type": "address"
        },
        {
          "internalType": "address",
          "name": "organization_",
          "type": "address"
        }
      ],
      "payable": false,
      "stateMutability": "nonpayable",
      "type": "constructor"
    },
    {
      "anonymous": false,
      "inputs": [
        {
          "indexed": true,
          "internalType": "address",
          "name": "account",
          "type": "address"
        }
      ],
      "name": "MaintainerAdded",
      "type": "event"
    },
    {
      "anonymous": false,
      "inputs": [
        {
          "indexed": true,
          "internalType": "address",
          "name": "account",
          "type": "address"
        }
      ],
      "name": "MaintainerRemoved",
      "type": "event"
    },
    {
      "anonymous": false,
      "inputs": [
        {
          "indexed": true,
          "internalType": "address",
          "name": "member",
          "type": "address"
        },
        {
          "indexed": false,
          "internalType": "uint256",
          "name": "registered",
          "type": "uint256"
        },
        {
          "indexed": false,
          "internalType": "string",
          "name": "eula",
          "type": "string"
        },
        {
          "indexed": false,
          "internalType": "string",
          "name": "profile",
          "type": "string"
        },
        {
          "indexed": false,
          "internalType": "enum XBRTypes.MemberLevel",
          "name": "level",
          "type": "uint8"
        }
      ],
      "name": "MemberCreated",
      "type": "event"
    },
    {
      "anonymous": false,
      "inputs": [
        {
          "indexed": false,
          "internalType": "address",
          "name": "member",
          "type": "address"
        }
      ],
      "name": "MemberRetired",
      "type": "event"
    },
    {
      "constant": false,
      "inputs": [
        {
          "internalType": "address",
          "name": "account",
          "type": "address"
        }
      ],
      "name": "addMaintainer",
      "outputs": [],
      "payable": false,
      "stateMutability": "nonpayable",
      "type": "function"
    },
    {
      "constant": true,
      "inputs": [],
      "name": "eula",
      "outputs": [
        {
          "internalType": "string",
          "name": "",
          "type": "string"
        }
      ],
      "payable": false,
      "stateMutability": "view",
      "type": "function"
    },
    {
      "constant": true,
      "inputs": [
        {
          "internalType": "address",
          "name": "account",
          "type": "address"
        }
      ],
      "name": "isMaintainer",
      "outputs": [
        {
          "internalType": "bool",
          "name": "",
          "type": "bool"
        }
      ],
      "payable": false,
      "stateMutability": "view",
      "type": "function"
    },
    {
      "constant": true,
      "inputs": [
        {
          "internalType": "address",
          "name": "",
          "type": "address"
        }
      ],
      "name": "members",
      "outputs": [
        {
          "internalType": "uint256",
          "name": "registered",
          "type": "uint256"
        },
        {
          "internalType": "string",
          "name": "eula",
          "type": "string"
        },
        {
          "internalType": "string",
          "name": "profile",
          "type": "string"
        },
        {
          "internalType": "enum XBRTypes.MemberLevel",
          "name": "level",
          "type": "uint8"
        }
      ],
      "payable": false,
      "stateMutability": "view",
      "type": "function"
    },
    {
      "constant": true,
      "inputs": [],
      "name": "organization",
      "outputs": [
        {
          "internalType": "address",
          "name": "",
          "type": "address"
        }
      ],
      "payable": false,
      "stateMutability": "view",
      "type": "function"
    },
    {
      "constant": false,
      "inputs": [],
      "name": "renounceMaintainer",
      "outputs": [],
      "payable": false,
      "stateMutability": "nonpayable",
      "type": "function"
    },
    {
      "constant": true,
      "inputs": [],
      "name": "token",
      "outputs": [
        {
          "internalType": "contract XBRToken",
          "name": "",
          "type": "address"
        }
      ],
      "payable": false,
      "stateMutability": "view",
      "type": "function"
    },
    {
      "constant": true,
      "inputs": [],
      "name": "verifyingChain",
      "outputs": [
        {
          "internalType": "uint256",
          "name": "",
          "type": "uint256"
        }
      ],
      "payable": false,
      "stateMutability": "view",
      "type": "function"
    },
    {
      "constant": true,
      "inputs": [],
      "name": "verifyingContract",
      "outputs": [
        {
          "internalType": "address",
          "name": "",
          "type": "address"
        }
      ],
      "payable": false,
      "stateMutability": "view",
      "type": "function"
    },
    {
      "constant": false,
      "inputs": [
        {
          "internalType": "string",
          "name": "eula_",
          "type": "string"
        },
        {
          "internalType": "string",
          "name": "profile_",
          "type": "string"
        }
      ],
      "name": "register",
      "outputs": [],
      "payable": false,
      "stateMutability": "nonpayable",
      "type": "function"
    },
    {
      "constant": false,
      "inputs": [
        {
          "internalType": "address",
          "name": "member",
          "type": "address"
        },
        {
          "internalType": "uint256",
          "name": "registered",
          "type": "uint256"
        },
        {
          "internalType": "string",
          "name": "eula_",
          "type": "string"
        },
        {
          "internalType": "string",
          "name": "profile_",
          "type": "string"
        },
        {
          "internalType": "bytes",
          "name": "signature",
          "type": "bytes"
        }
      ],
      "name": "registerFor",
      "outputs": [],
      "payable": false,
      "stateMutability": "nonpayable",
      "type": "function"
    }
  ],
  "bytecode": "0x60806040523480156200001157600080fd5b50604051620014ab380380620014ab8339810160408190526200003491620002e9565b62000048336001600160e01b036200013316565b46600181815560028054306001600160a01b03199182161782556003805482166001600160a01b03888116919091179091556004805490921690861617905560408051608081018252428152815160208082018452600080835281840192835284518083018652818152848601526060840195909552338552600581529290932081518155925180519194620000e5939085019291019062000237565b50604082015180516200010391600284019160209091019062000237565b50606082015160038201805460ff191660018360058111156200012257fe5b021790555090505050505062000402565b6200014e8160006200018560201b620008d61790919060201c565b6040516001600160a01b038216907f1390a149489c82e9e2e89927bdb17ad1ea3f0cc314fce06c96369721d3afb8f090600090a250565b6200019a82826001600160e01b03620001e816565b15620001c35760405162461bcd60e51b8152600401620001ba90620003a9565b60405180910390fd5b6001600160a01b0316600090815260209190915260409020805460ff19166001179055565b60006001600160a01b038216620002135760405162461bcd60e51b8152600401620001ba90620003bb565b506001600160a01b03811660009081526020839052604090205460ff165b92915050565b828054600181600116156101000203166002900490600052602060002090601f016020900481019282601f106200027a57805160ff1916838001178555620002aa565b82800160010185558215620002aa579182015b82811115620002aa5782518255916020019190600101906200028d565b50620002b8929150620002bc565b5090565b620002d991905b80821115620002b85760008155600101620002c3565b90565b80516200023181620003e8565b60008060408385031215620002fd57600080fd5b60006200030b8585620002dc565b92505060206200031e85828601620002dc565b9150509250929050565b600062000337601f83620003cd565b7f526f6c65733a206163636f756e7420616c72656164792068617320726f6c6500815260200192915050565b600062000372602283620003cd565b7f526f6c65733a206163636f756e7420697320746865207a65726f206164647265815261737360f01b602082015260400192915050565b60208082528101620002318162000328565b60208082528101620002318162000363565b90815260200190565b60006001600160a01b03821662000231565b620003f381620003d6565b8114620003ff57600080fd5b50565b61109980620004126000396000f3fe608060405234801561001057600080fd5b50600436106100a95760003560e01c80636b453c1f116100715780636b453c1f14610121578063a787d61b14610134578063a8f7d8ea1461013c578063cf8aeb5a14610151578063dd57366a14610164578063fc0c546a14610184576100a9565b806308ae4b0c146100ae57806323bd4d7a146100da578063314db06b146100ef5780633ffbd47f146100f957806359c8e6031461010c575b600080fd5b6100c16100bc366004610a32565b610199565b6040516100d19493929190610ed7565b60405180910390f35b6100e26102db565b6040516100d19190610df3565b6100f76102ea565b005b6100f7610107366004610b33565b6102f5565b61011461049e565b6040516100d19190610ec9565b6100f761012f366004610a32565b6104a4565b6100e26104c2565b6101446104d1565b6040516100d19190610e51565b6100f761015f366004610a58565b6104ed565b610177610172366004610a32565b610789565b6040516100d19190610e35565b61018c6107a3565b6040516100d19190610e43565b6005602090815260009182526040918290208054600180830180548651600293821615610100026000190190911692909204601f8101869004860283018601909652858252919492939092908301828280156102365780601f1061020b57610100808354040283529160200191610236565b820191906000526020600020905b81548152906001019060200180831161021957829003601f168201915b50505060028085018054604080516020601f60001961010060018716150201909416959095049283018590048502810185019091528181529596959450909250908301828280156102c85780601f1061029d576101008083540402835291602001916102c8565b820191906000526020600020905b8154815290600101906020018083116102ab57829003601f168201915b5050506003909301549192505060ff1684565b6004546001600160a01b031681565b6102f3336107b2565b565b3360009081526005602081905260409091206003015460ff169081111561031857fe5b60ff16156103415760405162461bcd60e51b815260040161033890610e89565b60405180910390fd5b6040518060600160405280602e8152602001611029602e913960405160200161036a9190610e51565b60405160208183030381529060405280519060200120826040516020016103919190610e51565b60405160208183030381529060405280519060200120146103c45760405162461bcd60e51b815260040161033890610eb9565b604080516080810182524280825260208201859052918101839052606081016001905233600090815260056020908152604090912082518155828201518051919261041792600185019290910190610922565b5060408201518051610433916002840191602090910190610922565b50606082015160038201805460ff1916600183600581111561045157fe5b0217905550506040513391507fd7ce85b2047049e12d351432c1bdab3b893aa58d63cb08da1c461cb0260c71e49061049190849087908790600190610ed7565b60405180910390a2505050565b60015481565b6104ad33610789565b6104b657600080fd5b6104bf816107fa565b50565b6002546001600160a01b031681565b6040518060600160405280602e8152602001611029602e913981565b6001600160a01b03851660009081526005602081905260409091206003015460ff169081111561051957fe5b60ff16156105395760405162461bcd60e51b815260040161033890610e89565b6040518060600160405280602e8152602001611029602e91396040516020016105629190610e51565b60405160208183030381529060405280519060200120836040516020016105899190610e51565b60405160208183030381529060405280519060200120146105bc5760405162461bcd60e51b815260040161033890610eb9565b6040805160c08101825260015481526002546001600160a01b039081166020830152871681830152606081018690526080810185905260a081018490529051633402ce0160e01b815273__XBRTypes______________________________91633402ce01916106319189918690600401610e01565b60206040518083038186803b15801561064957600080fd5b505af415801561065d573d6000803e3d6000fd5b505050506040513d601f19601f820116820180604052506106819190810190610b15565b61069d5760405162461bcd60e51b815260040161033890610e79565b604080516080810182528581526020810185905290810183905260608101600190526001600160a01b03861660009081526005602090815260409091208251815582820151805191926106f892600185019290910190610922565b5060408201518051610714916002840191602090910190610922565b50606082015160038201805460ff1916600183600581111561073257fe5b0217905550905050846001600160a01b03167fd7ce85b2047049e12d351432c1bdab3b893aa58d63cb08da1c461cb0260c71e4858585600160405161077a9493929190610ed7565b60405180910390a25050505050565b600061079b818363ffffffff61084216565b90505b919050565b6003546001600160a01b031681565b6107c360008263ffffffff61088e16565b6040516001600160a01b038216907fa7b36d52bea726c3aa90d876d0e52a1089a347b3e3408a03f08eae32f96fdbb490600090a250565b61080b60008263ffffffff6108d616565b6040516001600160a01b038216907f1390a149489c82e9e2e89927bdb17ad1ea3f0cc314fce06c96369721d3afb8f090600090a250565b60006001600160a01b03821661086a5760405162461bcd60e51b815260040161033890610ea9565b506001600160a01b03811660009081526020839052604090205460ff165b92915050565b6108988282610842565b6108b45760405162461bcd60e51b815260040161033890610e99565b6001600160a01b0316600090815260209190915260409020805460ff19169055565b6108e08282610842565b156108fd5760405162461bcd60e51b815260040161033890610e69565b6001600160a01b0316600090815260209190915260409020805460ff19166001179055565b828054600181600116156101000203166002900490600052602060002090601f016020900481019282601f1061096357805160ff1916838001178555610990565b82800160010185558215610990579182015b82811115610990578251825591602001919060010190610975565b5061099c9291506109a0565b5090565b6109ba91905b8082111561099c57600081556001016109a6565b90565b803561088881611002565b805161088881611016565b600082601f8301126109e457600080fd5b81356109f76109f282610f41565b610f1a565b91508082526020830160208301858383011115610a1357600080fd5b610a1e838284610fb2565b50505092915050565b80356108888161101f565b600060208284031215610a4457600080fd5b6000610a5084846109bd565b949350505050565b600080600080600060a08688031215610a7057600080fd5b6000610a7c88886109bd565b9550506020610a8d88828901610a27565b945050604086013567ffffffffffffffff811115610aaa57600080fd5b610ab6888289016109d3565b935050606086013567ffffffffffffffff811115610ad357600080fd5b610adf888289016109d3565b925050608086013567ffffffffffffffff811115610afc57600080fd5b610b08888289016109d3565b9150509295509295909350565b600060208284031215610b2757600080fd5b6000610a5084846109c8565b60008060408385031215610b4657600080fd5b823567ffffffffffffffff811115610b5d57600080fd5b610b69858286016109d3565b925050602083013567ffffffffffffffff811115610b8657600080fd5b610b92858286016109d3565b9150509250929050565b610ba581610f76565b82525050565b610ba581610f81565b6000610bbf82610f69565b610bc98185610f6d565b9350610bd9818560208601610fbe565b610be281610fee565b9093019392505050565b610ba581610f9c565b610ba581610fa7565b6000610c0b601f83610f6d565b7f526f6c65733a206163636f756e7420616c72656164792068617320726f6c6500815260200192915050565b6000610c44602183610f6d565b7f494e56414c49445f4d454d4245525f52454749535445525f5349474e415455528152604560f81b602082015260400192915050565b6000610c87601983610f6d565b7f4d454d4245525f414c52454144595f5245474953544552454400000000000000815260200192915050565b6000610cc0602183610f6d565b7f526f6c65733a206163636f756e7420646f6573206e6f74206861766520726f6c8152606560f81b602082015260400192915050565b6000610d03602283610f6d565b7f526f6c65733a206163636f756e7420697320746865207a65726f206164647265815261737360f01b602082015260400192915050565b6000610d47600c83610f6d565b6b494e56414c49445f45554c4160a01b815260200192915050565b805160009060c0840190610d768582610dea565b506020830151610d896020860182610b9c565b506040830151610d9c6040860182610b9c565b506060830151610daf6060860182610dea565b5060808301518482036080860152610dc78282610bb4565b91505060a083015184820360a0860152610de18282610bb4565b95945050505050565b610ba5816109ba565b602081016108888284610b9c565b60608101610e0f8286610b9c565b8181036020830152610e218185610d62565b90508181036040830152610de18184610bb4565b602081016108888284610bab565b602081016108888284610bec565b60208082528101610e628184610bb4565b9392505050565b6020808252810161079b81610bfe565b6020808252810161079b81610c37565b6020808252810161079b81610c7a565b6020808252810161079b81610cb3565b6020808252810161079b81610cf6565b6020808252810161079b81610d3a565b602081016108888284610dea565b60808101610ee58287610dea565b8181036020830152610ef78186610bb4565b90508181036040830152610f0b8185610bb4565b9050610de16060830184610bf5565b60405181810167ffffffffffffffff81118282101715610f3957600080fd5b604052919050565b600067ffffffffffffffff821115610f5857600080fd5b506020601f91909101601f19160190565b5190565b90815260200190565b600061079b82610f90565b151590565b8061079e81610ff8565b6001600160a01b031690565b600061079b82610f76565b600061079b82610f86565b82818337506000910152565b60005b83811015610fd9578181015183820152602001610fc1565b83811115610fe8576000848401525b50505050565b601f01601f191690565b600681106104bf57fe5b61100b81610f76565b81146104bf57600080fd5b61100b81610f81565b61100b816109ba56fe516d563165654465787453645572525551703974555846385364765665796b616977594c67725848485679554c59a365627a7a72315820e275f0769c87d69fc221cfbd6db2cf3fdf48b84731873ada9f925c8e8feae1b56c6578706572696d656e74616cf564736f6c63430005100040",
  "source": "///////////////////////////////////////////////////////////////////////////////\n//\n//  Copyright (C) 2018-2020 Crossbar.io Technologies GmbH and contributors.\n//\n//  Licensed under the Apache License, Version 2.0 (the \"License\");\n//  you may not use this file except in compliance with the License.\n//  You may obtain a copy of the License at\n//\n//      http://www.apache.org/licenses/LICENSE-2.0\n//\n//  Unless required by applicable law or agreed to in writing, software\n//  distributed under the License is distributed on an \"AS IS\" BASIS,\n//  WITHOUT WARRANTIES OR CONDITIONS OF ANY KIND, either express or implied.\n//  See the License for the specific language governing permissions and\n//  limitations under the License.\n//\n///////////////////////////////////////////////////////////////////////////////\n\npragma solidity ^0.5.12;\npragma experimental ABIEncoderV2;\n\n// https://openzeppelin.org/api/docs/math_SafeMath.html\nimport \"openzeppelin-solidity/contracts/math/SafeMath.sol\";\n\nimport \"./XBRMaintained.sol\";\nimport \"./XBRTypes.sol\";\nimport \"./XBRToken.sol\";\n\n\n/**\n * @title XBR Network main smart contract.\n * @author The XBR Project\n */\ncontract XBRNetwork is XBRMaintained {\n\n    // Add safe math functions to uint256 using SafeMath lib from OpenZeppelin\n    using SafeMath for uint256;\n\n    // //////// events for MEMBERS\n\n    /// Event emitted when a new member joined the XBR Network.\n    event MemberCreated (address indexed member, uint registered, string eula, string profile, XBRTypes.MemberLevel level);\n\n    /// Event emitted when a member leaves the XBR Network.\n    event MemberRetired (address member);\n\n    // Note: closing event of payment channels are emitted from XBRChannel (not from here)\n\n    /// Used for EIP712 verification: network ID of the blockchain this contract is running on.\n    uint256 public verifyingChain;\n\n    /// Used for EIP712 verification: verifying contract address.\n    address public verifyingContract;\n\n    /// XBR network EULA (IPFS Multihash). Source: https://github.com/crossbario/xbr-protocol/tree/master/ipfs/xbr-eula\n    string public constant eula = \"QmV1eeDextSdUrRUQp9tUXF8SdvVeykaiwYLgrXHHVyULY\";\n\n    /// XBR Network ERC20 token (XBR for the CrossbarFX technology stack)\n    XBRToken public token;\n\n    /// Address of the `XBR Network Organization <https://xbr.network/>`_\n    address public organization;\n\n    /// Current XBR Network members (\"member directory\").\n    mapping(address => XBRTypes.Member) public members;\n\n    /**\n     * Create a new network.\n     *\n     * @param token_ The token to run this network on.\n     * @param organization_ The network technology provider and ecosystem sponsor.\n     */\n    constructor (address token_, address organization_) public {\n\n        // read chain ID into temp local var (to avoid \"TypeError: Only local variables are supported\").\n        // FIXME\n        uint256 _chainId;\n        assembly {\n            _chainId := chainid()\n        }\n        verifyingChain = _chainId;\n        verifyingContract = address(this);\n\n        token = XBRToken(token_);\n        organization = organization_;\n\n        // Technical creator is XBR member (by definition).\n        members[msg.sender] = XBRTypes.Member(block.timestamp, \"\", \"\", XBRTypes.MemberLevel.VERIFIED);\n    }\n\n    /**\n     * Register sender in the XBR Network. All XBR stakeholders, namely XBR Data Providers,\n     * XBR Data Consumers and XBR Data Market Operators, must first register\n     * with the XBR Network on the global blockchain by calling this function.\n     *\n     * @param eula_ The IPFS Multihash of the XBR EULA being agreed to and stored as one ZIP file archive on IPFS.\n     * @param profile_ Optional public member profile: the IPFS Multihash of the member profile stored in IPFS.\n     */\n    function register (string memory eula_, string memory profile_) public {\n        // check that sender is not already a member\n        require(uint8(members[msg.sender].level) == 0, \"MEMBER_ALREADY_REGISTERED\");\n\n        // check that the EULA the member accepted is the one we expect\n        require(keccak256(abi.encode(eula_)) ==\n                keccak256(abi.encode(eula)), \"INVALID_EULA\");\n\n        // remember the member\n        uint registered = block.timestamp;\n        members[msg.sender] = XBRTypes.Member(registered, eula_, profile_, XBRTypes.MemberLevel.ACTIVE);\n\n        // notify observers of new member\n        emit MemberCreated(msg.sender, registered, eula_, profile_, XBRTypes.MemberLevel.ACTIVE);\n    }\n\n    /**\n     * Register sender in the XBR Network. All XBR stakeholders, namely XBR Data Providers,\n     * XBR Data Consumers and XBR Data Market Operators, must first register\n     * with the XBR Network on the global blockchain by calling this function.\n     *\n     * IMPORTANT: This version uses pre-signed data where the actual blockchain transaction is\n     * submitted by a gateway paying the respective gas (in ETH) for the blockchain transaction.\n     *\n     * @param member Address of the registering (new) member.\n     * @param registered Block number at which the registering member has created the signature.\n     * @param eula_ The IPFS Multihash of the XBR EULA being agreed to and stored as one ZIP file archive on IPFS.\n     * @param profile_ Optional public member profile: the IPFS Multihash of the member profile stored in IPFS.\n     * @param signature EIP712 signature (using private key of member) over\n     *                  `(chain_id, contract_adr, register_at, eula_hash, profile_hash)`.\n     */\n    function registerFor (address member, uint256 registered, string memory eula_,\n        string memory profile_, bytes memory signature) public {\n\n        // check that sender is not already a member\n        require(uint8(members[member].level) == 0, \"MEMBER_ALREADY_REGISTERED\");\n\n        // check that the EULA the member accepted is the one we expect\n        require(keccak256(abi.encode(eula_)) ==\n                keccak256(abi.encode(eula)), \"INVALID_EULA\");\n\n        // FIXME: check profile\n\n        // FIXME:\n        require(XBRTypes.verify(member, XBRTypes.EIP712MemberRegister(verifyingChain, verifyingContract,\n            member, registered, eula_, profile_), signature), \"INVALID_MEMBER_REGISTER_SIGNATURE\");\n\n        // remember the member\n        members[member] = XBRTypes.Member(registered, eula_, profile_, XBRTypes.MemberLevel.ACTIVE);\n\n        // notify observers of new member\n        emit MemberCreated(member, registered, eula_, profile_, XBRTypes.MemberLevel.ACTIVE);\n    }\n\n    /**\n     * Leave the XBR Network.\n     */\n    // function unregister () public {\n    //     require(uint8(members[msg.sender].level) != 0, \"NO_SUCH_MEMBER\");\n    //     require((uint8(members[msg.sender].level) == uint8(XBRTypes.MemberLevel.ACTIVE)) ||\n    //             (uint8(members[msg.sender].level) == uint8(XBRTypes.MemberLevel.VERIFIED)), \"MEMBER_NOT_ACTIVE\");\n\n    //     // FIXME: check that the member has no active objects associated anymore\n    //     require(false, \"NOT_IMPLEMENTED\");\n\n    //     members[msg.sender].level = XBRTypes.MemberLevel.RETIRED;\n\n    //     emit MemberRetired(msg.sender);\n    // }\n\n    /**\n     * Manually override the member level of a XBR Network member. Being able to do so\n     * currently serves two purposes:\n     *\n     * - having a last resort to handle situation where members violated the EULA\n     * - being able to manually patch things in error/bug cases\n     *\n     * @param member The address of the XBR network member to override member level.\n     * @param level The member level to set the member to.\n     */\n    // function setMemberLevel (address member, XBRTypes.MemberLevel level) public onlyMaintainer {\n    //     require(uint(members[msg.sender].level) != 0, \"NO_SUCH_MEMBER\");\n\n    //     members[member].level = level;\n    // }\n\n}\n",
  "sourcePath": "/home/oberstet/scm/crossbario/xbr-protocol/contracts/XBRNetwork.sol",
  "compiler": {
    "name": "solc",
    "version": "0.5.16+commit.9c3226ce.Emscripten.clang"
  },
  "schemaVersion": "3.0.23",
  "updatedAt": "2020-03-01T10:11:28.510Z",
  "devdoc": {
    "author": "The XBR Project",
    "methods": {
      "addMaintainer(address)": {
        "params": {
          "account": "The account to grant maintainer rights to."
        }
      },
      "constructor": {
        "params": {
          "organization_": "The network technology provider and ecosystem sponsor.",
          "token_": "The token to run this network on."
        }
      },
      "isMaintainer(address)": {
        "params": {
          "account": "The account to check."
        },
        "return": "`true` if the account is maintainer, otherwise `false`."
      },
      "register(string,string)": {
        "params": {
          "eula_": "The IPFS Multihash of the XBR EULA being agreed to and stored as one ZIP file archive on IPFS.",
          "profile_": "Optional public member profile: the IPFS Multihash of the member profile stored in IPFS."
        }
      },
      "registerFor(address,uint256,string,string,bytes)": {
        "params": {
          "eula_": "The IPFS Multihash of the XBR EULA being agreed to and stored as one ZIP file archive on IPFS.",
          "member": "Address of the registering (new) member.",
          "profile_": "Optional public member profile: the IPFS Multihash of the member profile stored in IPFS.",
          "registered": "Block number at which the registering member has created the signature.",
          "signature": "EIP712 signature (using private key of member) over                 `(chain_id, contract_adr, register_at, eula_hash, profile_hash)`."
        }
      }
    },
    "title": "XBR Network main smart contract."
  },
  "userdoc": {
    "methods": {
      "addMaintainer(address)": {
        "notice": "Add a new maintainer to the list of maintainers."
      },
      "constructor": "Create a new network.",
      "isMaintainer(address)": {
        "notice": "Check if the given address is currently a maintainer."
      },
      "register(string,string)": {
        "notice": "Register sender in the XBR Network. All XBR stakeholders, namely XBR Data Providers, XBR Data Consumers and XBR Data Market Operators, must first register with the XBR Network on the global blockchain by calling this function."
      },
      "registerFor(address,uint256,string,string,bytes)": {
        "notice": "Register sender in the XBR Network. All XBR stakeholders, namely XBR Data Providers, XBR Data Consumers and XBR Data Market Operators, must first register with the XBR Network on the global blockchain by calling this function.     * IMPORTANT: This version uses pre-signed data where the actual blockchain transaction is submitted by a gateway paying the respective gas (in ETH) for the blockchain transaction."
      },
      "renounceMaintainer()": {
        "notice": "Give away maintainer rights."
      }
    }
  }
}