{
  "contractName": "XBRTypes",
  "abi": [
    {
      "constant": true,
      "inputs": [
        {
          "internalType": "address",
          "name": "signer",
          "type": "address"
        },
        {
          "components": [
            {
              "internalType": "uint256",
              "name": "chainId",
              "type": "uint256"
            },
            {
              "internalType": "address",
              "name": "verifyingContract",
              "type": "address"
            },
            {
              "internalType": "bytes16",
              "name": "marketId",
              "type": "bytes16"
            },
            {
              "internalType": "string",
              "name": "terms",
              "type": "string"
            },
            {
              "internalType": "string",
              "name": "meta",
              "type": "string"
            },
            {
              "internalType": "address",
              "name": "maker",
              "type": "address"
            },
            {
              "internalType": "uint256",
              "name": "providerSecurity",
              "type": "uint256"
            },
            {
              "internalType": "uint256",
              "name": "consumerSecurity",
              "type": "uint256"
            },
            {
              "internalType": "uint256",
              "name": "marketFee",
              "type": "uint256"
            }
          ],
          "internalType": "struct XBRTypes.EIP712MarketCreate",
          "name": "obj",
          "type": "tuple"
        },
        {
          "internalType": "bytes",
          "name": "signature",
          "type": "bytes"
        }
      ],
      "name": "verify",
      "outputs": [
        {
          "internalType": "bool",
          "name": "",
          "type": "bool"
        }
      ],
      "payable": false,
      "stateMutability": "pure",
      "type": "function"
    },
    {
      "constant": true,
      "inputs": [
        {
          "internalType": "address",
          "name": "signer",
          "type": "address"
        },
        {
          "components": [
            {
              "internalType": "uint256",
              "name": "chainId",
              "type": "uint256"
            },
            {
              "internalType": "address",
              "name": "verifyingContract",
              "type": "address"
            },
            {
              "internalType": "address",
              "name": "member",
              "type": "address"
            },
            {
              "internalType": "uint256",
              "name": "registered",
              "type": "uint256"
            },
            {
              "internalType": "string",
              "name": "eula",
              "type": "string"
            },
            {
              "internalType": "string",
              "name": "profile",
              "type": "string"
            }
          ],
          "internalType": "struct XBRTypes.EIP712MemberRegister",
          "name": "obj",
          "type": "tuple"
        },
        {
          "internalType": "bytes",
          "name": "signature",
          "type": "bytes"
        }
      ],
      "name": "verify",
      "outputs": [
        {
          "internalType": "bool",
          "name": "",
          "type": "bool"
        }
      ],
      "payable": false,
      "stateMutability": "pure",
      "type": "function"
    },
    {
      "constant": true,
      "inputs": [
        {
          "internalType": "address",
          "name": "signer",
          "type": "address"
        },
        {
          "components": [
            {
              "internalType": "uint256",
              "name": "chainId",
              "type": "uint256"
            },
            {
              "internalType": "address",
              "name": "verifyingContract",
              "type": "address"
            },
            {
              "internalType": "address",
              "name": "member",
              "type": "address"
            },
            {
              "internalType": "uint256",
              "name": "joined",
              "type": "uint256"
            },
            {
              "internalType": "bytes16",
              "name": "marketId",
              "type": "bytes16"
            },
            {
              "internalType": "uint8",
              "name": "actorType",
              "type": "uint8"
            },
            {
              "internalType": "string",
              "name": "meta",
              "type": "string"
            }
          ],
          "internalType": "struct XBRTypes.EIP712MarketJoin",
          "name": "obj",
          "type": "tuple"
        },
        {
          "internalType": "bytes",
          "name": "signature",
          "type": "bytes"
        }
      ],
      "name": "verify",
      "outputs": [
        {
          "internalType": "bool",
          "name": "",
          "type": "bool"
        }
      ],
      "payable": false,
      "stateMutability": "pure",
      "type": "function"
    }
  ],
  "bytecode": "0x610f46610026600b82828239805160001a60731461001957fe5b30600052607381538281f3fe730000000000000000000000000000000000000000301460806040526004361061004b5760003560e01c80630c5524ee146100505780633402ce0114610079578063bc0625321461008c575b600080fd5b61006361005e3660046106eb565b61009f565b6040516100709190610bd2565b60405180910390f35b6100636100873660046107b2565b610160565b61006361009a366004610768565b610188565b6000806000806100ae856101b0565b92509250925060006100be61020d565b6100c788610265565b6040516020016100d8929190610b75565b604051602081830303815290604052805190602001209050876001600160a01b03166001828686866040516000815260200160405260405161011d9493929190610da1565b6020604051602081039080840390855afa15801561013f573d6000803e3d6000fd5b505050602060405103516001600160a01b0316149450505050509392505050565b60008060008061016f856101b0565b925092509250600061017f61020d565b6100c7886102ec565b600080600080610197856101b0565b92509250925060006101a761020d565b6100c788610344565b600080600083516041146101df5760405162461bcd60e51b81526004016101d690610ddf565b60405180910390fd5b50505060208101516040820151604183015160ff169190601b83101561020657601b830192505b9193909250565b60006102606040518060400160405280604051806040016040528060038152602001622c212960e91b8152508152602001604051806040016040528060018152602001603160f81b81525081525061039b565b905090565b600060405161027390610bb1565b6040518091039020826000015183602001518460400151856060015186608001518760a001518860c001518960e001518a61010001518b60800151805190602001206040516020016102cf9b9a99989796959493929190610cef565b604051602081830303815290604052805190602001209050919050565b60006040516102fa90610bbc565b604051809103902082600001518360200151846040015185606001518660800151805190602001208760a00151805190602001206040516020016102cf9796959493929190610c87565b600060405161035290610ba6565b6040518091039020826000015183602001518460400151856060015186608001518760a001518860c00151805190602001206040516020016102cf989796959493929190610c10565b60006040516103a990610bc7565b60405190819003812083518051602091820120818601518051908301206102cf949192909101610be0565b80356103df81610ed1565b92915050565b80356103df81610ee8565b600082601f83011261040157600080fd5b813561041461040f82610e16565b610def565b9150808252602083016020830185838301111561043057600080fd5b61043b838284610e8b565b50505092915050565b6000610120828403121561045757600080fd5b610462610120610def565b9050600061047084846106d5565b8252506020610481848483016103d4565b6020830152506040610495848285016103e5565b604083015250606082013567ffffffffffffffff8111156104b557600080fd5b6104c1848285016103f0565b606083015250608082013567ffffffffffffffff8111156104e157600080fd5b6104ed848285016103f0565b60808301525060a0610501848285016103d4565b60a08301525060c0610515848285016106d5565b60c08301525060e0610529848285016106d5565b60e08301525061010061053e848285016106d5565b6101008301525092915050565b600060e0828403121561055d57600080fd5b61056760e0610def565b9050600061057584846106d5565b8252506020610586848483016103d4565b602083015250604061059a848285016103d4565b60408301525060606105ae848285016106d5565b60608301525060806105c2848285016103e5565b60808301525060a06105d6848285016106e0565b60a08301525060c082013567ffffffffffffffff8111156105f657600080fd5b610602848285016103f0565b60c08301525092915050565b600060c0828403121561062057600080fd5b61062a60c0610def565b9050600061063884846106d5565b8252506020610649848483016103d4565b602083015250604061065d848285016103d4565b6040830152506060610671848285016106d5565b606083015250608082013567ffffffffffffffff81111561069157600080fd5b61069d848285016103f0565b60808301525060a082013567ffffffffffffffff8111156106bd57600080fd5b6106c9848285016103f0565b60a08301525092915050565b80356103df81610ef1565b80356103df81610efa565b60008060006060848603121561070057600080fd5b600061070c86866103d4565b935050602084013567ffffffffffffffff81111561072957600080fd5b61073586828701610444565b925050604084013567ffffffffffffffff81111561075257600080fd5b61075e868287016103f0565b9150509250925092565b60008060006060848603121561077d57600080fd5b600061078986866103d4565b935050602084013567ffffffffffffffff8111156107a657600080fd5b6107358682870161054b565b6000806000606084860312156107c757600080fd5b60006107d386866103d4565b935050602084013567ffffffffffffffff8111156107f057600080fd5b6107358682870161060e565b61080581610e50565b82525050565b61080581610e5b565b61080581610e60565b61080581610e76565b61080561083282610e76565b610e76565b600061084282610e3e565b61084c8185610e42565b935061085c818560208601610e97565b61086581610ec7565b9093019392505050565b600061087c600283610e4b565b61190160f01b815260020192915050565b600061089a608683610e4b565b7f4549503731324d61726b65744a6f696e2875696e7432353620636861696e496481527f2c6164647265737320766572696679696e67436f6e74726163742c616464726560208201527f7373206d656d6265722c75696e74323536206a6f696e65642c6279746573313660408201527f206d61726b657449642c75696e7438206163746f72547970652c737472696e67606082015265206d6574612960d01b608082015260860192915050565b600061095460b983610e4b565b7f4549503731324d61726b65744372656174652875696e7432353620636861696e81527f49642c6164647265737320766572696679696e67436f6e74726163742c62797460208201527f65733136206d61726b657449642c737472696e67207465726d732c737472696e60408201527f67206d6574612c61646472657373206d616b65722c75696e743235362070726f60608201527f766964657253656375726974792c75696e7432353620636f6e73756d6572536560808201527f6375726974792c75696e74323536206d61726b6574466565290000000000000060a082015260b90192915050565b6000610a4b607c83610e4b565b7f4549503731324d656d62657252656769737465722875696e743235362063686181527f696e49642c6164647265737320766572696679696e67436f6e74726163742c6160208201527f646472657373206d656d6265722c75696e74323536207265676973746572656460408201527f2c737472696e672065756c612c737472696e672070726f66696c6529000000006060820152607c0192915050565b6000610af6601883610e42565b7f494e56414c49445f5349474e41545552455f4c454e4754480000000000000000815260200192915050565b6000610b2f602883610e4b565b7f454950373132446f6d61696e28737472696e67206e616d652c737472696e672081526776657273696f6e2960c01b602082015260280192915050565b61080581610e85565b6000610b808261086f565b9150610b8c8285610826565b602082019150610b9c8284610826565b5060200192915050565b60006103df8261088d565b60006103df82610947565b60006103df82610a3e565b60006103df82610b22565b602081016103df828461080b565b60608101610bee828661081d565b610bfb602083018561081d565b610c08604083018461081d565b949350505050565b6101008101610c1f828b61081d565b610c2c602083018a61081d565b610c3960408301896107fc565b610c4660608301886107fc565b610c53608083018761081d565b610c6060a0830186610814565b610c6d60c0830185610b6c565b610c7a60e083018461081d565b9998505050505050505050565b60e08101610c95828a61081d565b610ca2602083018961081d565b610caf60408301886107fc565b610cbc60608301876107fc565b610cc9608083018661081d565b610cd660a083018561081d565b610ce360c083018461081d565b98975050505050505050565b6101608101610cfe828e61081d565b610d0b602083018d61081d565b610d18604083018c6107fc565b610d25606083018b610814565b8181036080830152610d37818a610837565b905081810360a0830152610d4b8189610837565b9050610d5a60c08301886107fc565b610d6760e083018761081d565b610d7561010083018661081d565b610d8361012083018561081d565b610d9161014083018461081d565b9c9b505050505050505050505050565b60808101610daf828761081d565b610dbc6020830186610b6c565b610dc9604083018561081d565b610dd6606083018461081d565b95945050505050565b602080825281016103df81610ae9565b60405181810167ffffffffffffffff81118282101715610e0e57600080fd5b604052919050565b600067ffffffffffffffff821115610e2d57600080fd5b506020601f91909101601f19160190565b5190565b90815260200190565b919050565b60006103df82610e79565b151590565b6fffffffffffffffffffffffffffffffff191690565b90565b6001600160a01b031690565b60ff1690565b82818337506000910152565b60005b83811015610eb2578181015183820152602001610e9a565b83811115610ec1576000848401525b50505050565b601f01601f191690565b610eda81610e50565b8114610ee557600080fd5b50565b610eda81610e60565b610eda81610e76565b610eda81610e8556fea365627a7a72315820687f039f27aa74089628faa15918ce2f32b7ecfec211e81b457bfb9d872171e16c6578706572696d656e74616cf564736f6c63430005100040",
  "source": "///////////////////////////////////////////////////////////////////////////////\n//\n//  Copyright (C) 2018-2020 Crossbar.io Technologies GmbH and contributors.\n//\n//  Licensed under the Apache License, Version 2.0 (the \"License\");\n//  you may not use this file except in compliance with the License.\n//  You may obtain a copy of the License at\n//\n//      http://www.apache.org/licenses/LICENSE-2.0\n//\n//  Unless required by applicable law or agreed to in writing, software\n//  distributed under the License is distributed on an \"AS IS\" BASIS,\n//  WITHOUT WARRANTIES OR CONDITIONS OF ANY KIND, either express or implied.\n//  See the License for the specific language governing permissions and\n//  limitations under the License.\n//\n///////////////////////////////////////////////////////////////////////////////\n\npragma solidity ^0.5.12;\npragma experimental ABIEncoderV2;\n\nimport \"./XBRToken.sol\";\nimport \"./XBRChannel.sol\";\n\n\n/**\n * @title XBR domain types and helper functions.\n * @author The XBR Project\n */\nlibrary XBRTypes {\n\n    /// XBR Network membership levels\n    enum MemberLevel { NULL, ACTIVE, VERIFIED, RETIRED, PENALTY, BLOCKED }\n\n    /// XBR Market Actor types\n    enum ActorType { NULL, PROVIDER, CONSUMER }\n\n    // //////// container types\n\n    /// Container type for holding XBR Network membership information.\n    struct Member {\n        /// Time (block.timestamp) when the member was (initially) registered.\n        uint registered;\n\n        /// The IPFS Multihash of the XBR EULA being agreed to and stored as one\n        /// ZIP file archive on IPFS.\n        string eula;\n\n        /// Optional public member profile: the IPFS Multihash of the member profile stored in IPFS.\n        string profile;\n\n        /// Current member level.\n        MemberLevel level;\n\n        /// If the transaction was pre-signed, this is the signature the user supplied\n        bytes signature;\n    }\n\n    /// Container type for holding XBR Market Actors information.\n    struct Actor {\n        /// Time (block.timestamp) when the actor has joined.\n        uint joined;\n\n        /// Security deposited by actor.\n        uint256 security;\n\n        /// Metadata attached to an actor in a market.\n        string meta;\n\n        /// All payment (paying) channels of the respective buyer (seller) actor.\n        address[] channels;\n    }\n\n    /// Container type for holding XBR Market information.\n    struct Market {\n        /// Time (block.timestamp) when the market was created.\n        uint created;\n\n        /// Market sequence number.\n        uint32 marketSeq;\n\n        /// Market owner (aka \"market operator\").\n        address owner;\n\n        /// Market terms (IPFS Multihash).\n        string terms;\n\n        /// Market metadata (IPFS Multihash)\n        string meta;\n\n        /// Current market maker address.\n        address maker;\n\n        /// Security deposit required by data providers (sellers) to join the market.\n        uint256 providerSecurity;\n\n        /// Security deposit required by data consumers (buyers) to join the market.\n        uint256 consumerSecurity;\n\n        /// Market fee rate for the market operator.\n        uint256 marketFee;\n\n        /// Adresses of provider (seller) actors joined in the market.\n        address[] providerActorAdrs;\n\n        /// Adresses of consumer (buyer) actors joined in the market.\n        address[] consumerActorAdrs;\n\n        /// Provider (seller) actors joined in the market by actor address.\n        mapping(address => Actor) providerActors;\n\n        /// Consumer (buyer) actors joined in the market by actor address.\n        mapping(address => Actor) consumerActors;\n\n        /// Current payment channel by (buyer) delegate.\n        mapping(address => address) currentPaymentChannelByDelegate;\n\n        /// Current paying channel by (seller) delegate.\n        mapping(address => address) currentPayingChannelByDelegate;\n\n    }\n\n    /// Container type for holding paying channel request information.\n    struct PayingChannelRequest {\n        bytes16 marketId;\n        address sender;\n        address delegate;\n        address recipient;\n        uint256 amount;\n        uint32 timeout;\n    }\n\n    /// EIP712 type for XBR as a type domain.\n    struct EIP712Domain {\n        // make signatures from different domains incompatible\n        string  name;\n        string  version;\n    }\n\n    /// EIP712 type for use in XBRNetwork.registerFor.\n    struct EIP712MemberRegister {\n        // replay attack protection\n        uint256 chainId;\n        address verifyingContract;\n\n        // actual data attributes\n        address member;\n        uint256 registered;\n        string eula;\n        string profile;\n    }\n\n    /// EIP712 type for use in XBRMarket.createMarketFor.\n    struct EIP712MarketCreate {\n        // replay attack protection\n        uint256 chainId;\n        address verifyingContract;\n\n        // actual data attributes\n        bytes16 marketId;\n        string terms;\n        string meta;\n        address maker;\n        uint256 providerSecurity;\n        uint256 consumerSecurity;\n        uint256 marketFee;\n    }\n\n    /// EIP712 type for use in XBRMarket.joinMarketFor.\n    struct EIP712MarketJoin {\n        // replay attack protection\n        uint256 chainId;\n        address verifyingContract;\n\n        // actual data attributes\n        address member;\n        uint256 joined;\n        bytes16 marketId;\n        uint8 actorType;\n        string meta;\n    }\n\n    /// EIP712 type data.\n    bytes32 constant EIP712_DOMAIN_TYPEHASH = keccak256(\n        \"EIP712Domain(string name,string version)\"\n    );\n\n    /// EIP712 type data.\n    bytes32 constant EIP712_MEMBER_REGISTER_TYPEHASH = keccak256(\n        \"EIP712MemberRegister(uint256 chainId,address verifyingContract,address member,uint256 registered,string eula,string profile)\"\n    );\n\n    /// EIP712 type data.\n    bytes32 constant EIP712_MARKET_CREATE_TYPEHASH = keccak256(\n        \"EIP712MarketCreate(uint256 chainId,address verifyingContract,bytes16 marketId,string terms,string meta,address maker,uint256 providerSecurity,uint256 consumerSecurity,uint256 marketFee)\"\n    );\n\n    /// EIP712 type data.\n    bytes32 constant EIP712_MARKET_JOIN_TYPEHASH = keccak256(\n        \"EIP712MarketJoin(uint256 chainId,address verifyingContract,address member,uint256 joined,bytes16 marketId,uint8 actorType,string meta)\"\n    );\n\n    /**\n     * Split a signature given as a bytes string into components.\n     */\n    function splitSignature (bytes memory signature_rsv) private pure returns (uint8 v, bytes32 r, bytes32 s) {\n        require(signature_rsv.length == 65, \"INVALID_SIGNATURE_LENGTH\");\n\n        //  // first 32 bytes, after the length prefix\n        //  r := mload(add(sig, 32))\n        //  // second 32 bytes\n        //  s := mload(add(sig, 64))\n        //  // final byte (first byte of the next 32 bytes)\n        //  v := byte(0, mload(add(sig, 96)))\n        assembly\n        {\n            r := mload(add(signature_rsv, 32))\n            s := mload(add(signature_rsv, 64))\n            v := and(mload(add(signature_rsv, 65)), 255)\n        }\n        if (v < 27) {\n            v += 27;\n        }\n\n        return (v, r, s);\n    }\n\n    function hash(EIP712Domain memory domain_) private pure returns (bytes32) {\n        return keccak256(abi.encode(\n            EIP712_DOMAIN_TYPEHASH,\n            keccak256(bytes(domain_.name)),\n            keccak256(bytes(domain_.version))\n        ));\n    }\n\n    function domainSeparator () private pure returns (bytes32) {\n        // makes signatures from different domains incompatible.\n        // see https://github.com/ethereum/EIPs/blob/master/EIPS/eip-712.md#arbitrary-messages\n        return hash(EIP712Domain({\n            name: \"XBR\",\n            version: \"1\"\n        }));\n    }\n\n    function hash (EIP712MemberRegister memory obj) private pure returns (bytes32) {\n        return keccak256(abi.encode(\n            EIP712_MEMBER_REGISTER_TYPEHASH,\n            obj.chainId,\n            obj.verifyingContract,\n            obj.member,\n            obj.registered,\n            keccak256(bytes(obj.eula)),\n            keccak256(bytes(obj.profile))\n        ));\n    }\n\n    function hash (EIP712MarketCreate memory obj) private pure returns (bytes32) {\n        return keccak256(abi.encode(\n            EIP712_MARKET_CREATE_TYPEHASH,\n            obj.chainId,\n            obj.verifyingContract,\n            obj.marketId,\n            obj.terms,\n            obj.meta,\n            obj.maker,\n            obj.providerSecurity,\n            obj.consumerSecurity,\n            obj.marketFee,\n            keccak256(bytes(obj.meta))\n        ));\n    }\n\n    function hash (EIP712MarketJoin memory obj) private pure returns (bytes32) {\n        return keccak256(abi.encode(\n            EIP712_MARKET_JOIN_TYPEHASH,\n            obj.chainId,\n            obj.verifyingContract,\n            obj.member,\n            obj.joined,\n            obj.marketId,\n            obj.actorType,\n            keccak256(bytes(obj.meta))\n        ));\n    }\n\n    function verify (address signer, EIP712MemberRegister memory obj,\n        bytes memory signature) public pure returns (bool) {\n\n        (uint8 v, bytes32 r, bytes32 s) = splitSignature(signature);\n\n        bytes32 digest = keccak256(abi.encodePacked(\n            \"\\x19\\x01\",\n            domainSeparator(),\n            hash(obj)\n        ));\n\n        return ecrecover(digest, v, r, s) == signer;\n    }\n\n    function verify (address signer, EIP712MarketCreate memory obj,\n        bytes memory signature) public pure returns (bool) {\n\n        (uint8 v, bytes32 r, bytes32 s) = splitSignature(signature);\n\n        bytes32 digest = keccak256(abi.encodePacked(\n            \"\\x19\\x01\",\n            domainSeparator(),\n            hash(obj)\n        ));\n\n        return ecrecover(digest, v, r, s) == signer;\n    }\n\n    function verify (address signer, EIP712MarketJoin memory obj,\n        bytes memory signature) public pure returns (bool) {\n\n        (uint8 v, bytes32 r, bytes32 s) = splitSignature(signature);\n\n        bytes32 digest = keccak256(abi.encodePacked(\n            \"\\x19\\x01\",\n            domainSeparator(),\n            hash(obj)\n        ));\n\n        return ecrecover(digest, v, r, s) == signer;\n    }\n}\n",
  "sourcePath": "/home/oberstet/scm/crossbario/xbr-protocol/contracts/XBRTypes.sol",
  "compiler": {
    "name": "solc",
    "version": "0.5.16+commit.9c3226ce.Emscripten.clang"
  },
  "schemaVersion": "3.0.23",
  "updatedAt": "2020-03-01T11:22:57.693Z",
  "devdoc": {
    "author": "The XBR Project",
    "methods": {},
    "title": "XBR domain types and helper functions."
  },
  "userdoc": {
    "methods": {}
  }
}