{
  "contractName": "XBRTypes",
  "abi": [
    {
      "constant": true,
      "inputs": [
        {
          "internalType": "address",
          "name": "signer",
          "type": "address"
        },
        {
          "components": [
            {
              "internalType": "uint256",
              "name": "chainId",
              "type": "uint256"
            },
            {
              "internalType": "address",
              "name": "verifyingContract",
              "type": "address"
            },
            {
              "internalType": "address",
              "name": "member",
              "type": "address"
            },
            {
              "internalType": "uint256",
              "name": "registered",
              "type": "uint256"
            },
            {
              "internalType": "string",
              "name": "eula",
              "type": "string"
            },
            {
              "internalType": "string",
              "name": "profile",
              "type": "string"
            }
          ],
          "internalType": "struct XBRTypes.EIP712MemberRegister",
          "name": "obj",
          "type": "tuple"
        },
        {
          "internalType": "bytes",
          "name": "signature",
          "type": "bytes"
        }
      ],
      "name": "verify",
      "outputs": [
        {
          "internalType": "bool",
          "name": "",
          "type": "bool"
        }
      ],
      "payable": false,
      "stateMutability": "pure",
      "type": "function"
    },
    {
      "constant": true,
      "inputs": [
        {
          "internalType": "address",
          "name": "signer",
          "type": "address"
        },
        {
          "components": [
            {
              "internalType": "uint256",
              "name": "chainId",
              "type": "uint256"
            },
            {
              "internalType": "address",
              "name": "verifyingContract",
              "type": "address"
            },
            {
              "internalType": "address",
              "name": "member",
              "type": "address"
            },
            {
              "internalType": "uint256",
              "name": "joined",
              "type": "uint256"
            },
            {
              "internalType": "bytes16",
              "name": "marketId",
              "type": "bytes16"
            },
            {
              "internalType": "uint8",
              "name": "actorType",
              "type": "uint8"
            },
            {
              "internalType": "string",
              "name": "meta",
              "type": "string"
            }
          ],
          "internalType": "struct XBRTypes.EIP712MarketJoin",
          "name": "obj",
          "type": "tuple"
        },
        {
          "internalType": "bytes",
          "name": "signature",
          "type": "bytes"
        }
      ],
      "name": "verify",
      "outputs": [
        {
          "internalType": "bool",
          "name": "",
          "type": "bool"
        }
      ],
      "payable": false,
      "stateMutability": "pure",
      "type": "function"
    },
    {
      "constant": true,
      "inputs": [
        {
          "internalType": "address",
          "name": "signer",
          "type": "address"
        },
        {
          "components": [
            {
              "internalType": "string",
              "name": "name",
              "type": "string"
            },
            {
              "internalType": "string",
              "name": "version",
              "type": "string"
            },
            {
              "internalType": "uint256",
              "name": "chainId",
              "type": "uint256"
            },
            {
              "internalType": "address",
              "name": "verifyingContract",
              "type": "address"
            }
          ],
          "internalType": "struct XBRTypes.EIP712Domain",
          "name": "obj",
          "type": "tuple"
        },
        {
          "internalType": "bytes",
          "name": "signature",
          "type": "bytes"
        }
      ],
      "name": "verify",
      "outputs": [
        {
          "internalType": "bool",
          "name": "",
          "type": "bool"
        }
      ],
      "payable": false,
      "stateMutability": "pure",
      "type": "function"
    }
  ],
  "bytecode": "0x610cd7610026600b82828239805160001a60731461001957fe5b30600052607381538281f3fe730000000000000000000000000000000000000000301460806040526004361061004b5760003560e01c80633402ce0114610050578063bc06253214610079578063fbe907421461008c575b600080fd5b61006361005e36600461071c565b61009f565b6040516100709190610a37565b60405180910390f35b6100636100873660046106d2565b610160565b61006361009a366004610655565b610188565b6000806000806100ae856101b0565b92509250925060006100be61020d565b6100c78861028f565b6040516020016100d89291906109f0565b604051602081830303815290604052805190602001209050876001600160a01b03166001828686866040516000815260200160405260405161011d9493929190610b70565b6020604051602081039080840390855afa15801561013f573d6000803e3d6000fd5b505050602060405103516001600160a01b0316149450505050509392505050565b60008060008061016f856101b0565b925092509250600061017f61020d565b6100c788610304565b600080600080610197856101b0565b92509250925060006101a761020d565b6100c78861035b565b600080600083516041146101df5760405162461bcd60e51b81526004016101d690610bae565b60405180910390fd5b50505060208101516040820151604183015160ff169190601b83101561020657601b830192505b9193909250565b600061028a6040518060800160405280604051806040016040528060038152602001622c212960e91b8152508152602001604051806040016040528060018152602001603160f81b81525081526020016001815260200173254dffcd3277c0b1660f6d42efbb754edababc2b6001600160a01b031681525061035b565b905090565b600060405161029d90610a21565b604051809103902082600001518360200151846040015185606001518660800151805190602001208760a00151805190602001206040516020016102e79796959493929190610b08565b604051602081830303815290604052805190602001209050919050565b6000604051610312906109e5565b6040518091039020826000015183602001518460400151856060015186608001518760a001518860c00151805190602001206040516020016102e7989796959493929190610a91565b600060405161036990610a2c565b6040518091039020826000015180519060200120836020015180519060200120846040015185606001516040516020016102e7959493929190610a45565b80356103b281610c62565b92915050565b80356103b281610c79565b600082601f8301126103d457600080fd5b81356103e76103e282610be5565b610bbe565b9150808252602083016020830185838301111561040357600080fd5b61040e838284610c56565b50505092915050565b60006080828403121561042957600080fd5b6104336080610bbe565b9050813567ffffffffffffffff81111561044c57600080fd5b610458848285016103c3565b825250602082013567ffffffffffffffff81111561047557600080fd5b610481848285016103c3565b60208301525060406104958482850161063f565b60408301525060606104a9848285016103a7565b60608301525092915050565b600060e082840312156104c757600080fd5b6104d160e0610bbe565b905060006104df848461063f565b82525060206104f0848483016103a7565b6020830152506040610504848285016103a7565b60408301525060606105188482850161063f565b606083015250608061052c848285016103b8565b60808301525060a06105408482850161064a565b60a08301525060c082013567ffffffffffffffff81111561056057600080fd5b61056c848285016103c3565b60c08301525092915050565b600060c0828403121561058a57600080fd5b61059460c0610bbe565b905060006105a2848461063f565b82525060206105b3848483016103a7565b60208301525060406105c7848285016103a7565b60408301525060606105db8482850161063f565b606083015250608082013567ffffffffffffffff8111156105fb57600080fd5b610607848285016103c3565b60808301525060a082013567ffffffffffffffff81111561062757600080fd5b610633848285016103c3565b60a08301525092915050565b80356103b281610c82565b80356103b281610c8b565b60008060006060848603121561066a57600080fd5b600061067686866103a7565b935050602084013567ffffffffffffffff81111561069357600080fd5b61069f86828701610417565b925050604084013567ffffffffffffffff8111156106bc57600080fd5b6106c8868287016103c3565b9150509250925092565b6000806000606084860312156106e757600080fd5b60006106f386866103a7565b935050602084013567ffffffffffffffff81111561071057600080fd5b61069f868287016104b5565b60008060006060848603121561073157600080fd5b600061073d86866103a7565b935050602084013567ffffffffffffffff81111561075a57600080fd5b61069f86828701610578565b61076f81610c1b565b82525050565b61076f81610c26565b61076f81610c2b565b61076f81610c41565b61076f61079c82610c41565b610c41565b60006107ae608b83610c16565b7f4549503731324d61726b65744a6f696e2875696e7432353620636861696e496481527f2c75696e7432353620626c6f636b4e756d6265722c616464726573732076657260208201527f696679696e67436f6e74726163742c61646472657373206d656d6265722c627960408201527f7465733136206d61726b657449642c75696e7438206163746f72547970652c7360608201526a7472696e67206d6574612960a81b6080820152608b0192915050565b600061086d600283610c16565b61190160f01b815260020192915050565b600061088b607d83610c16565b7f4549503731324d656d62657252656769737465722875696e743235362063686181527f696e49642c75696e7432353620626c6f636b4e756d6265722c6164647265737360208201527f20766572696679696e67436f6e74726163742c61646472657373206d656d626560408201527f722c737472696e672065756c612c737472696e672070726f66696c65290000006060820152607d0192915050565b6000610936605283610c16565b7f454950373132446f6d61696e28737472696e67206e616d652c737472696e672081527f76657273696f6e2c75696e7432353620636861696e49642c6164647265737320602082015271766572696679696e67436f6e74726163742960701b604082015260520192915050565b60006109b0601883610c0d565b7f494e56414c49445f5349474e41545552455f4c454e4754480000000000000000815260200192915050565b61076f81610c50565b60006103b2826107a1565b60006109fb82610860565b9150610a078285610790565b602082019150610a178284610790565b5060200192915050565b60006103b28261087e565b60006103b282610929565b602081016103b28284610775565b60a08101610a538288610787565b610a606020830187610787565b610a6d6040830186610787565b610a7a6060830185610787565b610a876080830184610766565b9695505050505050565b6101008101610aa0828b610787565b610aad602083018a610787565b610aba6040830189610766565b610ac76060830188610766565b610ad46080830187610787565b610ae160a083018661077e565b610aee60c08301856109dc565b610afb60e0830184610787565b9998505050505050505050565b60e08101610b16828a610787565b610b236020830189610787565b610b306040830188610766565b610b3d6060830187610766565b610b4a6080830186610787565b610b5760a0830185610787565b610b6460c0830184610787565b98975050505050505050565b60808101610b7e8287610787565b610b8b60208301866109dc565b610b986040830185610787565b610ba56060830184610787565b95945050505050565b602080825281016103b2816109a3565b60405181810167ffffffffffffffff81118282101715610bdd57600080fd5b604052919050565b600067ffffffffffffffff821115610bfc57600080fd5b506020601f91909101601f19160190565b90815260200190565b919050565b60006103b282610c44565b151590565b6fffffffffffffffffffffffffffffffff191690565b90565b6001600160a01b031690565b60ff1690565b82818337506000910152565b610c6b81610c1b565b8114610c7657600080fd5b50565b610c6b81610c2b565b610c6b81610c41565b610c6b81610c5056fea365627a7a72315820ffc605e1033155ccb33d451cd4e6862837e98d00d12056f64f990b292a0812906c6578706572696d656e74616cf564736f6c63430005100040",
  "source": "///////////////////////////////////////////////////////////////////////////////\n//\n//  Copyright (C) 2018-2019 Crossbar.io Technologies GmbH and contributors.\n//\n//  Licensed under the Apache License, Version 2.0 (the \"License\");\n//  you may not use this file except in compliance with the License.\n//  You may obtain a copy of the License at\n//\n//      http://www.apache.org/licenses/LICENSE-2.0\n//\n//  Unless required by applicable law or agreed to in writing, software\n//  distributed under the License is distributed on an \"AS IS\" BASIS,\n//  WITHOUT WARRANTIES OR CONDITIONS OF ANY KIND, either express or implied.\n//  See the License for the specific language governing permissions and\n//  limitations under the License.\n//\n///////////////////////////////////////////////////////////////////////////////\n\npragma solidity ^0.5.12;\npragma experimental ABIEncoderV2;\n\nimport \"./XBRToken.sol\";\nimport \"./XBRChannel.sol\";\n\n\n/**\n * @title XBR domain types and helper functions.\n * @author The XBR Project\n */\nlibrary XBRTypes {\n\n    /// XBR Network membership levels\n    enum MemberLevel { NULL, ACTIVE, VERIFIED, RETIRED, PENALTY, BLOCKED }\n\n    /// XBR Market Actor types\n    enum ActorType { NULL, PROVIDER, CONSUMER }\n\n    // //////// container types\n\n    /// Container type for holding XBR Network membership information.\n    struct Member {\n        /// Time (block.timestamp) when the member was (initially) registered.\n        uint registered;\n\n        /// The IPFS Multihash of the XBR EULA being agreed to and stored as one\n        /// ZIP file archive on IPFS.\n        string eula;\n\n        /// Optional public member profile: the IPFS Multihash of the member profile stored in IPFS.\n        string profile;\n\n        /// Current member level.\n        MemberLevel level;\n    }\n\n    /// Container type for holding XBR Market Actors information.\n    struct Actor {\n        /// Time (block.timestamp) when the actor has joined.\n        uint joined;\n\n        /// Security deposited by actor.\n        uint256 security;\n\n        /// Metadata attached to an actor in a market.\n        string meta;\n\n        /// All payment (paying) channels of the respective buyer (seller) actor.\n        address[] channels;\n    }\n\n    /// Container type for holding XBR Market information.\n    struct Market {\n        /// Time (block.timestamp) when the market was created.\n        uint created;\n\n        /// Market sequence number.\n        uint32 marketSeq;\n\n        /// Market owner (aka \"market operator\").\n        address owner;\n\n        /// Market terms (IPFS Multihash).\n        string terms;\n\n        /// Market metadata (IPFS Multihash)\n        string meta;\n\n        /// Current market maker address.\n        address maker;\n\n        /// Security deposit required by data providers (sellers) to join the market.\n        uint256 providerSecurity;\n\n        /// Security deposit required by data consumers (buyers) to join the market.\n        uint256 consumerSecurity;\n\n        /// Market fee rate for the market operator.\n        uint256 marketFee;\n\n        /// Adresses of provider (seller) actors joined in the market.\n        address[] providerActorAdrs;\n\n        /// Adresses of consumer (buyer) actors joined in the market.\n        address[] consumerActorAdrs;\n\n        /// Provider (seller) actors joined in the market by actor address.\n        mapping(address => Actor) providerActors;\n\n        /// Consumer (buyer) actors joined in the market by actor address.\n        mapping(address => Actor) consumerActors;\n\n        /// Current payment channel by (buyer) delegate.\n        mapping(address => address) currentPaymentChannelByDelegate;\n\n        /// Current paying channel by (seller) delegate.\n        mapping(address => address) currentPayingChannelByDelegate;\n\n    }\n\n    /// Container type for holding paying channel request information.\n    struct PayingChannelRequest {\n        bytes16 marketId;\n        address sender;\n        address delegate;\n        address recipient;\n        uint256 amount;\n        uint32 timeout;\n    }\n\n    /// EIP712 type.\n    struct EIP712Domain {\n        string  name;\n        string  version;\n        uint256 chainId;\n        address verifyingContract;\n    }\n\n    /// EIP712 type.\n    struct EIP712MemberRegister {\n        uint256 chainId;\n        address verifyingContract;\n        address member;\n        uint256 registered;\n        string eula;\n        string profile;\n    }\n\n    /// EIP712 type.\n    struct EIP712MarketJoin {\n        uint256 chainId;\n        address verifyingContract;\n        address member;\n        uint256 joined;\n        bytes16 marketId;\n        uint8 actorType;\n        string meta;\n    }\n\n    /// EIP712 type data.\n    bytes32 constant EIP712_DOMAIN_TYPEHASH = keccak256(\n        \"EIP712Domain(string name,string version,uint256 chainId,address verifyingContract)\"\n    );\n\n    /// EIP712 type data.\n    bytes32 constant EIP712_MEMBER_REGISTER_TYPEHASH = keccak256(\n        \"EIP712MemberRegister(uint256 chainId,uint256 blockNumber,address verifyingContract,address member,string eula,string profile)\"\n    );\n\n    /// EIP712 type data.\n    bytes32 constant EIP712_MARKET_JOIN_TYPEHASH = keccak256(\n        \"EIP712MarketJoin(uint256 chainId,uint256 blockNumber,address verifyingContract,address member,bytes16 marketId,uint8 actorType,string meta)\"\n    );\n\n    /**\n     * Split a signature given as a bytes string into components.\n     */\n    function splitSignature (bytes memory signature_rsv) private pure returns (uint8 v, bytes32 r, bytes32 s) {\n        require(signature_rsv.length == 65, \"INVALID_SIGNATURE_LENGTH\");\n\n        //  // first 32 bytes, after the length prefix\n        //  r := mload(add(sig, 32))\n        //  // second 32 bytes\n        //  s := mload(add(sig, 64))\n        //  // final byte (first byte of the next 32 bytes)\n        //  v := byte(0, mload(add(sig, 96)))\n        assembly\n        {\n            r := mload(add(signature_rsv, 32))\n            s := mload(add(signature_rsv, 64))\n            v := and(mload(add(signature_rsv, 65)), 255)\n        }\n        if (v < 27) {\n            v += 27;\n        }\n\n        return (v, r, s);\n    }\n\n    function hash(EIP712Domain memory domain_) private pure returns (bytes32) {\n        return keccak256(abi.encode(\n            EIP712_DOMAIN_TYPEHASH,\n            keccak256(bytes(domain_.name)),\n            keccak256(bytes(domain_.version)),\n            domain_.chainId,\n            domain_.verifyingContract\n        ));\n    }\n\n    function domainSeparator () private pure returns (bytes32) {\n        return hash(EIP712Domain({\n            name: \"XBR\",\n            version: \"1\",\n            // FIXME: read chain ID at run-time (if possible)\n            chainId: 1,\n            //verifyingContract: address(this)\n            verifyingContract: 0x254dffcd3277C0b1660F6d42EFbB754edaBAbC2B\n        }));\n    }\n\n    function hash (EIP712MemberRegister memory obj) private pure returns (bytes32) {\n        return keccak256(abi.encode(\n            EIP712_MEMBER_REGISTER_TYPEHASH,\n            obj.chainId,\n            obj.verifyingContract,\n            obj.member,\n            obj.registered,\n            keccak256(bytes(obj.eula)),\n            keccak256(bytes(obj.profile))\n        ));\n    }\n\n    function hash (EIP712MarketJoin memory obj) private pure returns (bytes32) {\n        return keccak256(abi.encode(\n            EIP712_MARKET_JOIN_TYPEHASH,\n            obj.chainId,\n            obj.verifyingContract,\n            obj.member,\n            obj.joined,\n            obj.marketId,\n            obj.actorType,\n            keccak256(bytes(obj.meta))\n        ));\n    }\n\n    function verify (address signer, EIP712Domain memory obj,\n        bytes memory signature) public pure returns (bool) {\n\n        (uint8 v, bytes32 r, bytes32 s) = splitSignature(signature);\n\n        bytes32 digest = keccak256(abi.encodePacked(\n            \"\\x19\\x01\",\n            domainSeparator(),\n            hash(obj)\n        ));\n\n        return ecrecover(digest, v, r, s) == signer;\n    }\n\n    function verify (address signer, EIP712MemberRegister memory obj,\n        bytes memory signature) public pure returns (bool) {\n\n        (uint8 v, bytes32 r, bytes32 s) = splitSignature(signature);\n\n        bytes32 digest = keccak256(abi.encodePacked(\n            \"\\x19\\x01\",\n            domainSeparator(),\n            hash(obj)\n        ));\n\n        return ecrecover(digest, v, r, s) == signer;\n    }\n\n    function verify (address signer, EIP712MarketJoin memory obj,\n        bytes memory signature) public pure returns (bool) {\n\n        (uint8 v, bytes32 r, bytes32 s) = splitSignature(signature);\n\n        bytes32 digest = keccak256(abi.encodePacked(\n            \"\\x19\\x01\",\n            domainSeparator(),\n            hash(obj)\n        ));\n\n        return ecrecover(digest, v, r, s) == signer;\n    }\n}\n",
  "sourcePath": "/home/oberstet/scm/crossbario/xbr-protocol/contracts/XBRTypes.sol",
  "compiler": {
    "name": "solc",
    "version": "0.5.16+commit.9c3226ce.Emscripten.clang"
  },
  "schemaVersion": "3.0.23",
  "updatedAt": "2020-02-24T08:55:43.033Z",
  "devdoc": {
    "author": "The XBR Project",
    "methods": {},
    "title": "XBR domain types and helper functions."
  },
  "userdoc": {
    "methods": {}
  }
}